{
  "_format": "hh-sol-artifact-1",
  "contractName": "Toy",
  "sourceName": "contracts/Toy.sol",
  "abi": [
    {
      "inputs": [
        {
          "internalType": "string",
          "name": "_name",
          "type": "string"
        },
        {
          "internalType": "string",
          "name": "_symbol",
          "type": "string"
        },
        {
          "internalType": "address",
          "name": "_proxyRegistryAddress",
          "type": "address"
        }
      ],
      "stateMutability": "nonpayable",
      "type": "constructor"
    },
    {
      "anonymous": false,
      "inputs": [
        {
          "indexed": true,
          "internalType": "address",
          "name": "owner",
          "type": "address"
        },
        {
          "indexed": true,
          "internalType": "address",
          "name": "approved",
          "type": "address"
        },
        {
          "indexed": true,
          "internalType": "uint256",
          "name": "tokenId",
          "type": "uint256"
        }
      ],
      "name": "Approval",
      "type": "event"
    },
    {
      "anonymous": false,
      "inputs": [
        {
          "indexed": true,
          "internalType": "address",
          "name": "owner",
          "type": "address"
        },
        {
          "indexed": true,
          "internalType": "address",
          "name": "operator",
          "type": "address"
        },
        {
          "indexed": false,
          "internalType": "bool",
          "name": "approved",
          "type": "bool"
        }
      ],
      "name": "ApprovalForAll",
      "type": "event"
    },
    {
      "anonymous": false,
      "inputs": [
        {
          "indexed": false,
          "internalType": "address",
          "name": "userAddress",
          "type": "address"
        },
        {
          "indexed": false,
          "internalType": "address payable",
          "name": "relayerAddress",
          "type": "address"
        },
        {
          "indexed": false,
          "internalType": "bytes",
          "name": "functionSignature",
          "type": "bytes"
        }
      ],
      "name": "MetaTransactionExecuted",
      "type": "event"
    },
    {
      "anonymous": false,
      "inputs": [
        {
          "indexed": true,
          "internalType": "address",
          "name": "previousOwner",
          "type": "address"
        },
        {
          "indexed": true,
          "internalType": "address",
          "name": "newOwner",
          "type": "address"
        }
      ],
      "name": "OwnershipTransferred",
      "type": "event"
    },
    {
      "anonymous": false,
      "inputs": [
        {
          "indexed": true,
          "internalType": "address",
          "name": "from",
          "type": "address"
        },
        {
          "indexed": true,
          "internalType": "address",
          "name": "to",
          "type": "address"
        },
        {
          "indexed": true,
          "internalType": "uint256",
          "name": "tokenId",
          "type": "uint256"
        }
      ],
      "name": "Transfer",
      "type": "event"
    },
    {
      "inputs": [],
      "name": "ERC712_VERSION",
      "outputs": [
        {
          "internalType": "string",
          "name": "",
          "type": "string"
        }
      ],
      "stateMutability": "view",
      "type": "function"
    },
    {
      "inputs": [
        {
          "internalType": "address",
          "name": "to",
          "type": "address"
        },
        {
          "internalType": "uint256",
          "name": "tokenId",
          "type": "uint256"
        }
      ],
      "name": "approve",
      "outputs": [],
      "stateMutability": "nonpayable",
      "type": "function"
    },
    {
      "inputs": [
        {
          "internalType": "address",
          "name": "owner",
          "type": "address"
        }
      ],
      "name": "balanceOf",
      "outputs": [
        {
          "internalType": "uint256",
          "name": "",
          "type": "uint256"
        }
      ],
      "stateMutability": "view",
      "type": "function"
    },
    {
      "inputs": [],
      "name": "contractURI",
      "outputs": [
        {
          "internalType": "string",
          "name": "",
          "type": "string"
        }
      ],
      "stateMutability": "pure",
      "type": "function"
    },
    {
      "inputs": [],
      "name": "daoAddress",
      "outputs": [
        {
          "internalType": "address",
          "name": "",
          "type": "address"
        }
      ],
      "stateMutability": "view",
      "type": "function"
    },
    {
      "inputs": [
        {
          "internalType": "address",
          "name": "userAddress",
          "type": "address"
        },
        {
          "internalType": "bytes",
          "name": "functionSignature",
          "type": "bytes"
        },
        {
          "internalType": "bytes32",
          "name": "sigR",
          "type": "bytes32"
        },
        {
          "internalType": "bytes32",
          "name": "sigS",
          "type": "bytes32"
        },
        {
          "internalType": "uint8",
          "name": "sigV",
          "type": "uint8"
        }
      ],
      "name": "executeMetaTransaction",
      "outputs": [
        {
          "internalType": "bytes",
          "name": "",
          "type": "bytes"
        }
      ],
      "stateMutability": "payable",
      "type": "function"
    },
    {
      "inputs": [],
      "name": "fixedPrice",
      "outputs": [
        {
          "internalType": "uint256",
          "name": "",
          "type": "uint256"
        }
      ],
      "stateMutability": "view",
      "type": "function"
    },
    {
      "inputs": [],
      "name": "flipSalePublicStatus",
      "outputs": [],
      "stateMutability": "nonpayable",
      "type": "function"
    },
    {
      "inputs": [],
      "name": "flipSaleWhitelistStatus",
      "outputs": [],
      "stateMutability": "nonpayable",
      "type": "function"
    },
    {
      "inputs": [
        {
          "internalType": "uint256",
          "name": "",
          "type": "uint256"
        }
      ],
      "name": "generativeArtScript",
      "outputs": [
        {
          "internalType": "string",
          "name": "",
          "type": "string"
        }
      ],
      "stateMutability": "view",
      "type": "function"
    },
    {
      "inputs": [
        {
          "internalType": "uint256",
          "name": "tokenId",
          "type": "uint256"
        }
      ],
      "name": "getApproved",
      "outputs": [
        {
          "internalType": "address",
          "name": "",
          "type": "address"
        }
      ],
      "stateMutability": "view",
      "type": "function"
    },
    {
      "inputs": [],
      "name": "getChainId",
      "outputs": [
        {
          "internalType": "uint256",
          "name": "",
          "type": "uint256"
        }
      ],
      "stateMutability": "view",
      "type": "function"
    },
    {
      "inputs": [],
      "name": "getDomainSeperator",
      "outputs": [
        {
          "internalType": "bytes32",
          "name": "",
          "type": "bytes32"
        }
      ],
      "stateMutability": "view",
      "type": "function"
    },
    {
      "inputs": [
        {
          "internalType": "address",
          "name": "user",
          "type": "address"
        }
      ],
      "name": "getNonce",
      "outputs": [
        {
          "internalType": "uint256",
          "name": "nonce",
          "type": "uint256"
        }
      ],
      "stateMutability": "view",
      "type": "function"
    },
    {
      "inputs": [
        {
          "internalType": "bytes32",
          "name": "",
          "type": "bytes32"
        }
      ],
      "name": "hashToTokenId",
      "outputs": [
        {
          "internalType": "uint256",
          "name": "",
          "type": "uint256"
        }
      ],
      "stateMutability": "view",
      "type": "function"
    },
    {
      "inputs": [
        {
          "internalType": "address",
          "name": "owner",
          "type": "address"
        },
        {
          "internalType": "address",
          "name": "operator",
          "type": "address"
        }
      ],
      "name": "isApprovedForAll",
      "outputs": [
        {
          "internalType": "bool",
          "name": "",
          "type": "bool"
        }
      ],
      "stateMutability": "view",
      "type": "function"
    },
    {
      "inputs": [
        {
          "internalType": "address",
          "name": "_address",
          "type": "address"
        }
      ],
      "name": "isWhitelistClaimed",
      "outputs": [
        {
          "internalType": "bool",
          "name": "",
          "type": "bool"
        }
      ],
      "stateMutability": "view",
      "type": "function"
    },
    {
      "inputs": [],
      "name": "maxByMint",
      "outputs": [
        {
          "internalType": "uint256",
          "name": "",
          "type": "uint256"
        }
      ],
      "stateMutability": "view",
      "type": "function"
    },
    {
      "inputs": [],
      "name": "maxPublicSupply",
      "outputs": [
        {
          "internalType": "uint256",
          "name": "",
          "type": "uint256"
        }
      ],
      "stateMutability": "view",
      "type": "function"
    },
    {
      "inputs": [],
      "name": "maxReservedSupply",
      "outputs": [
        {
          "internalType": "uint256",
          "name": "",
          "type": "uint256"
        }
      ],
      "stateMutability": "view",
      "type": "function"
    },
    {
      "inputs": [],
      "name": "maxSupply",
      "outputs": [
        {
          "internalType": "uint256",
          "name": "",
          "type": "uint256"
        }
      ],
      "stateMutability": "view",
      "type": "function"
    },
    {
      "inputs": [],
      "name": "merkleRoot",
      "outputs": [
        {
          "internalType": "bytes32",
          "name": "",
          "type": "bytes32"
        }
      ],
      "stateMutability": "view",
      "type": "function"
    },
    {
      "inputs": [
        {
          "internalType": "uint256",
          "name": "numberOfTokens",
          "type": "uint256"
        }
      ],
      "name": "mintPublic",
      "outputs": [],
      "stateMutability": "payable",
      "type": "function"
    },
    {
      "inputs": [
        {
          "internalType": "address",
          "name": "_to",
          "type": "address"
        }
      ],
      "name": "mintReserved",
      "outputs": [],
      "stateMutability": "nonpayable",
      "type": "function"
    },
    {
      "inputs": [
        {
          "internalType": "uint256",
          "name": "numberOfTokens",
          "type": "uint256"
        },
        {
          "internalType": "bytes32[]",
          "name": "_merkleProof",
          "type": "bytes32[]"
        }
      ],
      "name": "mintWhitelist",
      "outputs": [],
      "stateMutability": "payable",
      "type": "function"
    },
    {
      "inputs": [],
      "name": "name",
      "outputs": [
        {
          "internalType": "string",
          "name": "",
          "type": "string"
        }
      ],
      "stateMutability": "view",
      "type": "function"
    },
    {
      "inputs": [],
      "name": "owner",
      "outputs": [
        {
          "internalType": "address",
          "name": "",
          "type": "address"
        }
      ],
      "stateMutability": "view",
      "type": "function"
    },
    {
      "inputs": [
        {
          "internalType": "uint256",
          "name": "tokenId",
          "type": "uint256"
        }
      ],
      "name": "ownerOf",
      "outputs": [
        {
          "internalType": "address",
          "name": "",
          "type": "address"
        }
      ],
      "stateMutability": "view",
      "type": "function"
    },
    {
      "inputs": [],
      "name": "proxyRegistryAddress",
      "outputs": [
        {
          "internalType": "address",
          "name": "",
          "type": "address"
        }
      ],
      "stateMutability": "view",
      "type": "function"
    },
    {
      "inputs": [],
      "name": "renounceOwnership",
      "outputs": [],
      "stateMutability": "nonpayable",
      "type": "function"
    },
    {
      "inputs": [
        {
          "internalType": "uint256",
          "name": "",
          "type": "uint256"
        }
      ],
      "name": "reservedHashes",
      "outputs": [
        {
          "internalType": "bytes32",
          "name": "",
          "type": "bytes32"
        }
      ],
      "stateMutability": "view",
      "type": "function"
    },
    {
      "inputs": [
        {
          "internalType": "address",
          "name": "from",
          "type": "address"
        },
        {
          "internalType": "address",
          "name": "to",
          "type": "address"
        },
        {
          "internalType": "uint256",
          "name": "tokenId",
          "type": "uint256"
        }
      ],
      "name": "safeTransferFrom",
      "outputs": [],
      "stateMutability": "nonpayable",
      "type": "function"
    },
    {
      "inputs": [
        {
          "internalType": "address",
          "name": "from",
          "type": "address"
        },
        {
          "internalType": "address",
          "name": "to",
          "type": "address"
        },
        {
          "internalType": "uint256",
          "name": "tokenId",
          "type": "uint256"
        },
        {
          "internalType": "bytes",
          "name": "_data",
          "type": "bytes"
        }
      ],
      "name": "safeTransferFrom",
      "outputs": [],
      "stateMutability": "nonpayable",
      "type": "function"
    },
    {
      "inputs": [],
      "name": "salePublicIsActive",
      "outputs": [
        {
          "internalType": "bool",
          "name": "",
          "type": "bool"
        }
      ],
      "stateMutability": "view",
      "type": "function"
    },
    {
      "inputs": [],
      "name": "saleWhitelistIsActive",
      "outputs": [
        {
          "internalType": "bool",
          "name": "",
          "type": "bool"
        }
      ],
      "stateMutability": "view",
      "type": "function"
    },
    {
      "inputs": [
        {
          "internalType": "address",
          "name": "operator",
          "type": "address"
        },
        {
          "internalType": "bool",
          "name": "approved",
          "type": "bool"
        }
      ],
      "name": "setApprovalForAll",
      "outputs": [],
      "stateMutability": "nonpayable",
      "type": "function"
    },
    {
      "inputs": [
        {
          "internalType": "string",
          "name": "_baseTokenURI",
          "type": "string"
        }
      ],
      "name": "setBaseTokenURI",
      "outputs": [],
      "stateMutability": "nonpayable",
      "type": "function"
    },
    {
      "inputs": [
        {
          "internalType": "address",
          "name": "_daoAddress",
          "type": "address"
        }
      ],
      "name": "setDaoAddress",
      "outputs": [],
      "stateMutability": "nonpayable",
      "type": "function"
    },
    {
      "inputs": [
        {
          "internalType": "uint256",
          "name": "_fixedPrice",
          "type": "uint256"
        }
      ],
      "name": "setFixedPrice",
      "outputs": [],
      "stateMutability": "nonpayable",
      "type": "function"
    },
    {
      "inputs": [
        {
          "internalType": "uint256",
          "name": "_maxByMint",
          "type": "uint256"
        }
      ],
      "name": "setMaxByMint",
      "outputs": [],
      "stateMutability": "nonpayable",
      "type": "function"
    },
    {
      "inputs": [
        {
          "internalType": "bytes32",
          "name": "_merkleRoot",
          "type": "bytes32"
        }
      ],
      "name": "setMerkleRoot",
      "outputs": [],
      "stateMutability": "nonpayable",
      "type": "function"
    },
    {
      "inputs": [
        {
          "internalType": "address",
          "name": "_proxyRegistryAddress",
          "type": "address"
        }
      ],
      "name": "setProxyRegistryAddress",
      "outputs": [],
      "stateMutability": "nonpayable",
      "type": "function"
    },
    {
      "inputs": [
        {
          "internalType": "bytes4",
          "name": "interfaceId",
          "type": "bytes4"
        }
      ],
      "name": "supportsInterface",
      "outputs": [
        {
          "internalType": "bool",
          "name": "",
          "type": "bool"
        }
      ],
      "stateMutability": "view",
      "type": "function"
    },
    {
      "inputs": [],
      "name": "symbol",
      "outputs": [
        {
          "internalType": "string",
          "name": "",
          "type": "string"
        }
      ],
      "stateMutability": "view",
      "type": "function"
    },
    {
      "inputs": [
        {
          "internalType": "uint256",
          "name": "",
          "type": "uint256"
        }
      ],
      "name": "tokenIdToHash",
      "outputs": [
        {
          "internalType": "bytes32",
          "name": "",
          "type": "bytes32"
        }
      ],
      "stateMutability": "view",
      "type": "function"
    },
    {
      "inputs": [
        {
          "internalType": "uint256",
          "name": "_tokenId",
          "type": "uint256"
        }
      ],
      "name": "tokenURI",
      "outputs": [
        {
          "internalType": "string",
          "name": "",
          "type": "string"
        }
      ],
      "stateMutability": "view",
      "type": "function"
    },
    {
      "inputs": [],
      "name": "totalPublicSupply",
      "outputs": [
        {
          "internalType": "uint256",
          "name": "",
          "type": "uint256"
        }
      ],
      "stateMutability": "view",
      "type": "function"
    },
    {
      "inputs": [],
      "name": "totalReservedSupply",
      "outputs": [
        {
          "internalType": "uint256",
          "name": "",
          "type": "uint256"
        }
      ],
      "stateMutability": "view",
      "type": "function"
    },
    {
      "inputs": [],
      "name": "totalSupply",
      "outputs": [
        {
          "internalType": "uint256",
          "name": "",
          "type": "uint256"
        }
      ],
      "stateMutability": "view",
      "type": "function"
    },
    {
      "inputs": [
        {
          "internalType": "address",
          "name": "from",
          "type": "address"
        },
        {
          "internalType": "address",
          "name": "to",
          "type": "address"
        },
        {
          "internalType": "uint256",
          "name": "tokenId",
          "type": "uint256"
        }
      ],
      "name": "transferFrom",
      "outputs": [],
      "stateMutability": "nonpayable",
      "type": "function"
    },
    {
      "inputs": [
        {
          "internalType": "address",
          "name": "newOwner",
          "type": "address"
        }
      ],
      "name": "transferOwnership",
      "outputs": [],
      "stateMutability": "nonpayable",
      "type": "function"
    },
    {
      "inputs": [
        {
          "internalType": "uint256[]",
          "name": "_indexes",
          "type": "uint256[]"
        },
        {
          "internalType": "string[]",
          "name": "_scripts",
          "type": "string[]"
        }
      ],
      "name": "updateScript",
      "outputs": [],
      "stateMutability": "nonpayable",
      "type": "function"
    },
    {
      "inputs": [],
      "name": "withdraw",
      "outputs": [],
      "stateMutability": "nonpayable",
      "type": "function"
    }
  ],
  "bytecode": "0x60806040527f9caffec5b91ddb1ce9f1ff51be0c888f5ee4b477ea2e45c16f0fe448f3176c4d600b55600c805461ff0019166101001790556001600d55610240600e55610236600f55600a60105567013fbe85edc90000601155601280546001600160a01b031916738a09928a0623155f0554f42427e27b8ee88411fb1790553480156200008c57600080fd5b5060405162003fcf38038062003fcf833981016040819052620000af91620004fa565b82828282828160009080519060200190620000cc929190620003a1565b508051620000e2906001906020840190620003a1565b505050620000ff620000f96200016260201b60201c565b6200017f565b600a80546001600160a01b0319166001600160a01b0383161790556200012583620001d1565b50505060405180606001604052806028815260200162003f586028913980516200015891601391602090910190620003a1565b50505050620005d6565b600062000179620002a160201b6200218e1760201c565b90505b90565b600980546001600160a01b038381166001600160a01b0319831681179093556040519116919082907f8be0079c531659141344cd1fd0a4f28419497f9722a3daafe3b4186f6b6457e090600090a35050565b600654610100900460ff1680620001eb575060065460ff16155b620002535760405162461bcd60e51b815260206004820152602e60248201527f496e697469616c697a61626c653a20636f6e747261637420697320616c72656160448201526d191e481a5b9a5d1a585b1a5e995960921b606482015260840160405180910390fd5b600654610100900460ff161580156200027f576006805460ff1961ff0019909116610100171660011790555b6200028a82620002ff565b80156200029d576006805461ff00191690555b5050565b600033301415620002fa57600080368080601f0160208091040260200160405190810160405280939291908181526020018383808284376000920191909152505050503601516001600160a01b031691506200017c9050565b503390565b6040518060800160405280604f815260200162003f80604f9139805160209182012082519282019290922060408051808201825260018152603160f81b90840152805180840194909452838101919091527fc89efdaa54c0f20c7adf612882df0950f5a951637e0307cdcb4c672f298b8bc660608401523060808401524660a0808501919091528151808503909101815260c090930190528151910120600755565b828054620003af9062000583565b90600052602060002090601f016020900481019282620003d357600085556200041e565b82601f10620003ee57805160ff19168380011785556200041e565b828001600101855582156200041e579182015b828111156200041e57825182559160200191906001019062000401565b506200042c92915062000430565b5090565b5b808211156200042c576000815560010162000431565b600082601f83011262000458578081fd5b81516001600160401b0380821115620004755762000475620005c0565b604051601f8301601f19908116603f01168101908282118183101715620004a057620004a0620005c0565b81604052838152602092508683858801011115620004bc578485fd5b8491505b83821015620004df5785820183015181830184015290820190620004c0565b83821115620004f057848385830101525b9695505050505050565b6000806000606084860312156200050f578283fd5b83516001600160401b038082111562000526578485fd5b620005348783880162000447565b945060208601519150808211156200054a578384fd5b50620005598682870162000447565b604086015190935090506001600160a01b038116811462000578578182fd5b809150509250925092565b6002810460018216806200059857607f821691505b60208210811415620005ba57634e487b7160e01b600052602260045260246000fd5b50919050565b634e487b7160e01b600052604160045260246000fd5b61397280620005e66000396000f3fe60806040526004361061034a5760003560e01c8063715018a6116101bb578063b88d4fde116100f7578063e601971611610095578063e985e9c51161006f578063e985e9c514610946578063efd0cbf914610966578063f2fde38b14610979578063f51f74a9146109995761034a565b8063e601971614610907578063e6a5931e1461091c578063e8a3d485146109315761034a565b8063c87b56dd116100d1578063c87b56dd14610891578063cd7c0326146108b1578063d26ea6c0146108d1578063d5abeb01146108f15761034a565b8063b88d4fde1461083b578063c1fad42c1461085b578063c26272a4146108715761034a565b80638b11c97b116101645780639a3cac6a1161013e5780639a3cac6a146107c1578063a22cb465146107e1578063b455c5fe14610801578063b6c65d38146108215761034a565b80638b11c97b1461076e5780638da5cb5b1461078e57806395d89b41146107ac5761034a565b80638451fb72116101955780638451fb72146106f65780638521b8e31461071557806386292bb41461074e5761034a565b8063715018a6146106a157806373c8c883146106b65780637cb64759146106d65761034a565b806326a74d8e1161028a5780633ccfd60b11610233578063621a1f741161020d578063621a1f741461061f5780636352211e1461064c578063674d13c81461066c57806370a08231146106815761034a565b80633ccfd60b146105bd57806342842e0e146105d2578063560f3de1146105f25761034a565b80632f58edfe116102645780632f58edfe1461057557806330176e131461058a5780633408e470146105aa5761034a565b806326a74d8e146105135780632d0335ab146105295780632eb4a7ab1461055f5761034a565b80630f7e5970116102f75780631efba6c2116102d15780631efba6c2146104a857806320379ee5146104be5780632131c68c146104d357806323b872dd146104f35761034a565b80630f7e597014610426578063138a4e011461046f57806318160ddd146104935761034a565b8063081812fc11610328578063081812fc146103bb578063095ea7b3146103f35780630c53c51c146104135761034a565b806301ffc9a71461034f578063061431a81461038457806306fdde0314610399575b600080fd5b34801561035b57600080fd5b5061036f61036a36600461341e565b6109c6565b60405190151581526020015b60405180910390f35b6103976103923660046134bd565b610a65565b005b3480156103a557600080fd5b506103ae610c6d565b60405161037b91906136df565b3480156103c757600080fd5b506103db6103d6366004613406565b610d00565b6040516001600160a01b03909116815260200161037b565b3480156103ff57600080fd5b5061039761040e366004613324565b610d95565b6103ae6104213660046132a9565b610ed9565b34801561043257600080fd5b506103ae6040518060400160405280600181526020017f310000000000000000000000000000000000000000000000000000000000000081525081565b34801561047b57600080fd5b50610485600d5481565b60405190815260200161037b565b34801561049f57600080fd5b506104856110df565b3480156104b457600080fd5b5061048560115481565b3480156104ca57600080fd5b50600754610485565b3480156104df57600080fd5b506012546103db906001600160a01b031681565b3480156104ff57600080fd5b5061039761050e3660046131ce565b6110fc565b34801561051f57600080fd5b50610485600f5481565b34801561053557600080fd5b5061048561054436600461317a565b6001600160a01b031660009081526008602052604090205490565b34801561056b57600080fd5b50610485600b5481565b34801561058157600080fd5b5061039761118a565b34801561059657600080fd5b506103976105a5366004613472565b61120e565b3480156105b657600080fd5b5046610485565b3480156105c957600080fd5b5061039761128c565b3480156105de57600080fd5b506103976105ed3660046131ce565b611317565b3480156105fe57600080fd5b5061048561060d366004613406565b60196020526000908152604090205481565b34801561062b57600080fd5b5061048561063a366004613406565b60176020526000908152604090205481565b34801561065857600080fd5b506103db610667366004613406565b611332565b34801561067857600080fd5b506104856113bd565b34801561068d57600080fd5b5061048561069c36600461317a565b6113c8565b3480156106ad57600080fd5b50610397611462565b3480156106c257600080fd5b506103976106d1366004613406565b6114d5565b3480156106e257600080fd5b506103976106f1366004613406565b611541565b34801561070257600080fd5b50600c5461036f90610100900460ff1681565b34801561072157600080fd5b5061036f61073036600461317a565b6001600160a01b03166000908152601a602052604090205460ff1690565b34801561075a57600080fd5b506103ae610769366004613406565b6115ad565b34801561077a57600080fd5b5061039761078936600461317a565b611647565b34801561079a57600080fd5b506009546001600160a01b03166103db565b3480156107b857600080fd5b506103ae6119b6565b3480156107cd57600080fd5b506103976107dc36600461317a565b6119c5565b3480156107ed57600080fd5b506103976107fc366004613278565b611a4e565b34801561080d57600080fd5b5061039761081c366004613406565b611b50565b34801561082d57600080fd5b50600c5461036f9060ff1681565b34801561084757600080fd5b5061039761085636600461320e565b611bbc565b34801561086757600080fd5b5061048560105481565b34801561087d57600080fd5b5061039761088c36600461334f565b611c4b565b34801561089d57600080fd5b506103ae6108ac366004613406565b611d97565b3480156108bd57600080fd5b50600a546103db906001600160a01b031681565b3480156108dd57600080fd5b506103976108ec36600461317a565b611dcb565b3480156108fd57600080fd5b50610485600e5481565b34801561091357600080fd5b50610397611e54565b34801561092857600080fd5b50610485611ecf565b34801561093d57600080fd5b506103ae611eda565b34801561095257600080fd5b5061036f610961366004613196565b611efa565b610397610974366004613406565b611fe5565b34801561098557600080fd5b5061039761099436600461317a565b6120a2565b3480156109a557600080fd5b506104856109b4366004613406565b60186020526000908152604090205481565b60006001600160e01b031982167f80ac58cd000000000000000000000000000000000000000000000000000000001480610a2957506001600160e01b031982167f5b5e139f00000000000000000000000000000000000000000000000000000000145b80610a5d57507f01ffc9a7000000000000000000000000000000000000000000000000000000006001600160e01b03198316145b90505b919050565b600c54610100900460ff16610ac15760405162461bcd60e51b815260206004820152601960248201527f57686974656c6973742073616c65206e6f74206163746976650000000000000060448201526064015b60405180910390fd5b336000908152601a602052604090205460ff1615610b215760405162461bcd60e51b815260206004820152601b60248201527f416464726573732068617320616c726561647920636c61696d656400000000006044820152606401610ab8565b6040516bffffffffffffffffffffffff193360601b166020820152600090603401604051602081830303815290604052805190602001209050610b9b83838080602002602001604051908101604052809392919081815260200183836020028082843760009201919091525050600b5491508490506121ea565b610be75760405162461bcd60e51b815260206004820152601360248201527f4d7573742062652077686974656c6973746564000000000000000000000000006044820152606401610ab8565b3484601154610bf69190613773565b1115610c445760405162461bcd60e51b815260206004820152601160248201527f4574682076616c20696e636f72726563740000000000000000000000000000006044820152606401610ab8565b336000908152601a60205260409020805460ff19166001179055610c67846122a7565b50505050565b606060008054610c7c906137d5565b80601f0160208091040260200160405190810160405280929190818152602001828054610ca8906137d5565b8015610cf55780601f10610cca57610100808354040283529160200191610cf5565b820191906000526020600020905b815481529060010190602001808311610cd857829003601f168201915b505050505090505b90565b6000818152600260205260408120546001600160a01b0316610d795760405162461bcd60e51b815260206004820152602c60248201527f4552433732313a20617070726f76656420717565727920666f72206e6f6e657860448201526b34b9ba32b73a103a37b5b2b760a11b6064820152608401610ab8565b506000908152600460205260409020546001600160a01b031690565b6000610da082611332565b9050806001600160a01b0316836001600160a01b03161415610e2a5760405162461bcd60e51b815260206004820152602160248201527f4552433732313a20617070726f76616c20746f2063757272656e74206f776e6560448201527f72000000000000000000000000000000000000000000000000000000000000006064820152608401610ab8565b806001600160a01b0316610e3c612482565b6001600160a01b03161480610e585750610e5881610961612482565b610eca5760405162461bcd60e51b815260206004820152603860248201527f4552433732313a20617070726f76652063616c6c6572206973206e6f74206f7760448201527f6e6572206e6f7220617070726f76656420666f7220616c6c00000000000000006064820152608401610ab8565b610ed4838361248c565b505050565b60408051606081810183526001600160a01b03881660008181526008602090815290859020548452830152918101869052610f1787828787876124fa565b610f895760405162461bcd60e51b815260206004820152602160248201527f5369676e657220616e64207369676e617475726520646f206e6f74206d61746360448201527f68000000000000000000000000000000000000000000000000000000000000006064820152608401610ab8565b6001600160a01b038716600090815260086020526040902054610fad906001612602565b6001600160a01b0388166000908152600860205260409081902091909155517f5845892132946850460bff5a0083f71031bc5bf9aadcd40f1de79423eac9b10b90610ffd90899033908a90613677565b60405180910390a1600080306001600160a01b0316888a60405160200161102592919061359a565b60408051601f198184030181529082905261103f9161357e565b6000604051808303816000865af19150503d806000811461107c576040519150601f19603f3d011682016040523d82523d6000602084013e611081565b606091505b5091509150816110d35760405162461bcd60e51b815260206004820152601c60248201527f46756e6374696f6e2063616c6c206e6f74207375636365737366756c000000006044820152606401610ab8565b98975050505050505050565b60006110ea60155490565b6014546110f79190613747565b905090565b61110d611107612482565b82612615565b61117f5760405162461bcd60e51b815260206004820152603160248201527f4552433732313a207472616e736665722063616c6c6572206973206e6f74206f60448201527f776e6572206e6f7220617070726f7665640000000000000000000000000000006064820152608401610ab8565b610ed48383836126e4565b611192612482565b6001600160a01b03166111ad6009546001600160a01b031690565b6001600160a01b0316146111f15760405162461bcd60e51b8152602060048201819052602482015260008051602061391d8339815191526044820152606401610ab8565b600c805461ff001981166101009182900460ff1615909102179055565b611216612482565b6001600160a01b03166112316009546001600160a01b031690565b6001600160a01b0316146112755760405162461bcd60e51b8152602060048201819052602482015260008051602061391d8339815191526044820152606401610ab8565b805161128890601390602084019061300f565b5050565b611294612482565b6001600160a01b03166112af6009546001600160a01b031690565b6001600160a01b0316146112f35760405162461bcd60e51b8152602060048201819052602482015260008051602061391d8339815191526044820152606401610ab8565b47806112fe57600080fd5b601254611314906001600160a01b0316826128b1565b50565b610ed483838360405180602001604052806000815250611bbc565b6000818152600260205260408120546001600160a01b031680610a5d5760405162461bcd60e51b815260206004820152602960248201527f4552433732313a206f776e657220717565727920666f72206e6f6e657869737460448201527f656e7420746f6b656e00000000000000000000000000000000000000000000006064820152608401610ab8565b60006110f760155490565b60006001600160a01b0382166114465760405162461bcd60e51b815260206004820152602a60248201527f4552433732313a2062616c616e636520717565727920666f7220746865207a6560448201527f726f2061646472657373000000000000000000000000000000000000000000006064820152608401610ab8565b506001600160a01b031660009081526003602052604090205490565b61146a612482565b6001600160a01b03166114856009546001600160a01b031690565b6001600160a01b0316146114c95760405162461bcd60e51b8152602060048201819052602482015260008051602061391d8339815191526044820152606401610ab8565b6114d36000612954565b565b6114dd612482565b6001600160a01b03166114f86009546001600160a01b031690565b6001600160a01b03161461153c5760405162461bcd60e51b8152602060048201819052602482015260008051602061391d8339815191526044820152606401610ab8565b601155565b611549612482565b6001600160a01b03166115646009546001600160a01b031690565b6001600160a01b0316146115a85760405162461bcd60e51b8152602060048201819052602482015260008051602061391d8339815191526044820152606401610ab8565b600b55565b601660205260009081526040902080546115c6906137d5565b80601f01602080910402602001604051908101604052809291908181526020018280546115f2906137d5565b801561163f5780601f106116145761010080835404028352916020019161163f565b820191906000526020600020905b81548152906001019060200180831161162257829003601f168201915b505050505081565b61164f612482565b6001600160a01b031661166a6009546001600160a01b031690565b6001600160a01b0316146116ae5760405162461bcd60e51b8152602060048201819052602482015260008051602061391d8339815191526044820152606401610ab8565b60196020527f7b9e21444ee73cfd3d25cf62e4ca68550a17aab016b226cdb932541985f880f27ffc941c3961fb6541da34150022cddf959da0fb2353866a6bfbd249c2da092914557feed1273ba39c57f40c5c07d87467b56eb64f5fa95b2c73a8bc922814e90b9f4f7f6f678ad17c55bce407239525f4bf7f1fe99197d3eb69bfdd9a0db84a9a11b581557f480b72ddca5cde3320258758f80f8dfd7ab944081952c2b74849b29627954eeb7f3e323a6e0522b016fa22111dfed945f89456f9f44f69eac00209d92607a5b940557fa68846590d66797ee4c3e68f41ffbda5544d52f40577eee13b73ce3bf58b6d477f77e53f5d8115e854915e54bd6f2fd46db8b881fe7106ff61c7d2a90a39a8983b557f5b24363b957b314383046e544950a72bca4fbb5e6198390692f20b601e1f35097fef6a8f673ca5476c495d0ab5aa04e3cd3d07628b2ff5d0e5202b94c5c6f13bdc557f2fe24637ce210f1e30576f07b5e496b4783f2f44ea2a1f106a210ea07a087ad87f4ca1d5f267eb2abf27b670f18ee76f6c205873a2168eb2e690c8c4babcc357dd557f53069495c19b713865d6e6050a5e49b7d68710a455d47bb59637188651e35b017f6c74329095f8e135df6d1792dfacc88ecaf0e5f08f42858511b9677eb1906296557fec614b914d6d9773bd358cdcebce20e2ada5a0d6ddf13e5c61b2de823ee3a0d77ffe8806ce96b92243e99134713c876855e855a43b2c2331cd83595a61c3ae44cc557fde971ca1432adc37756ad9a1e08aaef3efe1a996bfe86765b52795c10865c7717f65faccfad02dea2387b2aa1c46e59825c27e99d230e9517c682c6dc4f2be8ca555600a6000527f10b1d3dd751b818b2ed7b4d5af413466acf933645e9e94f28c81d2d90dfb64c47f36447205b2680c5018d2bd6a3010d0df8b1c1c2985c13708375e23dae5e31afe5560015b600a81116112885761196f601580546001019055565b6000818152601960209081526040808320546017835281842081905580845260189092529091208290556119a383836129a6565b50806119ae81613810565b915050611959565b606060018054610c7c906137d5565b6119cd612482565b6001600160a01b03166119e86009546001600160a01b031690565b6001600160a01b031614611a2c5760405162461bcd60e51b8152602060048201819052602482015260008051602061391d8339815191526044820152606401610ab8565b601280546001600160a01b0319166001600160a01b0392909216919091179055565b611a56612482565b6001600160a01b0316826001600160a01b03161415611ab75760405162461bcd60e51b815260206004820152601960248201527f4552433732313a20617070726f766520746f2063616c6c6572000000000000006044820152606401610ab8565b8060056000611ac4612482565b6001600160a01b03908116825260208083019390935260409182016000908120918716808252919093529120805460ff191692151592909217909155611b08612482565b6001600160a01b03167f17307eab39ab6107e8899845ad3d59bd9653f200f220920489ca2b5937696c3183604051611b44911515815260200190565b60405180910390a35050565b611b58612482565b6001600160a01b0316611b736009546001600160a01b031690565b6001600160a01b031614611bb75760405162461bcd60e51b8152602060048201819052602482015260008051602061391d8339815191526044820152606401610ab8565b600d55565b611bcd611bc7612482565b83612615565b611c3f5760405162461bcd60e51b815260206004820152603160248201527f4552433732313a207472616e736665722063616c6c6572206973206e6f74206f60448201527f776e6572206e6f7220617070726f7665640000000000000000000000000000006064820152608401610ab8565b610c67848484846129c0565b611c53612482565b6001600160a01b0316611c6e6009546001600160a01b031690565b6001600160a01b031614611cb25760405162461bcd60e51b8152602060048201819052602482015260008051602061391d8339815191526044820152606401610ab8565b8051825114611d035760405162461bcd60e51b815260206004820152601b60248201527f4172726179206c656e677468732061726520646966666572656e7400000000006044820152606401610ab8565b60005b8151811015610ed457818181518110611d2f57634e487b7160e01b600052603260045260246000fd5b602002602001015160166000858481518110611d5b57634e487b7160e01b600052603260045260246000fd5b602002602001015181526020019081526020016000209080519060200190611d8492919061300f565b5080611d8f81613810565b915050611d06565b60606013611da483612a3e565b604051602001611db59291906135d1565b6040516020818303038152906040529050919050565b611dd3612482565b6001600160a01b0316611dee6009546001600160a01b031690565b6001600160a01b031614611e325760405162461bcd60e51b8152602060048201819052602482015260008051602061391d8339815191526044820152606401610ab8565b600a80546001600160a01b0319166001600160a01b0392909216919091179055565b611e5c612482565b6001600160a01b0316611e776009546001600160a01b031690565b6001600160a01b031614611ebb5760405162461bcd60e51b8152602060048201819052602482015260008051602061391d8339815191526044820152606401610ab8565b600c805460ff19811660ff90911615179055565b60006110f760145490565b60606040518060600160405280602d81526020016138f0602d9139905090565b600a546040517fc45527910000000000000000000000000000000000000000000000000000000081526001600160a01b03848116600483015260009281169190841690829063c45527919060240160206040518083038186803b158015611f6057600080fd5b505afa158015611f74573d6000803e3d6000fd5b505050506040513d601f19601f82011682018060405250810190611f989190613456565b6001600160a01b03161415611fb1576001915050611fdf565b6001600160a01b0380851660009081526005602090815260408083209387168352929052205460ff165b9150505b92915050565b600c5460ff166120375760405162461bcd60e51b815260206004820152600f60248201527f53616c65206e6f742061637469766500000000000000000000000000000000006044820152606401610ab8565b6000816011546120479190613773565b9050348111156120995760405162461bcd60e51b815260206004820152600e60248201527f4e6f7420656e6f756768204554480000000000000000000000000000000000006044820152606401610ab8565b611288826122a7565b6120aa612482565b6001600160a01b03166120c56009546001600160a01b031690565b6001600160a01b0316146121095760405162461bcd60e51b8152602060048201819052602482015260008051602061391d8339815191526044820152606401610ab8565b6001600160a01b0381166121855760405162461bcd60e51b815260206004820152602660248201527f4f776e61626c653a206e6577206f776e657220697320746865207a65726f206160448201527f64647265737300000000000000000000000000000000000000000000000000006064820152608401610ab8565b61131481612954565b6000333014156121e557600080368080601f0160208091040260200160405190810160405280939291908181526020018383808284376000920191909152505050503601516001600160a01b03169150610cfd9050565b503390565b600081815b855181101561229c57600086828151811061221a57634e487b7160e01b600052603260045260246000fd5b6020026020010151905080831161225c576040805160208101859052908101829052606001604051602081830303815290604052805190602001209250612289565b60408051602081018390529081018490526060016040516020818303038152906040528051906020012092505b508061229481613810565b9150506121ef565b509092149392505050565b600d548111156122f95760405162461bcd60e51b815260206004820152601160248201527f4d6178206d696e742065786365656465640000000000000000000000000000006044820152606401610ab8565b600f548161230660145490565b6123109190613747565b111561235e5760405162461bcd60e51b815260206004820152601260248201527f4d617820737570706c79207265616368656400000000000000000000000000006044820152606401610ab8565b60005b8181101561128857612377601480546001019055565b6000306001600160a01b03166318160ddd6040518163ffffffff1660e01b815260040160206040518083038186803b1580156123b257600080fd5b505afa1580156123c6573d6000803e3d6000fd5b505050506040513d601f19601f820116820180604052508101906123ea91906134a5565b90506123f581612b95565b61246f33306001600160a01b03166318160ddd6040518163ffffffff1660e01b815260040160206040518083038186803b15801561243257600080fd5b505afa158015612446573d6000803e3d6000fd5b505050506040513d601f19601f8201168201806040525081019061246a91906134a5565b6129a6565b508061247a81613810565b915050612361565b60006110f761218e565b600081815260046020526040902080546001600160a01b0319166001600160a01b03841690811790915581906124c182611332565b6001600160a01b03167f8c5be1e5ebec7d5bd14f71427d1e84f3dd0314c0f7b2291e5b200ac8c7c3b92560405160405180910390a45050565b60006001600160a01b0386166125785760405162461bcd60e51b815260206004820152602560248201527f4e61746976654d6574615472616e73616374696f6e3a20494e56414c49445f5360448201527f49474e45520000000000000000000000000000000000000000000000000000006064820152608401610ab8565b600161258b61258687612bc3565b612c40565b6040805160008152602081018083529290925260ff851690820152606081018690526080810185905260a0016020604051602081039080840390855afa1580156125d9573d6000803e3d6000fd5b505050602060405103516001600160a01b0316866001600160a01b031614905095945050505050565b600061260e8284613747565b9392505050565b6000818152600260205260408120546001600160a01b031661268e5760405162461bcd60e51b815260206004820152602c60248201527f4552433732313a206f70657261746f7220717565727920666f72206e6f6e657860448201526b34b9ba32b73a103a37b5b2b760a11b6064820152608401610ab8565b600061269983611332565b9050806001600160a01b0316846001600160a01b031614806126d45750836001600160a01b03166126c984610d00565b6001600160a01b0316145b80611fdb5750611fdb8185611efa565b826001600160a01b03166126f782611332565b6001600160a01b0316146127735760405162461bcd60e51b815260206004820152602960248201527f4552433732313a207472616e73666572206f6620746f6b656e2074686174206960448201527f73206e6f74206f776e00000000000000000000000000000000000000000000006064820152608401610ab8565b6001600160a01b0382166127ee5760405162461bcd60e51b8152602060048201526024808201527f4552433732313a207472616e7366657220746f20746865207a65726f2061646460448201527f72657373000000000000000000000000000000000000000000000000000000006064820152608401610ab8565b6127f960008261248c565b6001600160a01b0383166000908152600360205260408120805460019290612822908490613792565b90915550506001600160a01b0382166000908152600360205260408120805460019290612850908490613747565b909155505060008181526002602052604080822080546001600160a01b0319166001600160a01b0386811691821790925591518493918716917fddf252ad1be2c89b69c2b068fc378daa952ba7f163c4a11628f55a4df523b3ef91a4505050565b6000826001600160a01b03168260405160006040518083038185875af1925050503d80600081146128fe576040519150601f19603f3d011682016040523d82523d6000602084013e612903565b606091505b5050905080610ed45760405162461bcd60e51b815260206004820152600960248201527f5478206661696c656400000000000000000000000000000000000000000000006044820152606401610ab8565b600980546001600160a01b038381166001600160a01b0319831681179093556040519116919082907f8be0079c531659141344cd1fd0a4f28419497f9722a3daafe3b4186f6b6457e090600090a35050565b611288828260405180602001604052806000815250612c8b565b6129cb8484846126e4565b6129d784848484612d09565b610c675760405162461bcd60e51b815260206004820152603260248201527f4552433732313a207472616e7366657220746f206e6f6e20455243373231526560448201527131b2b4bb32b91034b6b83632b6b2b73a32b960711b6064820152608401610ab8565b606081612a7f575060408051808201909152600181527f30000000000000000000000000000000000000000000000000000000000000006020820152610a60565b8160005b8115612aa95780612a9381613810565b9150612aa29050600a8361375f565b9150612a83565b60008167ffffffffffffffff811115612ad257634e487b7160e01b600052604160045260246000fd5b6040519080825280601f01601f191660200182016040528015612afc576020820181803683370190505b5090505b8415612b8d57612b11600183613792565b9150612b1e600a8661382b565b612b29906030613747565b60f81b818381518110612b4c57634e487b7160e01b600052603260045260246000fd5b60200101907effffffffffffffffffffffffffffffffffffffffffffffffffffffffffffff1916908160001a905350612b86600a8661375f565b9450612b00565b949350505050565b6000612ba082612e81565b600083815260176020908152604080832084905592825260189052209190915550565b60006040518060800160405280604381526020016138ad6043913980516020918201208351848301516040808701518051908601209051612c23950193845260208401929092526001600160a01b03166040830152606082015260800190565b604051602081830303815290604052805190602001209050919050565b6000612c4b60075490565b6040517f19010000000000000000000000000000000000000000000000000000000000006020820152602281019190915260428101839052606201612c23565b612c958383612ecd565b612ca26000848484612d09565b610ed45760405162461bcd60e51b815260206004820152603260248201527f4552433732313a207472616e7366657220746f206e6f6e20455243373231526560448201527131b2b4bb32b91034b6b83632b6b2b73a32b960711b6064820152608401610ab8565b60006001600160a01b0384163b15612e7657836001600160a01b031663150b7a02612d32612482565b8786866040518563ffffffff1660e01b8152600401612d5494939291906136a3565b602060405180830381600087803b158015612d6e57600080fd5b505af1925050508015612d9e575060408051601f3d908101601f19168201909252612d9b9181019061343a565b60015b612e43573d808015612dcc576040519150601f19603f3d011682016040523d82523d6000602084013e612dd1565b606091505b508051612e3b5760405162461bcd60e51b815260206004820152603260248201527f4552433732313a207472616e7366657220746f206e6f6e20455243373231526560448201527131b2b4bb32b91034b6b83632b6b2b73a32b960711b6064820152608401610ab8565b805181602001fd5b6001600160e01b0319167f150b7a0200000000000000000000000000000000000000000000000000000000149050612b8d565b506001949350505050565b600043612e8f600182613792565b403384604051602001612c239493929190938452602084019290925260601b6bffffffffffffffffffffffff19166040830152605482015260740190565b6001600160a01b038216612f235760405162461bcd60e51b815260206004820181905260248201527f4552433732313a206d696e7420746f20746865207a65726f20616464726573736044820152606401610ab8565b6000818152600260205260409020546001600160a01b031615612f885760405162461bcd60e51b815260206004820152601c60248201527f4552433732313a20746f6b656e20616c7265616479206d696e746564000000006044820152606401610ab8565b6001600160a01b0382166000908152600360205260408120805460019290612fb1908490613747565b909155505060008181526002602052604080822080546001600160a01b0319166001600160a01b03861690811790915590518392907fddf252ad1be2c89b69c2b068fc378daa952ba7f163c4a11628f55a4df523b3ef908290a45050565b82805461301b906137d5565b90600052602060002090601f01602090048101928261303d5760008555613083565b82601f1061305657805160ff1916838001178555613083565b82800160010185558215613083579182015b82811115613083578251825591602001919060010190613068565b5061308f929150613093565b5090565b5b8082111561308f5760008155600101613094565b600082601f8301126130b8578081fd5b813560206130cd6130c883613723565b6136f2565b82815281810190858301855b85811015613102576130f0898684358b010161310f565b845292840192908401906001016130d9565b5090979650505050505050565b600082601f83011261311f578081fd5b813567ffffffffffffffff8111156131395761313961386b565b61314c601f8201601f19166020016136f2565b818152846020838601011115613160578283fd5b816020850160208301379081016020019190915292915050565b60006020828403121561318b578081fd5b813561260e81613881565b600080604083850312156131a8578081fd5b82356131b381613881565b915060208301356131c381613881565b809150509250929050565b6000806000606084860312156131e2578081fd5b83356131ed81613881565b925060208401356131fd81613881565b929592945050506040919091013590565b60008060008060808587031215613223578081fd5b843561322e81613881565b9350602085013561323e81613881565b925060408501359150606085013567ffffffffffffffff811115613260578182fd5b61326c8782880161310f565b91505092959194509250565b6000806040838503121561328a578182fd5b823561329581613881565b9150602083013580151581146131c3578182fd5b600080600080600060a086880312156132c0578081fd5b85356132cb81613881565b9450602086013567ffffffffffffffff8111156132e6578182fd5b6132f28882890161310f565b9450506040860135925060608601359150608086013560ff81168114613316578182fd5b809150509295509295909350565b60008060408385031215613336578182fd5b823561334181613881565b946020939093013593505050565b60008060408385031215613361578182fd5b823567ffffffffffffffff80821115613378578384fd5b818501915085601f83011261338b578384fd5b8135602061339b6130c883613723565b82815281810190858301838502870184018b10156133b7578889fd5b8896505b848710156133d95780358352600196909601959183019183016133bb565b50965050860135925050808211156133ef578283fd5b506133fc858286016130a8565b9150509250929050565b600060208284031215613417578081fd5b5035919050565b60006020828403121561342f578081fd5b813561260e81613896565b60006020828403121561344b578081fd5b815161260e81613896565b600060208284031215613467578081fd5b815161260e81613881565b600060208284031215613483578081fd5b813567ffffffffffffffff811115613499578182fd5b611fdb8482850161310f565b6000602082840312156134b6578081fd5b5051919050565b6000806000604084860312156134d1578081fd5b83359250602084013567ffffffffffffffff808211156134ef578283fd5b818601915086601f830112613502578283fd5b813581811115613510578384fd5b8760208083028501011115613523578384fd5b6020830194508093505050509250925092565b6000815180845261354e8160208601602086016137a9565b601f01601f19169290920160200192915050565b600081516135748185602086016137a9565b9290920192915050565b600082516135908184602087016137a9565b9190910192915050565b600083516135ac8184602088016137a9565b60609390931b6bffffffffffffffffffffffff19169190920190815260140192915050565b82546000908190600281046001808316806135ed57607f831692505b602080841082141561360d57634e487b7160e01b87526022600452602487fd5b81801561362157600181146136325761365e565b60ff1986168952848901965061365e565b60008b815260209020885b868110156136565781548b82015290850190830161363d565b505084890196505b50505050505061366e8185613562565b95945050505050565b60006001600160a01b0380861683528085166020840152506060604083015261366e6060830184613536565b60006001600160a01b038087168352808616602084015250836040830152608060608301526136d56080830184613536565b9695505050505050565b60006020825261260e6020830184613536565b604051601f8201601f1916810167ffffffffffffffff8111828210171561371b5761371b61386b565b604052919050565b600067ffffffffffffffff82111561373d5761373d61386b565b5060209081020190565b6000821982111561375a5761375a61383f565b500190565b60008261376e5761376e613855565b500490565b600081600019048311821515161561378d5761378d61383f565b500290565b6000828210156137a4576137a461383f565b500390565b60005b838110156137c45781810151838201526020016137ac565b83811115610c675750506000910152565b6002810460018216806137e957607f821691505b6020821081141561380a57634e487b7160e01b600052602260045260246000fd5b50919050565b60006000198214156138245761382461383f565b5060010190565b60008261383a5761383a613855565b500690565b634e487b7160e01b600052601160045260246000fd5b634e487b7160e01b600052601260045260246000fd5b634e487b7160e01b600052604160045260246000fd5b6001600160a01b038116811461131457600080fd5b6001600160e01b03198116811461131457600080fdfe4d6574615472616e73616374696f6e2875696e74323536206e6f6e63652c616464726573732066726f6d2c62797465732066756e6374696f6e5369676e61747572652968747470733a2f2f746f79732e3078746563686e6f2e6172742f6170692f746f79732f636f6e74726163742f314f776e61626c653a2063616c6c6572206973206e6f7420746865206f776e6572a2646970667358221220b2bae043ff2dda252da3b4ad0423e4a9988456437a435573bb17f3bde4bfe10c64736f6c6343000802003368747470733a2f2f746f79732e3078746563686e6f2e6172742f6170692f746f79732f6d6574612f454950373132446f6d61696e28737472696e67206e616d652c737472696e672076657273696f6e2c6164647265737320766572696679696e67436f6e74726163742c627974657333322073616c7429",
  "linkReferences": {},
  "deployedLinkReferences": {}
}