{
  "_format": "hh-sol-artifact-1",
  "contractName": "ProxyRegistry",
  "sourceName": "contracts/ERC721Tradable.sol",
  "abi": [
    {
      "inputs": [
        {
          "internalType": "address",
          "name": "",
          "type": "address"
        }
      ],
      "name": "proxies",
      "outputs": [
        {
          "internalType": "contract OwnableDelegateProxy",
          "name": "",
          "type": "address"
        }
      ],
      "stateMutability": "view",
      "type": "function"
    }
  ],
  "bytecode": "0x608060405234801561001057600080fd5b5060f88061001f6000396000f3fe6080604052348015600f57600080fd5b506004361060285760003560e01c8063c455279114602d575b600080fd5b606060383660046089565b60006020819052908152604090205473ffffffffffffffffffffffffffffffffffffffff1681565b60405173ffffffffffffffffffffffffffffffffffffffff909116815260200160405180910390f35b6000602082840312156099578081fd5b813573ffffffffffffffffffffffffffffffffffffffff8116811460bb578182fd5b939250505056fea2646970667358221220f6b6d9ceead0692c1ae011c1acb253ddaeaec8f2b4a9b5b92a64ff52d52c7d9864736f6c63430008020033",
  "linkReferences": {},
  "deployedLinkReferences": {}
}