{
  "contracts/Toy.sol": {
    "Toy": {
      "abi": [
        {
          "inputs": [
            {
              "internalType": "string",
              "name": "_name",
              "type": "string"
            },
            {
              "internalType": "string",
              "name": "_symbol",
              "type": "string"
            },
            {
              "internalType": "address",
              "name": "_proxyRegistryAddress",
              "type": "address"
            }
          ],
          "stateMutability": "nonpayable",
          "type": "constructor"
        },
        {
          "anonymous": false,
          "inputs": [
            {
              "indexed": true,
              "internalType": "address",
              "name": "owner",
              "type": "address"
            },
            {
              "indexed": true,
              "internalType": "address",
              "name": "approved",
              "type": "address"
            },
            {
              "indexed": true,
              "internalType": "uint256",
              "name": "tokenId",
              "type": "uint256"
            }
          ],
          "name": "Approval",
          "type": "event"
        },
        {
          "anonymous": false,
          "inputs": [
            {
              "indexed": true,
              "internalType": "address",
              "name": "owner",
              "type": "address"
            },
            {
              "indexed": true,
              "internalType": "address",
              "name": "operator",
              "type": "address"
            },
            {
              "indexed": false,
              "internalType": "bool",
              "name": "approved",
              "type": "bool"
            }
          ],
          "name": "ApprovalForAll",
          "type": "event"
        },
        {
          "anonymous": false,
          "inputs": [
            {
              "indexed": false,
              "internalType": "address",
              "name": "userAddress",
              "type": "address"
            },
            {
              "indexed": false,
              "internalType": "address payable",
              "name": "relayerAddress",
              "type": "address"
            },
            {
              "indexed": false,
              "internalType": "bytes",
              "name": "functionSignature",
              "type": "bytes"
            }
          ],
          "name": "MetaTransactionExecuted",
          "type": "event"
        },
        {
          "anonymous": false,
          "inputs": [
            {
              "indexed": true,
              "internalType": "address",
              "name": "previousOwner",
              "type": "address"
            },
            {
              "indexed": true,
              "internalType": "address",
              "name": "newOwner",
              "type": "address"
            }
          ],
          "name": "OwnershipTransferred",
          "type": "event"
        },
        {
          "anonymous": false,
          "inputs": [
            {
              "indexed": true,
              "internalType": "address",
              "name": "from",
              "type": "address"
            },
            {
              "indexed": true,
              "internalType": "address",
              "name": "to",
              "type": "address"
            },
            {
              "indexed": true,
              "internalType": "uint256",
              "name": "tokenId",
              "type": "uint256"
            }
          ],
          "name": "Transfer",
          "type": "event"
        },
        {
          "inputs": [],
          "name": "ERC712_VERSION",
          "outputs": [
            {
              "internalType": "string",
              "name": "",
              "type": "string"
            }
          ],
          "stateMutability": "view",
          "type": "function"
        },
        {
          "inputs": [
            {
              "internalType": "address",
              "name": "to",
              "type": "address"
            },
            {
              "internalType": "uint256",
              "name": "tokenId",
              "type": "uint256"
            }
          ],
          "name": "approve",
          "outputs": [],
          "stateMutability": "nonpayable",
          "type": "function"
        },
        {
          "inputs": [
            {
              "internalType": "address",
              "name": "owner",
              "type": "address"
            }
          ],
          "name": "balanceOf",
          "outputs": [
            {
              "internalType": "uint256",
              "name": "",
              "type": "uint256"
            }
          ],
          "stateMutability": "view",
          "type": "function"
        },
        {
          "inputs": [],
          "name": "contractURI",
          "outputs": [
            {
              "internalType": "string",
              "name": "",
              "type": "string"
            }
          ],
          "stateMutability": "pure",
          "type": "function"
        },
        {
          "inputs": [],
          "name": "daoAddress",
          "outputs": [
            {
              "internalType": "address",
              "name": "",
              "type": "address"
            }
          ],
          "stateMutability": "view",
          "type": "function"
        },
        {
          "inputs": [
            {
              "internalType": "address",
              "name": "userAddress",
              "type": "address"
            },
            {
              "internalType": "bytes",
              "name": "functionSignature",
              "type": "bytes"
            },
            {
              "internalType": "bytes32",
              "name": "sigR",
              "type": "bytes32"
            },
            {
              "internalType": "bytes32",
              "name": "sigS",
              "type": "bytes32"
            },
            {
              "internalType": "uint8",
              "name": "sigV",
              "type": "uint8"
            }
          ],
          "name": "executeMetaTransaction",
          "outputs": [
            {
              "internalType": "bytes",
              "name": "",
              "type": "bytes"
            }
          ],
          "stateMutability": "payable",
          "type": "function"
        },
        {
          "inputs": [],
          "name": "fixedPrice",
          "outputs": [
            {
              "internalType": "uint256",
              "name": "",
              "type": "uint256"
            }
          ],
          "stateMutability": "view",
          "type": "function"
        },
        {
          "inputs": [],
          "name": "flipSalePublicStatus",
          "outputs": [],
          "stateMutability": "nonpayable",
          "type": "function"
        },
        {
          "inputs": [
            {
              "internalType": "uint256",
              "name": "",
              "type": "uint256"
            }
          ],
          "name": "generativeArtScript",
          "outputs": [
            {
              "internalType": "string",
              "name": "",
              "type": "string"
            }
          ],
          "stateMutability": "view",
          "type": "function"
        },
        {
          "inputs": [
            {
              "internalType": "uint256",
              "name": "tokenId",
              "type": "uint256"
            }
          ],
          "name": "getApproved",
          "outputs": [
            {
              "internalType": "address",
              "name": "",
              "type": "address"
            }
          ],
          "stateMutability": "view",
          "type": "function"
        },
        {
          "inputs": [],
          "name": "getChainId",
          "outputs": [
            {
              "internalType": "uint256",
              "name": "",
              "type": "uint256"
            }
          ],
          "stateMutability": "view",
          "type": "function"
        },
        {
          "inputs": [],
          "name": "getDomainSeperator",
          "outputs": [
            {
              "internalType": "bytes32",
              "name": "",
              "type": "bytes32"
            }
          ],
          "stateMutability": "view",
          "type": "function"
        },
        {
          "inputs": [
            {
              "internalType": "address",
              "name": "user",
              "type": "address"
            }
          ],
          "name": "getNonce",
          "outputs": [
            {
              "internalType": "uint256",
              "name": "nonce",
              "type": "uint256"
            }
          ],
          "stateMutability": "view",
          "type": "function"
        },
        {
          "inputs": [
            {
              "internalType": "bytes32",
              "name": "",
              "type": "bytes32"
            }
          ],
          "name": "hashToTokenId",
          "outputs": [
            {
              "internalType": "uint256",
              "name": "",
              "type": "uint256"
            }
          ],
          "stateMutability": "view",
          "type": "function"
        },
        {
          "inputs": [
            {
              "internalType": "address",
              "name": "owner",
              "type": "address"
            },
            {
              "internalType": "address",
              "name": "operator",
              "type": "address"
            }
          ],
          "name": "isApprovedForAll",
          "outputs": [
            {
              "internalType": "bool",
              "name": "",
              "type": "bool"
            }
          ],
          "stateMutability": "view",
          "type": "function"
        },
        {
          "inputs": [],
          "name": "maxByMint",
          "outputs": [
            {
              "internalType": "uint256",
              "name": "",
              "type": "uint256"
            }
          ],
          "stateMutability": "view",
          "type": "function"
        },
        {
          "inputs": [],
          "name": "maxPublicSupply",
          "outputs": [
            {
              "internalType": "uint256",
              "name": "",
              "type": "uint256"
            }
          ],
          "stateMutability": "view",
          "type": "function"
        },
        {
          "inputs": [],
          "name": "maxReservedSupply",
          "outputs": [
            {
              "internalType": "uint256",
              "name": "",
              "type": "uint256"
            }
          ],
          "stateMutability": "view",
          "type": "function"
        },
        {
          "inputs": [],
          "name": "maxSupply",
          "outputs": [
            {
              "internalType": "uint256",
              "name": "",
              "type": "uint256"
            }
          ],
          "stateMutability": "view",
          "type": "function"
        },
        {
          "inputs": [
            {
              "internalType": "uint256",
              "name": "numberOfTokens",
              "type": "uint256"
            }
          ],
          "name": "mintPublic",
          "outputs": [],
          "stateMutability": "payable",
          "type": "function"
        },
        {
          "inputs": [
            {
              "internalType": "address",
              "name": "_to",
              "type": "address"
            },
            {
              "internalType": "uint256",
              "name": "numberOfTokens",
              "type": "uint256"
            }
          ],
          "name": "mintReserved",
          "outputs": [],
          "stateMutability": "nonpayable",
          "type": "function"
        },
        {
          "inputs": [],
          "name": "name",
          "outputs": [
            {
              "internalType": "string",
              "name": "",
              "type": "string"
            }
          ],
          "stateMutability": "view",
          "type": "function"
        },
        {
          "inputs": [],
          "name": "owner",
          "outputs": [
            {
              "internalType": "address",
              "name": "",
              "type": "address"
            }
          ],
          "stateMutability": "view",
          "type": "function"
        },
        {
          "inputs": [
            {
              "internalType": "uint256",
              "name": "tokenId",
              "type": "uint256"
            }
          ],
          "name": "ownerOf",
          "outputs": [
            {
              "internalType": "address",
              "name": "",
              "type": "address"
            }
          ],
          "stateMutability": "view",
          "type": "function"
        },
        {
          "inputs": [],
          "name": "proxyRegistryAddress",
          "outputs": [
            {
              "internalType": "address",
              "name": "",
              "type": "address"
            }
          ],
          "stateMutability": "view",
          "type": "function"
        },
        {
          "inputs": [],
          "name": "renounceOwnership",
          "outputs": [],
          "stateMutability": "nonpayable",
          "type": "function"
        },
        {
          "inputs": [
            {
              "internalType": "address",
              "name": "from",
              "type": "address"
            },
            {
              "internalType": "address",
              "name": "to",
              "type": "address"
            },
            {
              "internalType": "uint256",
              "name": "tokenId",
              "type": "uint256"
            }
          ],
          "name": "safeTransferFrom",
          "outputs": [],
          "stateMutability": "nonpayable",
          "type": "function"
        },
        {
          "inputs": [
            {
              "internalType": "address",
              "name": "from",
              "type": "address"
            },
            {
              "internalType": "address",
              "name": "to",
              "type": "address"
            },
            {
              "internalType": "uint256",
              "name": "tokenId",
              "type": "uint256"
            },
            {
              "internalType": "bytes",
              "name": "_data",
              "type": "bytes"
            }
          ],
          "name": "safeTransferFrom",
          "outputs": [],
          "stateMutability": "nonpayable",
          "type": "function"
        },
        {
          "inputs": [],
          "name": "salePublicIsActive",
          "outputs": [
            {
              "internalType": "bool",
              "name": "",
              "type": "bool"
            }
          ],
          "stateMutability": "view",
          "type": "function"
        },
        {
          "inputs": [
            {
              "internalType": "address",
              "name": "operator",
              "type": "address"
            },
            {
              "internalType": "bool",
              "name": "approved",
              "type": "bool"
            }
          ],
          "name": "setApprovalForAll",
          "outputs": [],
          "stateMutability": "nonpayable",
          "type": "function"
        },
        {
          "inputs": [
            {
              "internalType": "string",
              "name": "_baseTokenURI",
              "type": "string"
            }
          ],
          "name": "setBaseTokenURI",
          "outputs": [],
          "stateMutability": "nonpayable",
          "type": "function"
        },
        {
          "inputs": [
            {
              "internalType": "address",
              "name": "_daoAddress",
              "type": "address"
            }
          ],
          "name": "setDaoAddress",
          "outputs": [],
          "stateMutability": "nonpayable",
          "type": "function"
        },
        {
          "inputs": [
            {
              "internalType": "uint256",
              "name": "_fixedPrice",
              "type": "uint256"
            }
          ],
          "name": "setFixedPrice",
          "outputs": [],
          "stateMutability": "nonpayable",
          "type": "function"
        },
        {
          "inputs": [
            {
              "internalType": "uint256",
              "name": "_maxByMint",
              "type": "uint256"
            }
          ],
          "name": "setMaxByMint",
          "outputs": [],
          "stateMutability": "nonpayable",
          "type": "function"
        },
        {
          "inputs": [
            {
              "internalType": "address",
              "name": "_proxyRegistryAddress",
              "type": "address"
            }
          ],
          "name": "setProxyRegistryAddress",
          "outputs": [],
          "stateMutability": "nonpayable",
          "type": "function"
        },
        {
          "inputs": [
            {
              "internalType": "uint256",
              "name": "_maxSupply",
              "type": "uint256"
            },
            {
              "internalType": "uint256",
              "name": "_maxReservedSupply",
              "type": "uint256"
            }
          ],
          "name": "setSupply",
          "outputs": [],
          "stateMutability": "nonpayable",
          "type": "function"
        },
        {
          "inputs": [
            {
              "internalType": "bytes4",
              "name": "interfaceId",
              "type": "bytes4"
            }
          ],
          "name": "supportsInterface",
          "outputs": [
            {
              "internalType": "bool",
              "name": "",
              "type": "bool"
            }
          ],
          "stateMutability": "view",
          "type": "function"
        },
        {
          "inputs": [],
          "name": "symbol",
          "outputs": [
            {
              "internalType": "string",
              "name": "",
              "type": "string"
            }
          ],
          "stateMutability": "view",
          "type": "function"
        },
        {
          "inputs": [
            {
              "internalType": "uint256",
              "name": "",
              "type": "uint256"
            }
          ],
          "name": "tokenIdToHash",
          "outputs": [
            {
              "internalType": "bytes32",
              "name": "",
              "type": "bytes32"
            }
          ],
          "stateMutability": "view",
          "type": "function"
        },
        {
          "inputs": [
            {
              "internalType": "uint256",
              "name": "_tokenId",
              "type": "uint256"
            }
          ],
          "name": "tokenURI",
          "outputs": [
            {
              "internalType": "string",
              "name": "",
              "type": "string"
            }
          ],
          "stateMutability": "view",
          "type": "function"
        },
        {
          "inputs": [],
          "name": "totalPublicSupply",
          "outputs": [
            {
              "internalType": "uint256",
              "name": "",
              "type": "uint256"
            }
          ],
          "stateMutability": "view",
          "type": "function"
        },
        {
          "inputs": [],
          "name": "totalReservedSupply",
          "outputs": [
            {
              "internalType": "uint256",
              "name": "",
              "type": "uint256"
            }
          ],
          "stateMutability": "view",
          "type": "function"
        },
        {
          "inputs": [],
          "name": "totalSupply",
          "outputs": [
            {
              "internalType": "uint256",
              "name": "",
              "type": "uint256"
            }
          ],
          "stateMutability": "view",
          "type": "function"
        },
        {
          "inputs": [
            {
              "internalType": "address",
              "name": "from",
              "type": "address"
            },
            {
              "internalType": "address",
              "name": "to",
              "type": "address"
            },
            {
              "internalType": "uint256",
              "name": "tokenId",
              "type": "uint256"
            }
          ],
          "name": "transferFrom",
          "outputs": [],
          "stateMutability": "nonpayable",
          "type": "function"
        },
        {
          "inputs": [
            {
              "internalType": "address",
              "name": "newOwner",
              "type": "address"
            }
          ],
          "name": "transferOwnership",
          "outputs": [],
          "stateMutability": "nonpayable",
          "type": "function"
        },
        {
          "inputs": [
            {
              "internalType": "uint256[]",
              "name": "_indexes",
              "type": "uint256[]"
            },
            {
              "internalType": "string[]",
              "name": "_scripts",
              "type": "string[]"
            }
          ],
          "name": "updateScript",
          "outputs": [],
          "stateMutability": "nonpayable",
          "type": "function"
        },
        {
          "inputs": [],
          "name": "withdraw",
          "outputs": [],
          "stateMutability": "nonpayable",
          "type": "function"
        }
      ],
      "evm": {
        "bytecode": {
          "linkReferences": {},
          "object": "60806040523480156200001157600080fd5b50604051620039ba380380620039ba8339810160408190526200003491620004d2565b828282828281600090805190602001906200005192919062000379565b5080516200006790600190602084019062000379565b505050620000846200007e6200013a60201b60201c565b62000157565b600a80546001600160a01b0319166001600160a01b038316179055620000aa83620001a9565b50506002600b5550610240600c819055600a600e819055620000cc916200055b565b600d5567016345785d8a0000600f55601080546001600160a01b031916738a09928a0623155f0554f42427e27b8ee88411fb179055604080516060810190915260288082526200394360208301398051620001309160119160209091019062000379565b50505050620005d2565b6000620001516200027960201b62001ccf1760201c565b90505b90565b600980546001600160a01b038381166001600160a01b0319831681179093556040519116919082907f8be0079c531659141344cd1fd0a4f28419497f9722a3daafe3b4186f6b6457e090600090a35050565b600654610100900460ff1680620001c3575060065460ff16155b6200022b5760405162461bcd60e51b815260206004820152602e60248201527f496e697469616c697a61626c653a20636f6e747261637420697320616c72656160448201526d191e481a5b9a5d1a585b1a5e995960921b606482015260840160405180910390fd5b600654610100900460ff1615801562000257576006805460ff1961ff0019909116610100171660011790555b6200026282620002d7565b801562000275576006805461ff00191690555b5050565b600033301415620002d257600080368080601f0160208091040260200160405190810160405280939291908181526020018383808284376000920191909152505050503601516001600160a01b03169150620001549050565b503390565b6040518060800160405280604f81526020016200396b604f9139805160209182012082519282019290922060408051808201825260018152603160f81b90840152805180840194909452838101919091527fc89efdaa54c0f20c7adf612882df0950f5a951637e0307cdcb4c672f298b8bc660608401523060808401524660a0808501919091528151808503909101815260c090930190528151910120600755565b82805462000387906200057f565b90600052602060002090601f016020900481019282620003ab5760008555620003f6565b82601f10620003c657805160ff1916838001178555620003f6565b82800160010185558215620003f6579182015b82811115620003f6578251825591602001919060010190620003d9565b506200040492915062000408565b5090565b5b8082111562000404576000815560010162000409565b600082601f83011262000430578081fd5b81516001600160401b03808211156200044d576200044d620005bc565b604051601f8301601f19908116603f01168101908282118183101715620004785762000478620005bc565b8160405283815260209250868385880101111562000494578485fd5b8491505b83821015620004b7578582018301518183018401529082019062000498565b83821115620004c857848385830101525b9695505050505050565b600080600060608486031215620004e7578283fd5b83516001600160401b0380821115620004fe578485fd5b6200050c878388016200041f565b9450602086015191508082111562000522578384fd5b5062000531868287016200041f565b604086015190935090506001600160a01b038116811462000550578182fd5b809150509250925092565b6000828210156200057a57634e487b7160e01b81526011600452602481fd5b500390565b6002810460018216806200059457607f821691505b60208210811415620005b657634e487b7160e01b600052602260045260246000fd5b50919050565b634e487b7160e01b600052604160045260246000fd5b61336180620005e26000396000f3fe6080604052600436106103085760003560e01c806373c8c8831161019a578063c87b56dd116100e1578063e8a3d4851161008a578063f2fde38b11610064578063f2fde38b1461085b578063f51f74a91461087b578063fc784d49146108a857610308565b8063e8a3d48514610813578063e985e9c514610828578063efd0cbf91461084857610308565b8063d5abeb01116100bb578063d5abeb01146107d3578063e6019716146107e9578063e6a5931e146107fe57610308565b8063c87b56dd14610773578063cd7c032614610793578063d26ea6c0146107b357610308565b8063a22cb46511610143578063b88d4fde1161011d578063b88d4fde1461071d578063c1fad42c1461073d578063c26272a41461075357610308565b8063a22cb465146106bc578063b455c5fe146106dc578063b6c65d38146106fc57610308565b80638da5cb5b116101745780638da5cb5b1461066957806395d89b41146106875780639a3cac6a1461069c57610308565b806373c8c883146106095780637de55fe11461062957806386292bb41461064957610308565b806323b872dd1161025e57806342842e0e11610207578063674d13c8116101e1578063674d13c8146105bf57806370a08231146105d4578063715018a6146105f457610308565b806342842e0e14610552578063621a1f74146105725780636352211e1461059f57610308565b806330176e131161023857806330176e131461050a5780633408e4701461052a5780633ccfd60b1461053d57610308565b806323b872dd1461049e57806326a74d8e146104be5780632d0335ab146104d457610308565b80630f7e5970116102c05780631efba6c21161029a5780631efba6c21461045357806320379ee5146104695780632131c68c1461047e57610308565b80630f7e5970146103d1578063138a4e011461041a57806318160ddd1461043e57610308565b8063081812fc116102f1578063081812fc14610364578063095ea7b31461039c5780630c53c51c146103be57610308565b806301ffc9a71461030d57806306fdde0314610342575b600080fd5b34801561031957600080fd5b5061032d610328366004612e65565b6108c8565b60405190151581526020015b60405180910390f35b34801561034e57600080fd5b50610357610967565b60405161033991906130ce565b34801561037057600080fd5b5061038461037f366004612e4d565b6109fa565b6040516001600160a01b039091168152602001610339565b3480156103a857600080fd5b506103bc6103b7366004612d6b565b610a94565b005b6103576103cc366004612cf0565b610bd8565b3480156103dd57600080fd5b506103576040518060400160405280600181526020017f310000000000000000000000000000000000000000000000000000000000000081525081565b34801561042657600080fd5b50610430600b5481565b604051908152602001610339565b34801561044a57600080fd5b50610430610dde565b34801561045f57600080fd5b50610430600f5481565b34801561047557600080fd5b50600754610430565b34801561048a57600080fd5b50601054610384906001600160a01b031681565b3480156104aa57600080fd5b506103bc6104b9366004612c15565b610dfb565b3480156104ca57600080fd5b50610430600d5481565b3480156104e057600080fd5b506104306104ef366004612bc1565b6001600160a01b031660009081526008602052604090205490565b34801561051657600080fd5b506103bc610525366004612eb9565b610e89565b34801561053657600080fd5b5046610430565b34801561054957600080fd5b506103bc610f07565b34801561055e57600080fd5b506103bc61056d366004612c15565b610f92565b34801561057e57600080fd5b5061043061058d366004612e4d565b60156020526000908152604090205481565b3480156105ab57600080fd5b506103846105ba366004612e4d565b610fad565b3480156105cb57600080fd5b50610430611038565b3480156105e057600080fd5b506104306105ef366004612bc1565b611043565b34801561060057600080fd5b506103bc6110dd565b34801561061557600080fd5b506103bc610624366004612e4d565b611150565b34801561063557600080fd5b506103bc610644366004612d6b565b6111bc565b34801561065557600080fd5b50610357610664366004612e4d565b6113a6565b34801561067557600080fd5b506009546001600160a01b0316610384565b34801561069357600080fd5b50610357611440565b3480156106a857600080fd5b506103bc6106b7366004612bc1565b61144f565b3480156106c857600080fd5b506103bc6106d7366004612cbf565b6114d8565b3480156106e857600080fd5b506103bc6106f7366004612e4d565b6115da565b34801561070857600080fd5b50600a5461032d90600160a01b900460ff1681565b34801561072957600080fd5b506103bc610738366004612c55565b611646565b34801561074957600080fd5b50610430600e5481565b34801561075f57600080fd5b506103bc61076e366004612d96565b6116db565b34801561077f57600080fd5b5061035761078e366004612e4d565b611827565b34801561079f57600080fd5b50600a54610384906001600160a01b031681565b3480156107bf57600080fd5b506103bc6107ce366004612bc1565b61185b565b3480156107df57600080fd5b50610430600c5481565b3480156107f557600080fd5b506103bc6118e4565b34801561080a57600080fd5b50610430611987565b34801561081f57600080fd5b50610357611992565b34801561083457600080fd5b5061032d610843366004612bdd565b6119b2565b6103bc610856366004612e4d565b611a9d565b34801561086757600080fd5b506103bc610876366004612bc1565b611b61565b34801561088757600080fd5b50610430610896366004612e4d565b60166020526000908152604090205481565b3480156108b457600080fd5b506103bc6108c3366004612f04565b611c4d565b60006001600160e01b031982167f80ac58cd00000000000000000000000000000000000000000000000000000000148061092b57506001600160e01b031982167f5b5e139f00000000000000000000000000000000000000000000000000000000145b8061095f57507f01ffc9a7000000000000000000000000000000000000000000000000000000006001600160e01b03198316145b90505b919050565b606060008054610976906131c4565b80601f01602080910402602001604051908101604052809291908181526020018280546109a2906131c4565b80156109ef5780601f106109c4576101008083540402835291602001916109ef565b820191906000526020600020905b8154815290600101906020018083116109d257829003601f168201915b505050505090505b90565b6000818152600260205260408120546001600160a01b0316610a785760405162461bcd60e51b815260206004820152602c60248201527f4552433732313a20617070726f76656420717565727920666f72206e6f6e657860448201526b34b9ba32b73a103a37b5b2b760a11b60648201526084015b60405180910390fd5b506000908152600460205260409020546001600160a01b031690565b6000610a9f82610fad565b9050806001600160a01b0316836001600160a01b03161415610b295760405162461bcd60e51b815260206004820152602160248201527f4552433732313a20617070726f76616c20746f2063757272656e74206f776e6560448201527f72000000000000000000000000000000000000000000000000000000000000006064820152608401610a6f565b806001600160a01b0316610b3b611d2b565b6001600160a01b03161480610b575750610b5781610843611d2b565b610bc95760405162461bcd60e51b815260206004820152603860248201527f4552433732313a20617070726f76652063616c6c6572206973206e6f74206f7760448201527f6e6572206e6f7220617070726f76656420666f7220616c6c00000000000000006064820152608401610a6f565b610bd38383611d35565b505050565b60408051606081810183526001600160a01b03881660008181526008602090815290859020548452830152918101869052610c168782878787611da3565b610c885760405162461bcd60e51b815260206004820152602160248201527f5369676e657220616e64207369676e617475726520646f206e6f74206d61746360448201527f68000000000000000000000000000000000000000000000000000000000000006064820152608401610a6f565b6001600160a01b038716600090815260086020526040902054610cac906001611eab565b6001600160a01b0388166000908152600860205260409081902091909155517f5845892132946850460bff5a0083f71031bc5bf9aadcd40f1de79423eac9b10b90610cfc90899033908a90613066565b60405180910390a1600080306001600160a01b0316888a604051602001610d24929190612f89565b60408051601f1981840301815290829052610d3e91612f6d565b6000604051808303816000865af19150503d8060008114610d7b576040519150601f19603f3d011682016040523d82523d6000602084013e610d80565b606091505b509150915081610dd25760405162461bcd60e51b815260206004820152601c60248201527f46756e6374696f6e2063616c6c206e6f74207375636365737366756c000000006044820152606401610a6f565b98975050505050505050565b6000610de960135490565b601254610df69190613136565b905090565b610e0c610e06611d2b565b82611ebe565b610e7e5760405162461bcd60e51b815260206004820152603160248201527f4552433732313a207472616e736665722063616c6c6572206973206e6f74206f60448201527f776e6572206e6f7220617070726f7665640000000000000000000000000000006064820152608401610a6f565b610bd3838383611f8d565b610e91611d2b565b6001600160a01b0316610eac6009546001600160a01b031690565b6001600160a01b031614610ef05760405162461bcd60e51b8152602060048201819052602482015260008051602061330c8339815191526044820152606401610a6f565b8051610f03906011906020840190612a56565b5050565b610f0f611d2b565b6001600160a01b0316610f2a6009546001600160a01b031690565b6001600160a01b031614610f6e5760405162461bcd60e51b8152602060048201819052602482015260008051602061330c8339815191526044820152606401610a6f565b4780610f7957600080fd5b601054610f8f906001600160a01b03168261215a565b50565b610bd383838360405180602001604052806000815250611646565b6000818152600260205260408120546001600160a01b03168061095f5760405162461bcd60e51b815260206004820152602960248201527f4552433732313a206f776e657220717565727920666f72206e6f6e657869737460448201527f656e7420746f6b656e00000000000000000000000000000000000000000000006064820152608401610a6f565b6000610df660135490565b60006001600160a01b0382166110c15760405162461bcd60e51b815260206004820152602a60248201527f4552433732313a2062616c616e636520717565727920666f7220746865207a6560448201527f726f2061646472657373000000000000000000000000000000000000000000006064820152608401610a6f565b506001600160a01b031660009081526003602052604090205490565b6110e5611d2b565b6001600160a01b03166111006009546001600160a01b031690565b6001600160a01b0316146111445760405162461bcd60e51b8152602060048201819052602482015260008051602061330c8339815191526044820152606401610a6f565b61114e60006121fd565b565b611158611d2b565b6001600160a01b03166111736009546001600160a01b031690565b6001600160a01b0316146111b75760405162461bcd60e51b8152602060048201819052602482015260008051602061330c8339815191526044820152606401610a6f565b600f55565b6111c4611d2b565b6001600160a01b03166111df6009546001600160a01b031690565b6001600160a01b0316146112235760405162461bcd60e51b8152602060048201819052602482015260008051602061330c8339815191526044820152606401610a6f565b600e548161123060135490565b61123a9190613136565b11156112885760405162461bcd60e51b815260206004820152601260248201527f4d617820737570706c79207265616368656400000000000000000000000000006044820152606401610a6f565b60005b81811015610bd3576112a1601380546001019055565b61131a306001600160a01b03166318160ddd6040518163ffffffff1660e01b815260040160206040518083038186803b1580156112dd57600080fd5b505afa1580156112f1573d6000803e3d6000fd5b505050506040513d601f19601f820116820180604052508101906113159190612eec565b61224f565b61139483306001600160a01b03166318160ddd6040518163ffffffff1660e01b815260040160206040518083038186803b15801561135757600080fd5b505afa15801561136b573d6000803e3d6000fd5b505050506040513d601f19601f8201168201806040525081019061138f9190612eec565b61227d565b8061139e816131ff565b91505061128b565b601460205260009081526040902080546113bf906131c4565b80601f01602080910402602001604051908101604052809291908181526020018280546113eb906131c4565b80156114385780601f1061140d57610100808354040283529160200191611438565b820191906000526020600020905b81548152906001019060200180831161141b57829003601f168201915b505050505081565b606060018054610976906131c4565b611457611d2b565b6001600160a01b03166114726009546001600160a01b031690565b6001600160a01b0316146114b65760405162461bcd60e51b8152602060048201819052602482015260008051602061330c8339815191526044820152606401610a6f565b601080546001600160a01b0319166001600160a01b0392909216919091179055565b6114e0611d2b565b6001600160a01b0316826001600160a01b031614156115415760405162461bcd60e51b815260206004820152601960248201527f4552433732313a20617070726f766520746f2063616c6c6572000000000000006044820152606401610a6f565b806005600061154e611d2b565b6001600160a01b03908116825260208083019390935260409182016000908120918716808252919093529120805460ff191692151592909217909155611592611d2b565b6001600160a01b03167f17307eab39ab6107e8899845ad3d59bd9653f200f220920489ca2b5937696c31836040516115ce911515815260200190565b60405180910390a35050565b6115e2611d2b565b6001600160a01b03166115fd6009546001600160a01b031690565b6001600160a01b0316146116415760405162461bcd60e51b8152602060048201819052602482015260008051602061330c8339815191526044820152606401610a6f565b600b55565b611657611651611d2b565b83611ebe565b6116c95760405162461bcd60e51b815260206004820152603160248201527f4552433732313a207472616e736665722063616c6c6572206973206e6f74206f60448201527f776e6572206e6f7220617070726f7665640000000000000000000000000000006064820152608401610a6f565b6116d584848484612297565b50505050565b6116e3611d2b565b6001600160a01b03166116fe6009546001600160a01b031690565b6001600160a01b0316146117425760405162461bcd60e51b8152602060048201819052602482015260008051602061330c8339815191526044820152606401610a6f565b80518251146117935760405162461bcd60e51b815260206004820152601b60248201527f4172726179206c656e677468732061726520646966666572656e7400000000006044820152606401610a6f565b60005b8151811015610bd3578181815181106117bf57634e487b7160e01b600052603260045260246000fd5b6020026020010151601460008584815181106117eb57634e487b7160e01b600052603260045260246000fd5b602002602001015181526020019081526020016000209080519060200190611814929190612a56565b508061181f816131ff565b915050611796565b6060601161183483612315565b604051602001611845929190612fc0565b6040516020818303038152906040529050919050565b611863611d2b565b6001600160a01b031661187e6009546001600160a01b031690565b6001600160a01b0316146118c25760405162461bcd60e51b8152602060048201819052602482015260008051602061330c8339815191526044820152606401610a6f565b600a80546001600160a01b0319166001600160a01b0392909216919091179055565b6118ec611d2b565b6001600160a01b03166119076009546001600160a01b031690565b6001600160a01b03161461194b5760405162461bcd60e51b8152602060048201819052602482015260008051602061330c8339815191526044820152606401610a6f565b600a80547fffffffffffffffffffffff00ffffffffffffffffffffffffffffffffffffffff8116600160a01b9182900460ff1615909102179055565b6000610df660125490565b60606040518060600160405280602d81526020016132df602d9139905090565b600a546040517fc45527910000000000000000000000000000000000000000000000000000000081526001600160a01b03848116600483015260009281169190841690829063c45527919060240160206040518083038186803b158015611a1857600080fd5b505afa158015611a2c573d6000803e3d6000fd5b505050506040513d601f19601f82011682018060405250810190611a509190612e9d565b6001600160a01b03161415611a69576001915050611a97565b6001600160a01b0380851660009081526005602090815260408083209387168352929052205460ff165b9150505b92915050565b600a54600160a01b900460ff16611af65760405162461bcd60e51b815260206004820152600f60248201527f53616c65206e6f742061637469766500000000000000000000000000000000006044820152606401610a6f565b600081600f54611b069190613162565b905034811115611b585760405162461bcd60e51b815260206004820152600e60248201527f4e6f7420656e6f756768204554480000000000000000000000000000000000006044820152606401610a6f565b610f038261246c565b611b69611d2b565b6001600160a01b0316611b846009546001600160a01b031690565b6001600160a01b031614611bc85760405162461bcd60e51b8152602060048201819052602482015260008051602061330c8339815191526044820152606401610a6f565b6001600160a01b038116611c445760405162461bcd60e51b815260206004820152602660248201527f4f776e61626c653a206e6577206f776e657220697320746865207a65726f206160448201527f64647265737300000000000000000000000000000000000000000000000000006064820152608401610a6f565b610f8f816121fd565b611c55611d2b565b6001600160a01b0316611c706009546001600160a01b031690565b6001600160a01b031614611cb45760405162461bcd60e51b8152602060048201819052602482015260008051602061330c8339815191526044820152606401610a6f565b600c829055600e819055611cc88183613181565b600d555050565b600033301415611d2657600080368080601f0160208091040260200160405190810160405280939291908181526020018383808284376000920191909152505050503601516001600160a01b031691506109f79050565b503390565b6000610df6611ccf565b600081815260046020526040902080546001600160a01b0319166001600160a01b0384169081179091558190611d6a82610fad565b6001600160a01b03167f8c5be1e5ebec7d5bd14f71427d1e84f3dd0314c0f7b2291e5b200ac8c7c3b92560405160405180910390a45050565b60006001600160a01b038616611e215760405162461bcd60e51b815260206004820152602560248201527f4e61746976654d6574615472616e73616374696f6e3a20494e56414c49445f5360448201527f49474e45520000000000000000000000000000000000000000000000000000006064820152608401610a6f565b6001611e34611e2f8761260a565b612687565b6040805160008152602081018083529290925260ff851690820152606081018690526080810185905260a0016020604051602081039080840390855afa158015611e82573d6000803e3d6000fd5b505050602060405103516001600160a01b0316866001600160a01b031614905095945050505050565b6000611eb78284613136565b9392505050565b6000818152600260205260408120546001600160a01b0316611f375760405162461bcd60e51b815260206004820152602c60248201527f4552433732313a206f70657261746f7220717565727920666f72206e6f6e657860448201526b34b9ba32b73a103a37b5b2b760a11b6064820152608401610a6f565b6000611f4283610fad565b9050806001600160a01b0316846001600160a01b03161480611f7d5750836001600160a01b0316611f72846109fa565b6001600160a01b0316145b80611a935750611a9381856119b2565b826001600160a01b0316611fa082610fad565b6001600160a01b03161461201c5760405162461bcd60e51b815260206004820152602960248201527f4552433732313a207472616e73666572206f6620746f6b656e2074686174206960448201527f73206e6f74206f776e00000000000000000000000000000000000000000000006064820152608401610a6f565b6001600160a01b0382166120975760405162461bcd60e51b8152602060048201526024808201527f4552433732313a207472616e7366657220746f20746865207a65726f2061646460448201527f72657373000000000000000000000000000000000000000000000000000000006064820152608401610a6f565b6120a2600082611d35565b6001600160a01b03831660009081526003602052604081208054600192906120cb908490613181565b90915550506001600160a01b03821660009081526003602052604081208054600192906120f9908490613136565b909155505060008181526002602052604080822080546001600160a01b0319166001600160a01b0386811691821790925591518493918716917fddf252ad1be2c89b69c2b068fc378daa952ba7f163c4a11628f55a4df523b3ef91a4505050565b6000826001600160a01b03168260405160006040518083038185875af1925050503d80600081146121a7576040519150601f19603f3d011682016040523d82523d6000602084013e6121ac565b606091505b5050905080610bd35760405162461bcd60e51b815260206004820152600960248201527f5478206661696c656400000000000000000000000000000000000000000000006044820152606401610a6f565b600980546001600160a01b038381166001600160a01b0319831681179093556040519116919082907f8be0079c531659141344cd1fd0a4f28419497f9722a3daafe3b4186f6b6457e090600090a35050565b600061225a826126d2565b600083815260156020908152604080832084905592825260169052209190915550565b610f0382826040518060200160405280600081525061271e565b6122a2848484611f8d565b6122ae8484848461279c565b6116d55760405162461bcd60e51b815260206004820152603260248201527f4552433732313a207472616e7366657220746f206e6f6e20455243373231526560448201527131b2b4bb32b91034b6b83632b6b2b73a32b960711b6064820152608401610a6f565b606081612356575060408051808201909152600181527f30000000000000000000000000000000000000000000000000000000000000006020820152610962565b8160005b8115612380578061236a816131ff565b91506123799050600a8361314e565b915061235a565b60008167ffffffffffffffff8111156123a957634e487b7160e01b600052604160045260246000fd5b6040519080825280601f01601f1916602001820160405280156123d3576020820181803683370190505b5090505b8415612464576123e8600183613181565b91506123f5600a8661321a565b612400906030613136565b60f81b81838151811061242357634e487b7160e01b600052603260045260246000fd5b60200101907effffffffffffffffffffffffffffffffffffffffffffffffffffffffffffff1916908160001a90535061245d600a8661314e565b94506123d7565b949350505050565b600b548111156124be5760405162461bcd60e51b815260206004820152601160248201527f4d6178206d696e742065786365656465640000000000000000000000000000006044820152606401610a6f565b600d54816124cb60125490565b6124d59190613136565b11156125235760405162461bcd60e51b815260206004820152601260248201527f4d617820737570706c79207265616368656400000000000000000000000000006044820152606401610a6f565b60005b81811015610f035761253c601280546001019055565b6000306001600160a01b03166318160ddd6040518163ffffffff1660e01b815260040160206040518083038186803b15801561257757600080fd5b505afa15801561258b573d6000803e3d6000fd5b505050506040513d601f19601f820116820180604052508101906125af9190612eec565b90506125ba8161224f565b6125f733306001600160a01b03166318160ddd6040518163ffffffff1660e01b815260040160206040518083038186803b15801561135757600080fd5b5080612602816131ff565b915050612526565b600060405180608001604052806043815260200161329c604391398051602091820120835184830151604080870151805190860120905161266a950193845260208401929092526001600160a01b03166040830152606082015260800190565b604051602081830303815290604052805190602001209050919050565b600061269260075490565b6040517f1901000000000000000000000000000000000000000000000000000000000000602082015260228101919091526042810183905260620161266a565b6000436126e0600182613181565b40338460405160200161266a9493929190938452602084019290925260601b6bffffffffffffffffffffffff19166040830152605482015260740190565b6127288383612914565b612735600084848461279c565b610bd35760405162461bcd60e51b815260206004820152603260248201527f4552433732313a207472616e7366657220746f206e6f6e20455243373231526560448201527131b2b4bb32b91034b6b83632b6b2b73a32b960711b6064820152608401610a6f565b60006001600160a01b0384163b1561290957836001600160a01b031663150b7a026127c5611d2b565b8786866040518563ffffffff1660e01b81526004016127e79493929190613092565b602060405180830381600087803b15801561280157600080fd5b505af1925050508015612831575060408051601f3d908101601f1916820190925261282e91810190612e81565b60015b6128d6573d80801561285f576040519150601f19603f3d011682016040523d82523d6000602084013e612864565b606091505b5080516128ce5760405162461bcd60e51b815260206004820152603260248201527f4552433732313a207472616e7366657220746f206e6f6e20455243373231526560448201527131b2b4bb32b91034b6b83632b6b2b73a32b960711b6064820152608401610a6f565b805181602001fd5b6001600160e01b0319167f150b7a0200000000000000000000000000000000000000000000000000000000149050612464565b506001949350505050565b6001600160a01b03821661296a5760405162461bcd60e51b815260206004820181905260248201527f4552433732313a206d696e7420746f20746865207a65726f20616464726573736044820152606401610a6f565b6000818152600260205260409020546001600160a01b0316156129cf5760405162461bcd60e51b815260206004820152601c60248201527f4552433732313a20746f6b656e20616c7265616479206d696e746564000000006044820152606401610a6f565b6001600160a01b03821660009081526003602052604081208054600192906129f8908490613136565b909155505060008181526002602052604080822080546001600160a01b0319166001600160a01b03861690811790915590518392907fddf252ad1be2c89b69c2b068fc378daa952ba7f163c4a11628f55a4df523b3ef908290a45050565b828054612a62906131c4565b90600052602060002090601f016020900481019282612a845760008555612aca565b82601f10612a9d57805160ff1916838001178555612aca565b82800160010185558215612aca579182015b82811115612aca578251825591602001919060010190612aaf565b50612ad6929150612ada565b5090565b5b80821115612ad65760008155600101612adb565b600082601f830112612aff578081fd5b81356020612b14612b0f83613112565b6130e1565b82815281810190858301855b85811015612b4957612b37898684358b0101612b56565b84529284019290840190600101612b20565b5090979650505050505050565b600082601f830112612b66578081fd5b813567ffffffffffffffff811115612b8057612b8061325a565b612b93601f8201601f19166020016130e1565b818152846020838601011115612ba7578283fd5b816020850160208301379081016020019190915292915050565b600060208284031215612bd2578081fd5b8135611eb781613270565b60008060408385031215612bef578081fd5b8235612bfa81613270565b91506020830135612c0a81613270565b809150509250929050565b600080600060608486031215612c29578081fd5b8335612c3481613270565b92506020840135612c4481613270565b929592945050506040919091013590565b60008060008060808587031215612c6a578081fd5b8435612c7581613270565b93506020850135612c8581613270565b925060408501359150606085013567ffffffffffffffff811115612ca7578182fd5b612cb387828801612b56565b91505092959194509250565b60008060408385031215612cd1578182fd5b8235612cdc81613270565b915060208301358015158114612c0a578182fd5b600080600080600060a08688031215612d07578081fd5b8535612d1281613270565b9450602086013567ffffffffffffffff811115612d2d578182fd5b612d3988828901612b56565b9450506040860135925060608601359150608086013560ff81168114612d5d578182fd5b809150509295509295909350565b60008060408385031215612d7d578182fd5b8235612d8881613270565b946020939093013593505050565b60008060408385031215612da8578182fd5b823567ffffffffffffffff80821115612dbf578384fd5b818501915085601f830112612dd2578384fd5b81356020612de2612b0f83613112565b82815281810190858301838502870184018b1015612dfe578889fd5b8896505b84871015612e20578035835260019690960195918301918301612e02565b5096505086013592505080821115612e36578283fd5b50612e4385828601612aef565b9150509250929050565b600060208284031215612e5e578081fd5b5035919050565b600060208284031215612e76578081fd5b8135611eb781613285565b600060208284031215612e92578081fd5b8151611eb781613285565b600060208284031215612eae578081fd5b8151611eb781613270565b600060208284031215612eca578081fd5b813567ffffffffffffffff811115612ee0578182fd5b611a9384828501612b56565b600060208284031215612efd578081fd5b5051919050565b60008060408385031215612f16578182fd5b50508035926020909101359150565b60008151808452612f3d816020860160208601613198565b601f01601f19169290920160200192915050565b60008151612f63818560208601613198565b9290920192915050565b60008251612f7f818460208701613198565b9190910192915050565b60008351612f9b818460208801613198565b60609390931b6bffffffffffffffffffffffff19169190920190815260140192915050565b8254600090819060028104600180831680612fdc57607f831692505b6020808410821415612ffc57634e487b7160e01b87526022600452602487fd5b81801561301057600181146130215761304d565b60ff1986168952848901965061304d565b60008b815260209020885b868110156130455781548b82015290850190830161302c565b505084890196505b50505050505061305d8185612f51565b95945050505050565b60006001600160a01b0380861683528085166020840152506060604083015261305d6060830184612f25565b60006001600160a01b038087168352808616602084015250836040830152608060608301526130c46080830184612f25565b9695505050505050565b600060208252611eb76020830184612f25565b604051601f8201601f1916810167ffffffffffffffff8111828210171561310a5761310a61325a565b604052919050565b600067ffffffffffffffff82111561312c5761312c61325a565b5060209081020190565b600082198211156131495761314961322e565b500190565b60008261315d5761315d613244565b500490565b600081600019048311821515161561317c5761317c61322e565b500290565b6000828210156131935761319361322e565b500390565b60005b838110156131b357818101518382015260200161319b565b838111156116d55750506000910152565b6002810460018216806131d857607f821691505b602082108114156131f957634e487b7160e01b600052602260045260246000fd5b50919050565b60006000198214156132135761321361322e565b5060010190565b60008261322957613229613244565b500690565b634e487b7160e01b600052601160045260246000fd5b634e487b7160e01b600052601260045260246000fd5b634e487b7160e01b600052604160045260246000fd5b6001600160a01b0381168114610f8f57600080fd5b6001600160e01b031981168114610f8f57600080fdfe4d6574615472616e73616374696f6e2875696e74323536206e6f6e63652c616464726573732066726f6d2c62797465732066756e6374696f6e5369676e61747572652968747470733a2f2f746f79732e3078746563686e6f2e6172742f6170692f746f79732f636f6e74726163742f314f776e61626c653a2063616c6c6572206973206e6f7420746865206f776e6572a2646970667358221220038dff5d8f808a826c7fdcc9f0513f1782614772ddf1ea127b757c3952e591f664736f6c6343000802003368747470733a2f2f746f79732e3078746563686e6f2e6172742f6170692f746f79732f6d6574612f454950373132446f6d61696e28737472696e67206e616d652c737472696e672076657273696f6e2c6164647265737320766572696679696e67436f6e74726163742c627974657333322073616c7429",
          "opcodes": "PUSH1 0x80 PUSH1 0x40 MSTORE CALLVALUE DUP1 ISZERO PUSH3 0x11 JUMPI PUSH1 0x0 DUP1 REVERT JUMPDEST POP PUSH1 0x40 MLOAD PUSH3 0x39BA CODESIZE SUB DUP1 PUSH3 0x39BA DUP4 CODECOPY DUP2 ADD PUSH1 0x40 DUP2 SWAP1 MSTORE PUSH3 0x34 SWAP2 PUSH3 0x4D2 JUMP JUMPDEST DUP3 DUP3 DUP3 DUP3 DUP3 DUP2 PUSH1 0x0 SWAP1 DUP1 MLOAD SWAP1 PUSH1 0x20 ADD SWAP1 PUSH3 0x51 SWAP3 SWAP2 SWAP1 PUSH3 0x379 JUMP JUMPDEST POP DUP1 MLOAD PUSH3 0x67 SWAP1 PUSH1 0x1 SWAP1 PUSH1 0x20 DUP5 ADD SWAP1 PUSH3 0x379 JUMP JUMPDEST POP POP POP PUSH3 0x84 PUSH3 0x7E PUSH3 0x13A PUSH1 0x20 SHL PUSH1 0x20 SHR JUMP JUMPDEST PUSH3 0x157 JUMP JUMPDEST PUSH1 0xA DUP1 SLOAD PUSH1 0x1 PUSH1 0x1 PUSH1 0xA0 SHL SUB NOT AND PUSH1 0x1 PUSH1 0x1 PUSH1 0xA0 SHL SUB DUP4 AND OR SWAP1 SSTORE PUSH3 0xAA DUP4 PUSH3 0x1A9 JUMP JUMPDEST POP POP PUSH1 0x2 PUSH1 0xB SSTORE POP PUSH2 0x240 PUSH1 0xC DUP2 SWAP1 SSTORE PUSH1 0xA PUSH1 0xE DUP2 SWAP1 SSTORE PUSH3 0xCC SWAP2 PUSH3 0x55B JUMP JUMPDEST PUSH1 0xD SSTORE PUSH8 0x16345785D8A0000 PUSH1 0xF SSTORE PUSH1 0x10 DUP1 SLOAD PUSH1 0x1 PUSH1 0x1 PUSH1 0xA0 SHL SUB NOT AND PUSH20 0x8A09928A0623155F0554F42427E27B8EE88411FB OR SWAP1 SSTORE PUSH1 0x40 DUP1 MLOAD PUSH1 0x60 DUP2 ADD SWAP1 SWAP2 MSTORE PUSH1 0x28 DUP1 DUP3 MSTORE PUSH3 0x3943 PUSH1 0x20 DUP4 ADD CODECOPY DUP1 MLOAD PUSH3 0x130 SWAP2 PUSH1 0x11 SWAP2 PUSH1 0x20 SWAP1 SWAP2 ADD SWAP1 PUSH3 0x379 JUMP JUMPDEST POP POP POP POP PUSH3 0x5D2 JUMP JUMPDEST PUSH1 0x0 PUSH3 0x151 PUSH3 0x279 PUSH1 0x20 SHL PUSH3 0x1CCF OR PUSH1 0x20 SHR JUMP JUMPDEST SWAP1 POP JUMPDEST SWAP1 JUMP JUMPDEST PUSH1 0x9 DUP1 SLOAD PUSH1 0x1 PUSH1 0x1 PUSH1 0xA0 SHL SUB DUP4 DUP2 AND PUSH1 0x1 PUSH1 0x1 PUSH1 0xA0 SHL SUB NOT DUP4 AND DUP2 OR SWAP1 SWAP4 SSTORE PUSH1 0x40 MLOAD SWAP2 AND SWAP2 SWAP1 DUP3 SWAP1 PUSH32 0x8BE0079C531659141344CD1FD0A4F28419497F9722A3DAAFE3B4186F6B6457E0 SWAP1 PUSH1 0x0 SWAP1 LOG3 POP POP JUMP JUMPDEST PUSH1 0x6 SLOAD PUSH2 0x100 SWAP1 DIV PUSH1 0xFF AND DUP1 PUSH3 0x1C3 JUMPI POP PUSH1 0x6 SLOAD PUSH1 0xFF AND ISZERO JUMPDEST PUSH3 0x22B JUMPI PUSH1 0x40 MLOAD PUSH3 0x461BCD PUSH1 0xE5 SHL DUP2 MSTORE PUSH1 0x20 PUSH1 0x4 DUP3 ADD MSTORE PUSH1 0x2E PUSH1 0x24 DUP3 ADD MSTORE PUSH32 0x496E697469616C697A61626C653A20636F6E747261637420697320616C726561 PUSH1 0x44 DUP3 ADD MSTORE PUSH14 0x191E481A5B9A5D1A585B1A5E9959 PUSH1 0x92 SHL PUSH1 0x64 DUP3 ADD MSTORE PUSH1 0x84 ADD PUSH1 0x40 MLOAD DUP1 SWAP2 SUB SWAP1 REVERT JUMPDEST PUSH1 0x6 SLOAD PUSH2 0x100 SWAP1 DIV PUSH1 0xFF AND ISZERO DUP1 ISZERO PUSH3 0x257 JUMPI PUSH1 0x6 DUP1 SLOAD PUSH1 0xFF NOT PUSH2 0xFF00 NOT SWAP1 SWAP2 AND PUSH2 0x100 OR AND PUSH1 0x1 OR SWAP1 SSTORE JUMPDEST PUSH3 0x262 DUP3 PUSH3 0x2D7 JUMP JUMPDEST DUP1 ISZERO PUSH3 0x275 JUMPI PUSH1 0x6 DUP1 SLOAD PUSH2 0xFF00 NOT AND SWAP1 SSTORE JUMPDEST POP POP JUMP JUMPDEST PUSH1 0x0 CALLER ADDRESS EQ ISZERO PUSH3 0x2D2 JUMPI PUSH1 0x0 DUP1 CALLDATASIZE DUP1 DUP1 PUSH1 0x1F ADD PUSH1 0x20 DUP1 SWAP2 DIV MUL PUSH1 0x20 ADD PUSH1 0x40 MLOAD SWAP1 DUP2 ADD PUSH1 0x40 MSTORE DUP1 SWAP4 SWAP3 SWAP2 SWAP1 DUP2 DUP2 MSTORE PUSH1 0x20 ADD DUP4 DUP4 DUP1 DUP3 DUP5 CALLDATACOPY PUSH1 0x0 SWAP3 ADD SWAP2 SWAP1 SWAP2 MSTORE POP POP POP POP CALLDATASIZE ADD MLOAD PUSH1 0x1 PUSH1 0x1 PUSH1 0xA0 SHL SUB AND SWAP2 POP PUSH3 0x154 SWAP1 POP JUMP JUMPDEST POP CALLER SWAP1 JUMP JUMPDEST PUSH1 0x40 MLOAD DUP1 PUSH1 0x80 ADD PUSH1 0x40 MSTORE DUP1 PUSH1 0x4F DUP2 MSTORE PUSH1 0x20 ADD PUSH3 0x396B PUSH1 0x4F SWAP2 CODECOPY DUP1 MLOAD PUSH1 0x20 SWAP2 DUP3 ADD KECCAK256 DUP3 MLOAD SWAP3 DUP3 ADD SWAP3 SWAP1 SWAP3 KECCAK256 PUSH1 0x40 DUP1 MLOAD DUP1 DUP3 ADD DUP3 MSTORE PUSH1 0x1 DUP2 MSTORE PUSH1 0x31 PUSH1 0xF8 SHL SWAP1 DUP5 ADD MSTORE DUP1 MLOAD DUP1 DUP5 ADD SWAP5 SWAP1 SWAP5 MSTORE DUP4 DUP2 ADD SWAP2 SWAP1 SWAP2 MSTORE PUSH32 0xC89EFDAA54C0F20C7ADF612882DF0950F5A951637E0307CDCB4C672F298B8BC6 PUSH1 0x60 DUP5 ADD MSTORE ADDRESS PUSH1 0x80 DUP5 ADD MSTORE CHAINID PUSH1 0xA0 DUP1 DUP6 ADD SWAP2 SWAP1 SWAP2 MSTORE DUP2 MLOAD DUP1 DUP6 SUB SWAP1 SWAP2 ADD DUP2 MSTORE PUSH1 0xC0 SWAP1 SWAP4 ADD SWAP1 MSTORE DUP2 MLOAD SWAP2 ADD KECCAK256 PUSH1 0x7 SSTORE JUMP JUMPDEST DUP3 DUP1 SLOAD PUSH3 0x387 SWAP1 PUSH3 0x57F JUMP JUMPDEST SWAP1 PUSH1 0x0 MSTORE PUSH1 0x20 PUSH1 0x0 KECCAK256 SWAP1 PUSH1 0x1F ADD PUSH1 0x20 SWAP1 DIV DUP2 ADD SWAP3 DUP3 PUSH3 0x3AB JUMPI PUSH1 0x0 DUP6 SSTORE PUSH3 0x3F6 JUMP JUMPDEST DUP3 PUSH1 0x1F LT PUSH3 0x3C6 JUMPI DUP1 MLOAD PUSH1 0xFF NOT AND DUP4 DUP1 ADD OR DUP6 SSTORE PUSH3 0x3F6 JUMP JUMPDEST DUP3 DUP1 ADD PUSH1 0x1 ADD DUP6 SSTORE DUP3 ISZERO PUSH3 0x3F6 JUMPI SWAP2 DUP3 ADD JUMPDEST DUP3 DUP2 GT ISZERO PUSH3 0x3F6 JUMPI DUP3 MLOAD DUP3 SSTORE SWAP2 PUSH1 0x20 ADD SWAP2 SWAP1 PUSH1 0x1 ADD SWAP1 PUSH3 0x3D9 JUMP JUMPDEST POP PUSH3 0x404 SWAP3 SWAP2 POP PUSH3 0x408 JUMP JUMPDEST POP SWAP1 JUMP JUMPDEST JUMPDEST DUP1 DUP3 GT ISZERO PUSH3 0x404 JUMPI PUSH1 0x0 DUP2 SSTORE PUSH1 0x1 ADD PUSH3 0x409 JUMP JUMPDEST PUSH1 0x0 DUP3 PUSH1 0x1F DUP4 ADD SLT PUSH3 0x430 JUMPI DUP1 DUP2 REVERT JUMPDEST DUP2 MLOAD PUSH1 0x1 PUSH1 0x1 PUSH1 0x40 SHL SUB DUP1 DUP3 GT ISZERO PUSH3 0x44D JUMPI PUSH3 0x44D PUSH3 0x5BC JUMP JUMPDEST PUSH1 0x40 MLOAD PUSH1 0x1F DUP4 ADD PUSH1 0x1F NOT SWAP1 DUP2 AND PUSH1 0x3F ADD AND DUP2 ADD SWAP1 DUP3 DUP3 GT DUP2 DUP4 LT OR ISZERO PUSH3 0x478 JUMPI PUSH3 0x478 PUSH3 0x5BC JUMP JUMPDEST DUP2 PUSH1 0x40 MSTORE DUP4 DUP2 MSTORE PUSH1 0x20 SWAP3 POP DUP7 DUP4 DUP6 DUP9 ADD ADD GT ISZERO PUSH3 0x494 JUMPI DUP5 DUP6 REVERT JUMPDEST DUP5 SWAP2 POP JUMPDEST DUP4 DUP3 LT ISZERO PUSH3 0x4B7 JUMPI DUP6 DUP3 ADD DUP4 ADD MLOAD DUP2 DUP4 ADD DUP5 ADD MSTORE SWAP1 DUP3 ADD SWAP1 PUSH3 0x498 JUMP JUMPDEST DUP4 DUP3 GT ISZERO PUSH3 0x4C8 JUMPI DUP5 DUP4 DUP6 DUP4 ADD ADD MSTORE JUMPDEST SWAP7 SWAP6 POP POP POP POP POP POP JUMP JUMPDEST PUSH1 0x0 DUP1 PUSH1 0x0 PUSH1 0x60 DUP5 DUP7 SUB SLT ISZERO PUSH3 0x4E7 JUMPI DUP3 DUP4 REVERT JUMPDEST DUP4 MLOAD PUSH1 0x1 PUSH1 0x1 PUSH1 0x40 SHL SUB DUP1 DUP3 GT ISZERO PUSH3 0x4FE JUMPI DUP5 DUP6 REVERT JUMPDEST PUSH3 0x50C DUP8 DUP4 DUP9 ADD PUSH3 0x41F JUMP JUMPDEST SWAP5 POP PUSH1 0x20 DUP7 ADD MLOAD SWAP2 POP DUP1 DUP3 GT ISZERO PUSH3 0x522 JUMPI DUP4 DUP5 REVERT JUMPDEST POP PUSH3 0x531 DUP7 DUP3 DUP8 ADD PUSH3 0x41F JUMP JUMPDEST PUSH1 0x40 DUP7 ADD MLOAD SWAP1 SWAP4 POP SWAP1 POP PUSH1 0x1 PUSH1 0x1 PUSH1 0xA0 SHL SUB DUP2 AND DUP2 EQ PUSH3 0x550 JUMPI DUP2 DUP3 REVERT JUMPDEST DUP1 SWAP2 POP POP SWAP3 POP SWAP3 POP SWAP3 JUMP JUMPDEST PUSH1 0x0 DUP3 DUP3 LT ISZERO PUSH3 0x57A JUMPI PUSH4 0x4E487B71 PUSH1 0xE0 SHL DUP2 MSTORE PUSH1 0x11 PUSH1 0x4 MSTORE PUSH1 0x24 DUP2 REVERT JUMPDEST POP SUB SWAP1 JUMP JUMPDEST PUSH1 0x2 DUP2 DIV PUSH1 0x1 DUP3 AND DUP1 PUSH3 0x594 JUMPI PUSH1 0x7F DUP3 AND SWAP2 POP JUMPDEST PUSH1 0x20 DUP3 LT DUP2 EQ ISZERO PUSH3 0x5B6 JUMPI PUSH4 0x4E487B71 PUSH1 0xE0 SHL PUSH1 0x0 MSTORE PUSH1 0x22 PUSH1 0x4 MSTORE PUSH1 0x24 PUSH1 0x0 REVERT JUMPDEST POP SWAP2 SWAP1 POP JUMP JUMPDEST PUSH4 0x4E487B71 PUSH1 0xE0 SHL PUSH1 0x0 MSTORE PUSH1 0x41 PUSH1 0x4 MSTORE PUSH1 0x24 PUSH1 0x0 REVERT JUMPDEST PUSH2 0x3361 DUP1 PUSH3 0x5E2 PUSH1 0x0 CODECOPY PUSH1 0x0 RETURN INVALID PUSH1 0x80 PUSH1 0x40 MSTORE PUSH1 0x4 CALLDATASIZE LT PUSH2 0x308 JUMPI PUSH1 0x0 CALLDATALOAD PUSH1 0xE0 SHR DUP1 PUSH4 0x73C8C883 GT PUSH2 0x19A JUMPI DUP1 PUSH4 0xC87B56DD GT PUSH2 0xE1 JUMPI DUP1 PUSH4 0xE8A3D485 GT PUSH2 0x8A JUMPI DUP1 PUSH4 0xF2FDE38B GT PUSH2 0x64 JUMPI DUP1 PUSH4 0xF2FDE38B EQ PUSH2 0x85B JUMPI DUP1 PUSH4 0xF51F74A9 EQ PUSH2 0x87B JUMPI DUP1 PUSH4 0xFC784D49 EQ PUSH2 0x8A8 JUMPI PUSH2 0x308 JUMP JUMPDEST DUP1 PUSH4 0xE8A3D485 EQ PUSH2 0x813 JUMPI DUP1 PUSH4 0xE985E9C5 EQ PUSH2 0x828 JUMPI DUP1 PUSH4 0xEFD0CBF9 EQ PUSH2 0x848 JUMPI PUSH2 0x308 JUMP JUMPDEST DUP1 PUSH4 0xD5ABEB01 GT PUSH2 0xBB JUMPI DUP1 PUSH4 0xD5ABEB01 EQ PUSH2 0x7D3 JUMPI DUP1 PUSH4 0xE6019716 EQ PUSH2 0x7E9 JUMPI DUP1 PUSH4 0xE6A5931E EQ PUSH2 0x7FE JUMPI PUSH2 0x308 JUMP JUMPDEST DUP1 PUSH4 0xC87B56DD EQ PUSH2 0x773 JUMPI DUP1 PUSH4 0xCD7C0326 EQ PUSH2 0x793 JUMPI DUP1 PUSH4 0xD26EA6C0 EQ PUSH2 0x7B3 JUMPI PUSH2 0x308 JUMP JUMPDEST DUP1 PUSH4 0xA22CB465 GT PUSH2 0x143 JUMPI DUP1 PUSH4 0xB88D4FDE GT PUSH2 0x11D JUMPI DUP1 PUSH4 0xB88D4FDE EQ PUSH2 0x71D JUMPI DUP1 PUSH4 0xC1FAD42C EQ PUSH2 0x73D JUMPI DUP1 PUSH4 0xC26272A4 EQ PUSH2 0x753 JUMPI PUSH2 0x308 JUMP JUMPDEST DUP1 PUSH4 0xA22CB465 EQ PUSH2 0x6BC JUMPI DUP1 PUSH4 0xB455C5FE EQ PUSH2 0x6DC JUMPI DUP1 PUSH4 0xB6C65D38 EQ PUSH2 0x6FC JUMPI PUSH2 0x308 JUMP JUMPDEST DUP1 PUSH4 0x8DA5CB5B GT PUSH2 0x174 JUMPI DUP1 PUSH4 0x8DA5CB5B EQ PUSH2 0x669 JUMPI DUP1 PUSH4 0x95D89B41 EQ PUSH2 0x687 JUMPI DUP1 PUSH4 0x9A3CAC6A EQ PUSH2 0x69C JUMPI PUSH2 0x308 JUMP JUMPDEST DUP1 PUSH4 0x73C8C883 EQ PUSH2 0x609 JUMPI DUP1 PUSH4 0x7DE55FE1 EQ PUSH2 0x629 JUMPI DUP1 PUSH4 0x86292BB4 EQ PUSH2 0x649 JUMPI PUSH2 0x308 JUMP JUMPDEST DUP1 PUSH4 0x23B872DD GT PUSH2 0x25E JUMPI DUP1 PUSH4 0x42842E0E GT PUSH2 0x207 JUMPI DUP1 PUSH4 0x674D13C8 GT PUSH2 0x1E1 JUMPI DUP1 PUSH4 0x674D13C8 EQ PUSH2 0x5BF JUMPI DUP1 PUSH4 0x70A08231 EQ PUSH2 0x5D4 JUMPI DUP1 PUSH4 0x715018A6 EQ PUSH2 0x5F4 JUMPI PUSH2 0x308 JUMP JUMPDEST DUP1 PUSH4 0x42842E0E EQ PUSH2 0x552 JUMPI DUP1 PUSH4 0x621A1F74 EQ PUSH2 0x572 JUMPI DUP1 PUSH4 0x6352211E EQ PUSH2 0x59F JUMPI PUSH2 0x308 JUMP JUMPDEST DUP1 PUSH4 0x30176E13 GT PUSH2 0x238 JUMPI DUP1 PUSH4 0x30176E13 EQ PUSH2 0x50A JUMPI DUP1 PUSH4 0x3408E470 EQ PUSH2 0x52A JUMPI DUP1 PUSH4 0x3CCFD60B EQ PUSH2 0x53D JUMPI PUSH2 0x308 JUMP JUMPDEST DUP1 PUSH4 0x23B872DD EQ PUSH2 0x49E JUMPI DUP1 PUSH4 0x26A74D8E EQ PUSH2 0x4BE JUMPI DUP1 PUSH4 0x2D0335AB EQ PUSH2 0x4D4 JUMPI PUSH2 0x308 JUMP JUMPDEST DUP1 PUSH4 0xF7E5970 GT PUSH2 0x2C0 JUMPI DUP1 PUSH4 0x1EFBA6C2 GT PUSH2 0x29A JUMPI DUP1 PUSH4 0x1EFBA6C2 EQ PUSH2 0x453 JUMPI DUP1 PUSH4 0x20379EE5 EQ PUSH2 0x469 JUMPI DUP1 PUSH4 0x2131C68C EQ PUSH2 0x47E JUMPI PUSH2 0x308 JUMP JUMPDEST DUP1 PUSH4 0xF7E5970 EQ PUSH2 0x3D1 JUMPI DUP1 PUSH4 0x138A4E01 EQ PUSH2 0x41A JUMPI DUP1 PUSH4 0x18160DDD EQ PUSH2 0x43E JUMPI PUSH2 0x308 JUMP JUMPDEST DUP1 PUSH4 0x81812FC GT PUSH2 0x2F1 JUMPI DUP1 PUSH4 0x81812FC EQ PUSH2 0x364 JUMPI DUP1 PUSH4 0x95EA7B3 EQ PUSH2 0x39C JUMPI DUP1 PUSH4 0xC53C51C EQ PUSH2 0x3BE JUMPI PUSH2 0x308 JUMP JUMPDEST DUP1 PUSH4 0x1FFC9A7 EQ PUSH2 0x30D JUMPI DUP1 PUSH4 0x6FDDE03 EQ PUSH2 0x342 JUMPI JUMPDEST PUSH1 0x0 DUP1 REVERT JUMPDEST CALLVALUE DUP1 ISZERO PUSH2 0x319 JUMPI PUSH1 0x0 DUP1 REVERT JUMPDEST POP PUSH2 0x32D PUSH2 0x328 CALLDATASIZE PUSH1 0x4 PUSH2 0x2E65 JUMP JUMPDEST PUSH2 0x8C8 JUMP JUMPDEST PUSH1 0x40 MLOAD SWAP1 ISZERO ISZERO DUP2 MSTORE PUSH1 0x20 ADD JUMPDEST PUSH1 0x40 MLOAD DUP1 SWAP2 SUB SWAP1 RETURN JUMPDEST CALLVALUE DUP1 ISZERO PUSH2 0x34E JUMPI PUSH1 0x0 DUP1 REVERT JUMPDEST POP PUSH2 0x357 PUSH2 0x967 JUMP JUMPDEST PUSH1 0x40 MLOAD PUSH2 0x339 SWAP2 SWAP1 PUSH2 0x30CE JUMP JUMPDEST CALLVALUE DUP1 ISZERO PUSH2 0x370 JUMPI PUSH1 0x0 DUP1 REVERT JUMPDEST POP PUSH2 0x384 PUSH2 0x37F CALLDATASIZE PUSH1 0x4 PUSH2 0x2E4D JUMP JUMPDEST PUSH2 0x9FA JUMP JUMPDEST PUSH1 0x40 MLOAD PUSH1 0x1 PUSH1 0x1 PUSH1 0xA0 SHL SUB SWAP1 SWAP2 AND DUP2 MSTORE PUSH1 0x20 ADD PUSH2 0x339 JUMP JUMPDEST CALLVALUE DUP1 ISZERO PUSH2 0x3A8 JUMPI PUSH1 0x0 DUP1 REVERT JUMPDEST POP PUSH2 0x3BC PUSH2 0x3B7 CALLDATASIZE PUSH1 0x4 PUSH2 0x2D6B JUMP JUMPDEST PUSH2 0xA94 JUMP JUMPDEST STOP JUMPDEST PUSH2 0x357 PUSH2 0x3CC CALLDATASIZE PUSH1 0x4 PUSH2 0x2CF0 JUMP JUMPDEST PUSH2 0xBD8 JUMP JUMPDEST CALLVALUE DUP1 ISZERO PUSH2 0x3DD JUMPI PUSH1 0x0 DUP1 REVERT JUMPDEST POP PUSH2 0x357 PUSH1 0x40 MLOAD DUP1 PUSH1 0x40 ADD PUSH1 0x40 MSTORE DUP1 PUSH1 0x1 DUP2 MSTORE PUSH1 0x20 ADD PUSH32 0x3100000000000000000000000000000000000000000000000000000000000000 DUP2 MSTORE POP DUP2 JUMP JUMPDEST CALLVALUE DUP1 ISZERO PUSH2 0x426 JUMPI PUSH1 0x0 DUP1 REVERT JUMPDEST POP PUSH2 0x430 PUSH1 0xB SLOAD DUP2 JUMP JUMPDEST PUSH1 0x40 MLOAD SWAP1 DUP2 MSTORE PUSH1 0x20 ADD PUSH2 0x339 JUMP JUMPDEST CALLVALUE DUP1 ISZERO PUSH2 0x44A JUMPI PUSH1 0x0 DUP1 REVERT JUMPDEST POP PUSH2 0x430 PUSH2 0xDDE JUMP JUMPDEST CALLVALUE DUP1 ISZERO PUSH2 0x45F JUMPI PUSH1 0x0 DUP1 REVERT JUMPDEST POP PUSH2 0x430 PUSH1 0xF SLOAD DUP2 JUMP JUMPDEST CALLVALUE DUP1 ISZERO PUSH2 0x475 JUMPI PUSH1 0x0 DUP1 REVERT JUMPDEST POP PUSH1 0x7 SLOAD PUSH2 0x430 JUMP JUMPDEST CALLVALUE DUP1 ISZERO PUSH2 0x48A JUMPI PUSH1 0x0 DUP1 REVERT JUMPDEST POP PUSH1 0x10 SLOAD PUSH2 0x384 SWAP1 PUSH1 0x1 PUSH1 0x1 PUSH1 0xA0 SHL SUB AND DUP2 JUMP JUMPDEST CALLVALUE DUP1 ISZERO PUSH2 0x4AA JUMPI PUSH1 0x0 DUP1 REVERT JUMPDEST POP PUSH2 0x3BC PUSH2 0x4B9 CALLDATASIZE PUSH1 0x4 PUSH2 0x2C15 JUMP JUMPDEST PUSH2 0xDFB JUMP JUMPDEST CALLVALUE DUP1 ISZERO PUSH2 0x4CA JUMPI PUSH1 0x0 DUP1 REVERT JUMPDEST POP PUSH2 0x430 PUSH1 0xD SLOAD DUP2 JUMP JUMPDEST CALLVALUE DUP1 ISZERO PUSH2 0x4E0 JUMPI PUSH1 0x0 DUP1 REVERT JUMPDEST POP PUSH2 0x430 PUSH2 0x4EF CALLDATASIZE PUSH1 0x4 PUSH2 0x2BC1 JUMP JUMPDEST PUSH1 0x1 PUSH1 0x1 PUSH1 0xA0 SHL SUB AND PUSH1 0x0 SWAP1 DUP2 MSTORE PUSH1 0x8 PUSH1 0x20 MSTORE PUSH1 0x40 SWAP1 KECCAK256 SLOAD SWAP1 JUMP JUMPDEST CALLVALUE DUP1 ISZERO PUSH2 0x516 JUMPI PUSH1 0x0 DUP1 REVERT JUMPDEST POP PUSH2 0x3BC PUSH2 0x525 CALLDATASIZE PUSH1 0x4 PUSH2 0x2EB9 JUMP JUMPDEST PUSH2 0xE89 JUMP JUMPDEST CALLVALUE DUP1 ISZERO PUSH2 0x536 JUMPI PUSH1 0x0 DUP1 REVERT JUMPDEST POP CHAINID PUSH2 0x430 JUMP JUMPDEST CALLVALUE DUP1 ISZERO PUSH2 0x549 JUMPI PUSH1 0x0 DUP1 REVERT JUMPDEST POP PUSH2 0x3BC PUSH2 0xF07 JUMP JUMPDEST CALLVALUE DUP1 ISZERO PUSH2 0x55E JUMPI PUSH1 0x0 DUP1 REVERT JUMPDEST POP PUSH2 0x3BC PUSH2 0x56D CALLDATASIZE PUSH1 0x4 PUSH2 0x2C15 JUMP JUMPDEST PUSH2 0xF92 JUMP JUMPDEST CALLVALUE DUP1 ISZERO PUSH2 0x57E JUMPI PUSH1 0x0 DUP1 REVERT JUMPDEST POP PUSH2 0x430 PUSH2 0x58D CALLDATASIZE PUSH1 0x4 PUSH2 0x2E4D JUMP JUMPDEST PUSH1 0x15 PUSH1 0x20 MSTORE PUSH1 0x0 SWAP1 DUP2 MSTORE PUSH1 0x40 SWAP1 KECCAK256 SLOAD DUP2 JUMP JUMPDEST CALLVALUE DUP1 ISZERO PUSH2 0x5AB JUMPI PUSH1 0x0 DUP1 REVERT JUMPDEST POP PUSH2 0x384 PUSH2 0x5BA CALLDATASIZE PUSH1 0x4 PUSH2 0x2E4D JUMP JUMPDEST PUSH2 0xFAD JUMP JUMPDEST CALLVALUE DUP1 ISZERO PUSH2 0x5CB JUMPI PUSH1 0x0 DUP1 REVERT JUMPDEST POP PUSH2 0x430 PUSH2 0x1038 JUMP JUMPDEST CALLVALUE DUP1 ISZERO PUSH2 0x5E0 JUMPI PUSH1 0x0 DUP1 REVERT JUMPDEST POP PUSH2 0x430 PUSH2 0x5EF CALLDATASIZE PUSH1 0x4 PUSH2 0x2BC1 JUMP JUMPDEST PUSH2 0x1043 JUMP JUMPDEST CALLVALUE DUP1 ISZERO PUSH2 0x600 JUMPI PUSH1 0x0 DUP1 REVERT JUMPDEST POP PUSH2 0x3BC PUSH2 0x10DD JUMP JUMPDEST CALLVALUE DUP1 ISZERO PUSH2 0x615 JUMPI PUSH1 0x0 DUP1 REVERT JUMPDEST POP PUSH2 0x3BC PUSH2 0x624 CALLDATASIZE PUSH1 0x4 PUSH2 0x2E4D JUMP JUMPDEST PUSH2 0x1150 JUMP JUMPDEST CALLVALUE DUP1 ISZERO PUSH2 0x635 JUMPI PUSH1 0x0 DUP1 REVERT JUMPDEST POP PUSH2 0x3BC PUSH2 0x644 CALLDATASIZE PUSH1 0x4 PUSH2 0x2D6B JUMP JUMPDEST PUSH2 0x11BC JUMP JUMPDEST CALLVALUE DUP1 ISZERO PUSH2 0x655 JUMPI PUSH1 0x0 DUP1 REVERT JUMPDEST POP PUSH2 0x357 PUSH2 0x664 CALLDATASIZE PUSH1 0x4 PUSH2 0x2E4D JUMP JUMPDEST PUSH2 0x13A6 JUMP JUMPDEST CALLVALUE DUP1 ISZERO PUSH2 0x675 JUMPI PUSH1 0x0 DUP1 REVERT JUMPDEST POP PUSH1 0x9 SLOAD PUSH1 0x1 PUSH1 0x1 PUSH1 0xA0 SHL SUB AND PUSH2 0x384 JUMP JUMPDEST CALLVALUE DUP1 ISZERO PUSH2 0x693 JUMPI PUSH1 0x0 DUP1 REVERT JUMPDEST POP PUSH2 0x357 PUSH2 0x1440 JUMP JUMPDEST CALLVALUE DUP1 ISZERO PUSH2 0x6A8 JUMPI PUSH1 0x0 DUP1 REVERT JUMPDEST POP PUSH2 0x3BC PUSH2 0x6B7 CALLDATASIZE PUSH1 0x4 PUSH2 0x2BC1 JUMP JUMPDEST PUSH2 0x144F JUMP JUMPDEST CALLVALUE DUP1 ISZERO PUSH2 0x6C8 JUMPI PUSH1 0x0 DUP1 REVERT JUMPDEST POP PUSH2 0x3BC PUSH2 0x6D7 CALLDATASIZE PUSH1 0x4 PUSH2 0x2CBF JUMP JUMPDEST PUSH2 0x14D8 JUMP JUMPDEST CALLVALUE DUP1 ISZERO PUSH2 0x6E8 JUMPI PUSH1 0x0 DUP1 REVERT JUMPDEST POP PUSH2 0x3BC PUSH2 0x6F7 CALLDATASIZE PUSH1 0x4 PUSH2 0x2E4D JUMP JUMPDEST PUSH2 0x15DA JUMP JUMPDEST CALLVALUE DUP1 ISZERO PUSH2 0x708 JUMPI PUSH1 0x0 DUP1 REVERT JUMPDEST POP PUSH1 0xA SLOAD PUSH2 0x32D SWAP1 PUSH1 0x1 PUSH1 0xA0 SHL SWAP1 DIV PUSH1 0xFF AND DUP2 JUMP JUMPDEST CALLVALUE DUP1 ISZERO PUSH2 0x729 JUMPI PUSH1 0x0 DUP1 REVERT JUMPDEST POP PUSH2 0x3BC PUSH2 0x738 CALLDATASIZE PUSH1 0x4 PUSH2 0x2C55 JUMP JUMPDEST PUSH2 0x1646 JUMP JUMPDEST CALLVALUE DUP1 ISZERO PUSH2 0x749 JUMPI PUSH1 0x0 DUP1 REVERT JUMPDEST POP PUSH2 0x430 PUSH1 0xE SLOAD DUP2 JUMP JUMPDEST CALLVALUE DUP1 ISZERO PUSH2 0x75F JUMPI PUSH1 0x0 DUP1 REVERT JUMPDEST POP PUSH2 0x3BC PUSH2 0x76E CALLDATASIZE PUSH1 0x4 PUSH2 0x2D96 JUMP JUMPDEST PUSH2 0x16DB JUMP JUMPDEST CALLVALUE DUP1 ISZERO PUSH2 0x77F JUMPI PUSH1 0x0 DUP1 REVERT JUMPDEST POP PUSH2 0x357 PUSH2 0x78E CALLDATASIZE PUSH1 0x4 PUSH2 0x2E4D JUMP JUMPDEST PUSH2 0x1827 JUMP JUMPDEST CALLVALUE DUP1 ISZERO PUSH2 0x79F JUMPI PUSH1 0x0 DUP1 REVERT JUMPDEST POP PUSH1 0xA SLOAD PUSH2 0x384 SWAP1 PUSH1 0x1 PUSH1 0x1 PUSH1 0xA0 SHL SUB AND DUP2 JUMP JUMPDEST CALLVALUE DUP1 ISZERO PUSH2 0x7BF JUMPI PUSH1 0x0 DUP1 REVERT JUMPDEST POP PUSH2 0x3BC PUSH2 0x7CE CALLDATASIZE PUSH1 0x4 PUSH2 0x2BC1 JUMP JUMPDEST PUSH2 0x185B JUMP JUMPDEST CALLVALUE DUP1 ISZERO PUSH2 0x7DF JUMPI PUSH1 0x0 DUP1 REVERT JUMPDEST POP PUSH2 0x430 PUSH1 0xC SLOAD DUP2 JUMP JUMPDEST CALLVALUE DUP1 ISZERO PUSH2 0x7F5 JUMPI PUSH1 0x0 DUP1 REVERT JUMPDEST POP PUSH2 0x3BC PUSH2 0x18E4 JUMP JUMPDEST CALLVALUE DUP1 ISZERO PUSH2 0x80A JUMPI PUSH1 0x0 DUP1 REVERT JUMPDEST POP PUSH2 0x430 PUSH2 0x1987 JUMP JUMPDEST CALLVALUE DUP1 ISZERO PUSH2 0x81F JUMPI PUSH1 0x0 DUP1 REVERT JUMPDEST POP PUSH2 0x357 PUSH2 0x1992 JUMP JUMPDEST CALLVALUE DUP1 ISZERO PUSH2 0x834 JUMPI PUSH1 0x0 DUP1 REVERT JUMPDEST POP PUSH2 0x32D PUSH2 0x843 CALLDATASIZE PUSH1 0x4 PUSH2 0x2BDD JUMP JUMPDEST PUSH2 0x19B2 JUMP JUMPDEST PUSH2 0x3BC PUSH2 0x856 CALLDATASIZE PUSH1 0x4 PUSH2 0x2E4D JUMP JUMPDEST PUSH2 0x1A9D JUMP JUMPDEST CALLVALUE DUP1 ISZERO PUSH2 0x867 JUMPI PUSH1 0x0 DUP1 REVERT JUMPDEST POP PUSH2 0x3BC PUSH2 0x876 CALLDATASIZE PUSH1 0x4 PUSH2 0x2BC1 JUMP JUMPDEST PUSH2 0x1B61 JUMP JUMPDEST CALLVALUE DUP1 ISZERO PUSH2 0x887 JUMPI PUSH1 0x0 DUP1 REVERT JUMPDEST POP PUSH2 0x430 PUSH2 0x896 CALLDATASIZE PUSH1 0x4 PUSH2 0x2E4D JUMP JUMPDEST PUSH1 0x16 PUSH1 0x20 MSTORE PUSH1 0x0 SWAP1 DUP2 MSTORE PUSH1 0x40 SWAP1 KECCAK256 SLOAD DUP2 JUMP JUMPDEST CALLVALUE DUP1 ISZERO PUSH2 0x8B4 JUMPI PUSH1 0x0 DUP1 REVERT JUMPDEST POP PUSH2 0x3BC PUSH2 0x8C3 CALLDATASIZE PUSH1 0x4 PUSH2 0x2F04 JUMP JUMPDEST PUSH2 0x1C4D JUMP JUMPDEST PUSH1 0x0 PUSH1 0x1 PUSH1 0x1 PUSH1 0xE0 SHL SUB NOT DUP3 AND PUSH32 0x80AC58CD00000000000000000000000000000000000000000000000000000000 EQ DUP1 PUSH2 0x92B JUMPI POP PUSH1 0x1 PUSH1 0x1 PUSH1 0xE0 SHL SUB NOT DUP3 AND PUSH32 0x5B5E139F00000000000000000000000000000000000000000000000000000000 EQ JUMPDEST DUP1 PUSH2 0x95F JUMPI POP PUSH32 0x1FFC9A700000000000000000000000000000000000000000000000000000000 PUSH1 0x1 PUSH1 0x1 PUSH1 0xE0 SHL SUB NOT DUP4 AND EQ JUMPDEST SWAP1 POP JUMPDEST SWAP2 SWAP1 POP JUMP JUMPDEST PUSH1 0x60 PUSH1 0x0 DUP1 SLOAD PUSH2 0x976 SWAP1 PUSH2 0x31C4 JUMP JUMPDEST DUP1 PUSH1 0x1F ADD PUSH1 0x20 DUP1 SWAP2 DIV MUL PUSH1 0x20 ADD PUSH1 0x40 MLOAD SWAP1 DUP2 ADD PUSH1 0x40 MSTORE DUP1 SWAP3 SWAP2 SWAP1 DUP2 DUP2 MSTORE PUSH1 0x20 ADD DUP3 DUP1 SLOAD PUSH2 0x9A2 SWAP1 PUSH2 0x31C4 JUMP JUMPDEST DUP1 ISZERO PUSH2 0x9EF JUMPI DUP1 PUSH1 0x1F LT PUSH2 0x9C4 JUMPI PUSH2 0x100 DUP1 DUP4 SLOAD DIV MUL DUP4 MSTORE SWAP2 PUSH1 0x20 ADD SWAP2 PUSH2 0x9EF JUMP JUMPDEST DUP3 ADD SWAP2 SWAP1 PUSH1 0x0 MSTORE PUSH1 0x20 PUSH1 0x0 KECCAK256 SWAP1 JUMPDEST DUP2 SLOAD DUP2 MSTORE SWAP1 PUSH1 0x1 ADD SWAP1 PUSH1 0x20 ADD DUP1 DUP4 GT PUSH2 0x9D2 JUMPI DUP3 SWAP1 SUB PUSH1 0x1F AND DUP3 ADD SWAP2 JUMPDEST POP POP POP POP POP SWAP1 POP JUMPDEST SWAP1 JUMP JUMPDEST PUSH1 0x0 DUP2 DUP2 MSTORE PUSH1 0x2 PUSH1 0x20 MSTORE PUSH1 0x40 DUP2 KECCAK256 SLOAD PUSH1 0x1 PUSH1 0x1 PUSH1 0xA0 SHL SUB AND PUSH2 0xA78 JUMPI PUSH1 0x40 MLOAD PUSH3 0x461BCD PUSH1 0xE5 SHL DUP2 MSTORE PUSH1 0x20 PUSH1 0x4 DUP3 ADD MSTORE PUSH1 0x2C PUSH1 0x24 DUP3 ADD MSTORE PUSH32 0x4552433732313A20617070726F76656420717565727920666F72206E6F6E6578 PUSH1 0x44 DUP3 ADD MSTORE PUSH12 0x34B9BA32B73A103A37B5B2B7 PUSH1 0xA1 SHL PUSH1 0x64 DUP3 ADD MSTORE PUSH1 0x84 ADD JUMPDEST PUSH1 0x40 MLOAD DUP1 SWAP2 SUB SWAP1 REVERT JUMPDEST POP PUSH1 0x0 SWAP1 DUP2 MSTORE PUSH1 0x4 PUSH1 0x20 MSTORE PUSH1 0x40 SWAP1 KECCAK256 SLOAD PUSH1 0x1 PUSH1 0x1 PUSH1 0xA0 SHL SUB AND SWAP1 JUMP JUMPDEST PUSH1 0x0 PUSH2 0xA9F DUP3 PUSH2 0xFAD JUMP JUMPDEST SWAP1 POP DUP1 PUSH1 0x1 PUSH1 0x1 PUSH1 0xA0 SHL SUB AND DUP4 PUSH1 0x1 PUSH1 0x1 PUSH1 0xA0 SHL SUB AND EQ ISZERO PUSH2 0xB29 JUMPI PUSH1 0x40 MLOAD PUSH3 0x461BCD PUSH1 0xE5 SHL DUP2 MSTORE PUSH1 0x20 PUSH1 0x4 DUP3 ADD MSTORE PUSH1 0x21 PUSH1 0x24 DUP3 ADD MSTORE PUSH32 0x4552433732313A20617070726F76616C20746F2063757272656E74206F776E65 PUSH1 0x44 DUP3 ADD MSTORE PUSH32 0x7200000000000000000000000000000000000000000000000000000000000000 PUSH1 0x64 DUP3 ADD MSTORE PUSH1 0x84 ADD PUSH2 0xA6F JUMP JUMPDEST DUP1 PUSH1 0x1 PUSH1 0x1 PUSH1 0xA0 SHL SUB AND PUSH2 0xB3B PUSH2 0x1D2B JUMP JUMPDEST PUSH1 0x1 PUSH1 0x1 PUSH1 0xA0 SHL SUB AND EQ DUP1 PUSH2 0xB57 JUMPI POP PUSH2 0xB57 DUP2 PUSH2 0x843 PUSH2 0x1D2B JUMP JUMPDEST PUSH2 0xBC9 JUMPI PUSH1 0x40 MLOAD PUSH3 0x461BCD PUSH1 0xE5 SHL DUP2 MSTORE PUSH1 0x20 PUSH1 0x4 DUP3 ADD MSTORE PUSH1 0x38 PUSH1 0x24 DUP3 ADD MSTORE PUSH32 0x4552433732313A20617070726F76652063616C6C6572206973206E6F74206F77 PUSH1 0x44 DUP3 ADD MSTORE PUSH32 0x6E6572206E6F7220617070726F76656420666F7220616C6C0000000000000000 PUSH1 0x64 DUP3 ADD MSTORE PUSH1 0x84 ADD PUSH2 0xA6F JUMP JUMPDEST PUSH2 0xBD3 DUP4 DUP4 PUSH2 0x1D35 JUMP JUMPDEST POP POP POP JUMP JUMPDEST PUSH1 0x40 DUP1 MLOAD PUSH1 0x60 DUP2 DUP2 ADD DUP4 MSTORE PUSH1 0x1 PUSH1 0x1 PUSH1 0xA0 SHL SUB DUP9 AND PUSH1 0x0 DUP2 DUP2 MSTORE PUSH1 0x8 PUSH1 0x20 SWAP1 DUP2 MSTORE SWAP1 DUP6 SWAP1 KECCAK256 SLOAD DUP5 MSTORE DUP4 ADD MSTORE SWAP2 DUP2 ADD DUP7 SWAP1 MSTORE PUSH2 0xC16 DUP8 DUP3 DUP8 DUP8 DUP8 PUSH2 0x1DA3 JUMP JUMPDEST PUSH2 0xC88 JUMPI PUSH1 0x40 MLOAD PUSH3 0x461BCD PUSH1 0xE5 SHL DUP2 MSTORE PUSH1 0x20 PUSH1 0x4 DUP3 ADD MSTORE PUSH1 0x21 PUSH1 0x24 DUP3 ADD MSTORE PUSH32 0x5369676E657220616E64207369676E617475726520646F206E6F74206D617463 PUSH1 0x44 DUP3 ADD MSTORE PUSH32 0x6800000000000000000000000000000000000000000000000000000000000000 PUSH1 0x64 DUP3 ADD MSTORE PUSH1 0x84 ADD PUSH2 0xA6F JUMP JUMPDEST PUSH1 0x1 PUSH1 0x1 PUSH1 0xA0 SHL SUB DUP8 AND PUSH1 0x0 SWAP1 DUP2 MSTORE PUSH1 0x8 PUSH1 0x20 MSTORE PUSH1 0x40 SWAP1 KECCAK256 SLOAD PUSH2 0xCAC SWAP1 PUSH1 0x1 PUSH2 0x1EAB JUMP JUMPDEST PUSH1 0x1 PUSH1 0x1 PUSH1 0xA0 SHL SUB DUP9 AND PUSH1 0x0 SWAP1 DUP2 MSTORE PUSH1 0x8 PUSH1 0x20 MSTORE PUSH1 0x40 SWAP1 DUP2 SWAP1 KECCAK256 SWAP2 SWAP1 SWAP2 SSTORE MLOAD PUSH32 0x5845892132946850460BFF5A0083F71031BC5BF9AADCD40F1DE79423EAC9B10B SWAP1 PUSH2 0xCFC SWAP1 DUP10 SWAP1 CALLER SWAP1 DUP11 SWAP1 PUSH2 0x3066 JUMP JUMPDEST PUSH1 0x40 MLOAD DUP1 SWAP2 SUB SWAP1 LOG1 PUSH1 0x0 DUP1 ADDRESS PUSH1 0x1 PUSH1 0x1 PUSH1 0xA0 SHL SUB AND DUP9 DUP11 PUSH1 0x40 MLOAD PUSH1 0x20 ADD PUSH2 0xD24 SWAP3 SWAP2 SWAP1 PUSH2 0x2F89 JUMP JUMPDEST PUSH1 0x40 DUP1 MLOAD PUSH1 0x1F NOT DUP2 DUP5 SUB ADD DUP2 MSTORE SWAP1 DUP3 SWAP1 MSTORE PUSH2 0xD3E SWAP2 PUSH2 0x2F6D JUMP JUMPDEST PUSH1 0x0 PUSH1 0x40 MLOAD DUP1 DUP4 SUB DUP2 PUSH1 0x0 DUP7 GAS CALL SWAP2 POP POP RETURNDATASIZE DUP1 PUSH1 0x0 DUP2 EQ PUSH2 0xD7B JUMPI PUSH1 0x40 MLOAD SWAP2 POP PUSH1 0x1F NOT PUSH1 0x3F RETURNDATASIZE ADD AND DUP3 ADD PUSH1 0x40 MSTORE RETURNDATASIZE DUP3 MSTORE RETURNDATASIZE PUSH1 0x0 PUSH1 0x20 DUP5 ADD RETURNDATACOPY PUSH2 0xD80 JUMP JUMPDEST PUSH1 0x60 SWAP2 POP JUMPDEST POP SWAP2 POP SWAP2 POP DUP2 PUSH2 0xDD2 JUMPI PUSH1 0x40 MLOAD PUSH3 0x461BCD PUSH1 0xE5 SHL DUP2 MSTORE PUSH1 0x20 PUSH1 0x4 DUP3 ADD MSTORE PUSH1 0x1C PUSH1 0x24 DUP3 ADD MSTORE PUSH32 0x46756E6374696F6E2063616C6C206E6F74207375636365737366756C00000000 PUSH1 0x44 DUP3 ADD MSTORE PUSH1 0x64 ADD PUSH2 0xA6F JUMP JUMPDEST SWAP9 SWAP8 POP POP POP POP POP POP POP POP JUMP JUMPDEST PUSH1 0x0 PUSH2 0xDE9 PUSH1 0x13 SLOAD SWAP1 JUMP JUMPDEST PUSH1 0x12 SLOAD PUSH2 0xDF6 SWAP2 SWAP1 PUSH2 0x3136 JUMP JUMPDEST SWAP1 POP SWAP1 JUMP JUMPDEST PUSH2 0xE0C PUSH2 0xE06 PUSH2 0x1D2B JUMP JUMPDEST DUP3 PUSH2 0x1EBE JUMP JUMPDEST PUSH2 0xE7E JUMPI PUSH1 0x40 MLOAD PUSH3 0x461BCD PUSH1 0xE5 SHL DUP2 MSTORE PUSH1 0x20 PUSH1 0x4 DUP3 ADD MSTORE PUSH1 0x31 PUSH1 0x24 DUP3 ADD MSTORE PUSH32 0x4552433732313A207472616E736665722063616C6C6572206973206E6F74206F PUSH1 0x44 DUP3 ADD MSTORE PUSH32 0x776E6572206E6F7220617070726F766564000000000000000000000000000000 PUSH1 0x64 DUP3 ADD MSTORE PUSH1 0x84 ADD PUSH2 0xA6F JUMP JUMPDEST PUSH2 0xBD3 DUP4 DUP4 DUP4 PUSH2 0x1F8D JUMP JUMPDEST PUSH2 0xE91 PUSH2 0x1D2B JUMP JUMPDEST PUSH1 0x1 PUSH1 0x1 PUSH1 0xA0 SHL SUB AND PUSH2 0xEAC PUSH1 0x9 SLOAD PUSH1 0x1 PUSH1 0x1 PUSH1 0xA0 SHL SUB AND SWAP1 JUMP JUMPDEST PUSH1 0x1 PUSH1 0x1 PUSH1 0xA0 SHL SUB AND EQ PUSH2 0xEF0 JUMPI PUSH1 0x40 MLOAD PUSH3 0x461BCD PUSH1 0xE5 SHL DUP2 MSTORE PUSH1 0x20 PUSH1 0x4 DUP3 ADD DUP2 SWAP1 MSTORE PUSH1 0x24 DUP3 ADD MSTORE PUSH1 0x0 DUP1 MLOAD PUSH1 0x20 PUSH2 0x330C DUP4 CODECOPY DUP2 MLOAD SWAP2 MSTORE PUSH1 0x44 DUP3 ADD MSTORE PUSH1 0x64 ADD PUSH2 0xA6F JUMP JUMPDEST DUP1 MLOAD PUSH2 0xF03 SWAP1 PUSH1 0x11 SWAP1 PUSH1 0x20 DUP5 ADD SWAP1 PUSH2 0x2A56 JUMP JUMPDEST POP POP JUMP JUMPDEST PUSH2 0xF0F PUSH2 0x1D2B JUMP JUMPDEST PUSH1 0x1 PUSH1 0x1 PUSH1 0xA0 SHL SUB AND PUSH2 0xF2A PUSH1 0x9 SLOAD PUSH1 0x1 PUSH1 0x1 PUSH1 0xA0 SHL SUB AND SWAP1 JUMP JUMPDEST PUSH1 0x1 PUSH1 0x1 PUSH1 0xA0 SHL SUB AND EQ PUSH2 0xF6E JUMPI PUSH1 0x40 MLOAD PUSH3 0x461BCD PUSH1 0xE5 SHL DUP2 MSTORE PUSH1 0x20 PUSH1 0x4 DUP3 ADD DUP2 SWAP1 MSTORE PUSH1 0x24 DUP3 ADD MSTORE PUSH1 0x0 DUP1 MLOAD PUSH1 0x20 PUSH2 0x330C DUP4 CODECOPY DUP2 MLOAD SWAP2 MSTORE PUSH1 0x44 DUP3 ADD MSTORE PUSH1 0x64 ADD PUSH2 0xA6F JUMP JUMPDEST SELFBALANCE DUP1 PUSH2 0xF79 JUMPI PUSH1 0x0 DUP1 REVERT JUMPDEST PUSH1 0x10 SLOAD PUSH2 0xF8F SWAP1 PUSH1 0x1 PUSH1 0x1 PUSH1 0xA0 SHL SUB AND DUP3 PUSH2 0x215A JUMP JUMPDEST POP JUMP JUMPDEST PUSH2 0xBD3 DUP4 DUP4 DUP4 PUSH1 0x40 MLOAD DUP1 PUSH1 0x20 ADD PUSH1 0x40 MSTORE DUP1 PUSH1 0x0 DUP2 MSTORE POP PUSH2 0x1646 JUMP JUMPDEST PUSH1 0x0 DUP2 DUP2 MSTORE PUSH1 0x2 PUSH1 0x20 MSTORE PUSH1 0x40 DUP2 KECCAK256 SLOAD PUSH1 0x1 PUSH1 0x1 PUSH1 0xA0 SHL SUB AND DUP1 PUSH2 0x95F JUMPI PUSH1 0x40 MLOAD PUSH3 0x461BCD PUSH1 0xE5 SHL DUP2 MSTORE PUSH1 0x20 PUSH1 0x4 DUP3 ADD MSTORE PUSH1 0x29 PUSH1 0x24 DUP3 ADD MSTORE PUSH32 0x4552433732313A206F776E657220717565727920666F72206E6F6E6578697374 PUSH1 0x44 DUP3 ADD MSTORE PUSH32 0x656E7420746F6B656E0000000000000000000000000000000000000000000000 PUSH1 0x64 DUP3 ADD MSTORE PUSH1 0x84 ADD PUSH2 0xA6F JUMP JUMPDEST PUSH1 0x0 PUSH2 0xDF6 PUSH1 0x13 SLOAD SWAP1 JUMP JUMPDEST PUSH1 0x0 PUSH1 0x1 PUSH1 0x1 PUSH1 0xA0 SHL SUB DUP3 AND PUSH2 0x10C1 JUMPI PUSH1 0x40 MLOAD PUSH3 0x461BCD PUSH1 0xE5 SHL DUP2 MSTORE PUSH1 0x20 PUSH1 0x4 DUP3 ADD MSTORE PUSH1 0x2A PUSH1 0x24 DUP3 ADD MSTORE PUSH32 0x4552433732313A2062616C616E636520717565727920666F7220746865207A65 PUSH1 0x44 DUP3 ADD MSTORE PUSH32 0x726F206164647265737300000000000000000000000000000000000000000000 PUSH1 0x64 DUP3 ADD MSTORE PUSH1 0x84 ADD PUSH2 0xA6F JUMP JUMPDEST POP PUSH1 0x1 PUSH1 0x1 PUSH1 0xA0 SHL SUB AND PUSH1 0x0 SWAP1 DUP2 MSTORE PUSH1 0x3 PUSH1 0x20 MSTORE PUSH1 0x40 SWAP1 KECCAK256 SLOAD SWAP1 JUMP JUMPDEST PUSH2 0x10E5 PUSH2 0x1D2B JUMP JUMPDEST PUSH1 0x1 PUSH1 0x1 PUSH1 0xA0 SHL SUB AND PUSH2 0x1100 PUSH1 0x9 SLOAD PUSH1 0x1 PUSH1 0x1 PUSH1 0xA0 SHL SUB AND SWAP1 JUMP JUMPDEST PUSH1 0x1 PUSH1 0x1 PUSH1 0xA0 SHL SUB AND EQ PUSH2 0x1144 JUMPI PUSH1 0x40 MLOAD PUSH3 0x461BCD PUSH1 0xE5 SHL DUP2 MSTORE PUSH1 0x20 PUSH1 0x4 DUP3 ADD DUP2 SWAP1 MSTORE PUSH1 0x24 DUP3 ADD MSTORE PUSH1 0x0 DUP1 MLOAD PUSH1 0x20 PUSH2 0x330C DUP4 CODECOPY DUP2 MLOAD SWAP2 MSTORE PUSH1 0x44 DUP3 ADD MSTORE PUSH1 0x64 ADD PUSH2 0xA6F JUMP JUMPDEST PUSH2 0x114E PUSH1 0x0 PUSH2 0x21FD JUMP JUMPDEST JUMP JUMPDEST PUSH2 0x1158 PUSH2 0x1D2B JUMP JUMPDEST PUSH1 0x1 PUSH1 0x1 PUSH1 0xA0 SHL SUB AND PUSH2 0x1173 PUSH1 0x9 SLOAD PUSH1 0x1 PUSH1 0x1 PUSH1 0xA0 SHL SUB AND SWAP1 JUMP JUMPDEST PUSH1 0x1 PUSH1 0x1 PUSH1 0xA0 SHL SUB AND EQ PUSH2 0x11B7 JUMPI PUSH1 0x40 MLOAD PUSH3 0x461BCD PUSH1 0xE5 SHL DUP2 MSTORE PUSH1 0x20 PUSH1 0x4 DUP3 ADD DUP2 SWAP1 MSTORE PUSH1 0x24 DUP3 ADD MSTORE PUSH1 0x0 DUP1 MLOAD PUSH1 0x20 PUSH2 0x330C DUP4 CODECOPY DUP2 MLOAD SWAP2 MSTORE PUSH1 0x44 DUP3 ADD MSTORE PUSH1 0x64 ADD PUSH2 0xA6F JUMP JUMPDEST PUSH1 0xF SSTORE JUMP JUMPDEST PUSH2 0x11C4 PUSH2 0x1D2B JUMP JUMPDEST PUSH1 0x1 PUSH1 0x1 PUSH1 0xA0 SHL SUB AND PUSH2 0x11DF PUSH1 0x9 SLOAD PUSH1 0x1 PUSH1 0x1 PUSH1 0xA0 SHL SUB AND SWAP1 JUMP JUMPDEST PUSH1 0x1 PUSH1 0x1 PUSH1 0xA0 SHL SUB AND EQ PUSH2 0x1223 JUMPI PUSH1 0x40 MLOAD PUSH3 0x461BCD PUSH1 0xE5 SHL DUP2 MSTORE PUSH1 0x20 PUSH1 0x4 DUP3 ADD DUP2 SWAP1 MSTORE PUSH1 0x24 DUP3 ADD MSTORE PUSH1 0x0 DUP1 MLOAD PUSH1 0x20 PUSH2 0x330C DUP4 CODECOPY DUP2 MLOAD SWAP2 MSTORE PUSH1 0x44 DUP3 ADD MSTORE PUSH1 0x64 ADD PUSH2 0xA6F JUMP JUMPDEST PUSH1 0xE SLOAD DUP2 PUSH2 0x1230 PUSH1 0x13 SLOAD SWAP1 JUMP JUMPDEST PUSH2 0x123A SWAP2 SWAP1 PUSH2 0x3136 JUMP JUMPDEST GT ISZERO PUSH2 0x1288 JUMPI PUSH1 0x40 MLOAD PUSH3 0x461BCD PUSH1 0xE5 SHL DUP2 MSTORE PUSH1 0x20 PUSH1 0x4 DUP3 ADD MSTORE PUSH1 0x12 PUSH1 0x24 DUP3 ADD MSTORE PUSH32 0x4D617820737570706C7920726561636865640000000000000000000000000000 PUSH1 0x44 DUP3 ADD MSTORE PUSH1 0x64 ADD PUSH2 0xA6F JUMP JUMPDEST PUSH1 0x0 JUMPDEST DUP2 DUP2 LT ISZERO PUSH2 0xBD3 JUMPI PUSH2 0x12A1 PUSH1 0x13 DUP1 SLOAD PUSH1 0x1 ADD SWAP1 SSTORE JUMP JUMPDEST PUSH2 0x131A ADDRESS PUSH1 0x1 PUSH1 0x1 PUSH1 0xA0 SHL SUB AND PUSH4 0x18160DDD PUSH1 0x40 MLOAD DUP2 PUSH4 0xFFFFFFFF AND PUSH1 0xE0 SHL DUP2 MSTORE PUSH1 0x4 ADD PUSH1 0x20 PUSH1 0x40 MLOAD DUP1 DUP4 SUB DUP2 DUP7 DUP1 EXTCODESIZE ISZERO DUP1 ISZERO PUSH2 0x12DD JUMPI PUSH1 0x0 DUP1 REVERT JUMPDEST POP GAS STATICCALL ISZERO DUP1 ISZERO PUSH2 0x12F1 JUMPI RETURNDATASIZE PUSH1 0x0 DUP1 RETURNDATACOPY RETURNDATASIZE PUSH1 0x0 REVERT JUMPDEST POP POP POP POP PUSH1 0x40 MLOAD RETURNDATASIZE PUSH1 0x1F NOT PUSH1 0x1F DUP3 ADD AND DUP3 ADD DUP1 PUSH1 0x40 MSTORE POP DUP2 ADD SWAP1 PUSH2 0x1315 SWAP2 SWAP1 PUSH2 0x2EEC JUMP JUMPDEST PUSH2 0x224F JUMP JUMPDEST PUSH2 0x1394 DUP4 ADDRESS PUSH1 0x1 PUSH1 0x1 PUSH1 0xA0 SHL SUB AND PUSH4 0x18160DDD PUSH1 0x40 MLOAD DUP2 PUSH4 0xFFFFFFFF AND PUSH1 0xE0 SHL DUP2 MSTORE PUSH1 0x4 ADD PUSH1 0x20 PUSH1 0x40 MLOAD DUP1 DUP4 SUB DUP2 DUP7 DUP1 EXTCODESIZE ISZERO DUP1 ISZERO PUSH2 0x1357 JUMPI PUSH1 0x0 DUP1 REVERT JUMPDEST POP GAS STATICCALL ISZERO DUP1 ISZERO PUSH2 0x136B JUMPI RETURNDATASIZE PUSH1 0x0 DUP1 RETURNDATACOPY RETURNDATASIZE PUSH1 0x0 REVERT JUMPDEST POP POP POP POP PUSH1 0x40 MLOAD RETURNDATASIZE PUSH1 0x1F NOT PUSH1 0x1F DUP3 ADD AND DUP3 ADD DUP1 PUSH1 0x40 MSTORE POP DUP2 ADD SWAP1 PUSH2 0x138F SWAP2 SWAP1 PUSH2 0x2EEC JUMP JUMPDEST PUSH2 0x227D JUMP JUMPDEST DUP1 PUSH2 0x139E DUP2 PUSH2 0x31FF JUMP JUMPDEST SWAP2 POP POP PUSH2 0x128B JUMP JUMPDEST PUSH1 0x14 PUSH1 0x20 MSTORE PUSH1 0x0 SWAP1 DUP2 MSTORE PUSH1 0x40 SWAP1 KECCAK256 DUP1 SLOAD PUSH2 0x13BF SWAP1 PUSH2 0x31C4 JUMP JUMPDEST DUP1 PUSH1 0x1F ADD PUSH1 0x20 DUP1 SWAP2 DIV MUL PUSH1 0x20 ADD PUSH1 0x40 MLOAD SWAP1 DUP2 ADD PUSH1 0x40 MSTORE DUP1 SWAP3 SWAP2 SWAP1 DUP2 DUP2 MSTORE PUSH1 0x20 ADD DUP3 DUP1 SLOAD PUSH2 0x13EB SWAP1 PUSH2 0x31C4 JUMP JUMPDEST DUP1 ISZERO PUSH2 0x1438 JUMPI DUP1 PUSH1 0x1F LT PUSH2 0x140D JUMPI PUSH2 0x100 DUP1 DUP4 SLOAD DIV MUL DUP4 MSTORE SWAP2 PUSH1 0x20 ADD SWAP2 PUSH2 0x1438 JUMP JUMPDEST DUP3 ADD SWAP2 SWAP1 PUSH1 0x0 MSTORE PUSH1 0x20 PUSH1 0x0 KECCAK256 SWAP1 JUMPDEST DUP2 SLOAD DUP2 MSTORE SWAP1 PUSH1 0x1 ADD SWAP1 PUSH1 0x20 ADD DUP1 DUP4 GT PUSH2 0x141B JUMPI DUP3 SWAP1 SUB PUSH1 0x1F AND DUP3 ADD SWAP2 JUMPDEST POP POP POP POP POP DUP2 JUMP JUMPDEST PUSH1 0x60 PUSH1 0x1 DUP1 SLOAD PUSH2 0x976 SWAP1 PUSH2 0x31C4 JUMP JUMPDEST PUSH2 0x1457 PUSH2 0x1D2B JUMP JUMPDEST PUSH1 0x1 PUSH1 0x1 PUSH1 0xA0 SHL SUB AND PUSH2 0x1472 PUSH1 0x9 SLOAD PUSH1 0x1 PUSH1 0x1 PUSH1 0xA0 SHL SUB AND SWAP1 JUMP JUMPDEST PUSH1 0x1 PUSH1 0x1 PUSH1 0xA0 SHL SUB AND EQ PUSH2 0x14B6 JUMPI PUSH1 0x40 MLOAD PUSH3 0x461BCD PUSH1 0xE5 SHL DUP2 MSTORE PUSH1 0x20 PUSH1 0x4 DUP3 ADD DUP2 SWAP1 MSTORE PUSH1 0x24 DUP3 ADD MSTORE PUSH1 0x0 DUP1 MLOAD PUSH1 0x20 PUSH2 0x330C DUP4 CODECOPY DUP2 MLOAD SWAP2 MSTORE PUSH1 0x44 DUP3 ADD MSTORE PUSH1 0x64 ADD PUSH2 0xA6F JUMP JUMPDEST PUSH1 0x10 DUP1 SLOAD PUSH1 0x1 PUSH1 0x1 PUSH1 0xA0 SHL SUB NOT AND PUSH1 0x1 PUSH1 0x1 PUSH1 0xA0 SHL SUB SWAP3 SWAP1 SWAP3 AND SWAP2 SWAP1 SWAP2 OR SWAP1 SSTORE JUMP JUMPDEST PUSH2 0x14E0 PUSH2 0x1D2B JUMP JUMPDEST PUSH1 0x1 PUSH1 0x1 PUSH1 0xA0 SHL SUB AND DUP3 PUSH1 0x1 PUSH1 0x1 PUSH1 0xA0 SHL SUB AND EQ ISZERO PUSH2 0x1541 JUMPI PUSH1 0x40 MLOAD PUSH3 0x461BCD PUSH1 0xE5 SHL DUP2 MSTORE PUSH1 0x20 PUSH1 0x4 DUP3 ADD MSTORE PUSH1 0x19 PUSH1 0x24 DUP3 ADD MSTORE PUSH32 0x4552433732313A20617070726F766520746F2063616C6C657200000000000000 PUSH1 0x44 DUP3 ADD MSTORE PUSH1 0x64 ADD PUSH2 0xA6F JUMP JUMPDEST DUP1 PUSH1 0x5 PUSH1 0x0 PUSH2 0x154E PUSH2 0x1D2B JUMP JUMPDEST PUSH1 0x1 PUSH1 0x1 PUSH1 0xA0 SHL SUB SWAP1 DUP2 AND DUP3 MSTORE PUSH1 0x20 DUP1 DUP4 ADD SWAP4 SWAP1 SWAP4 MSTORE PUSH1 0x40 SWAP2 DUP3 ADD PUSH1 0x0 SWAP1 DUP2 KECCAK256 SWAP2 DUP8 AND DUP1 DUP3 MSTORE SWAP2 SWAP1 SWAP4 MSTORE SWAP2 KECCAK256 DUP1 SLOAD PUSH1 0xFF NOT AND SWAP3 ISZERO ISZERO SWAP3 SWAP1 SWAP3 OR SWAP1 SWAP2 SSTORE PUSH2 0x1592 PUSH2 0x1D2B JUMP JUMPDEST PUSH1 0x1 PUSH1 0x1 PUSH1 0xA0 SHL SUB AND PUSH32 0x17307EAB39AB6107E8899845AD3D59BD9653F200F220920489CA2B5937696C31 DUP4 PUSH1 0x40 MLOAD PUSH2 0x15CE SWAP2 ISZERO ISZERO DUP2 MSTORE PUSH1 0x20 ADD SWAP1 JUMP JUMPDEST PUSH1 0x40 MLOAD DUP1 SWAP2 SUB SWAP1 LOG3 POP POP JUMP JUMPDEST PUSH2 0x15E2 PUSH2 0x1D2B JUMP JUMPDEST PUSH1 0x1 PUSH1 0x1 PUSH1 0xA0 SHL SUB AND PUSH2 0x15FD PUSH1 0x9 SLOAD PUSH1 0x1 PUSH1 0x1 PUSH1 0xA0 SHL SUB AND SWAP1 JUMP JUMPDEST PUSH1 0x1 PUSH1 0x1 PUSH1 0xA0 SHL SUB AND EQ PUSH2 0x1641 JUMPI PUSH1 0x40 MLOAD PUSH3 0x461BCD PUSH1 0xE5 SHL DUP2 MSTORE PUSH1 0x20 PUSH1 0x4 DUP3 ADD DUP2 SWAP1 MSTORE PUSH1 0x24 DUP3 ADD MSTORE PUSH1 0x0 DUP1 MLOAD PUSH1 0x20 PUSH2 0x330C DUP4 CODECOPY DUP2 MLOAD SWAP2 MSTORE PUSH1 0x44 DUP3 ADD MSTORE PUSH1 0x64 ADD PUSH2 0xA6F JUMP JUMPDEST PUSH1 0xB SSTORE JUMP JUMPDEST PUSH2 0x1657 PUSH2 0x1651 PUSH2 0x1D2B JUMP JUMPDEST DUP4 PUSH2 0x1EBE JUMP JUMPDEST PUSH2 0x16C9 JUMPI PUSH1 0x40 MLOAD PUSH3 0x461BCD PUSH1 0xE5 SHL DUP2 MSTORE PUSH1 0x20 PUSH1 0x4 DUP3 ADD MSTORE PUSH1 0x31 PUSH1 0x24 DUP3 ADD MSTORE PUSH32 0x4552433732313A207472616E736665722063616C6C6572206973206E6F74206F PUSH1 0x44 DUP3 ADD MSTORE PUSH32 0x776E6572206E6F7220617070726F766564000000000000000000000000000000 PUSH1 0x64 DUP3 ADD MSTORE PUSH1 0x84 ADD PUSH2 0xA6F JUMP JUMPDEST PUSH2 0x16D5 DUP5 DUP5 DUP5 DUP5 PUSH2 0x2297 JUMP JUMPDEST POP POP POP POP JUMP JUMPDEST PUSH2 0x16E3 PUSH2 0x1D2B JUMP JUMPDEST PUSH1 0x1 PUSH1 0x1 PUSH1 0xA0 SHL SUB AND PUSH2 0x16FE PUSH1 0x9 SLOAD PUSH1 0x1 PUSH1 0x1 PUSH1 0xA0 SHL SUB AND SWAP1 JUMP JUMPDEST PUSH1 0x1 PUSH1 0x1 PUSH1 0xA0 SHL SUB AND EQ PUSH2 0x1742 JUMPI PUSH1 0x40 MLOAD PUSH3 0x461BCD PUSH1 0xE5 SHL DUP2 MSTORE PUSH1 0x20 PUSH1 0x4 DUP3 ADD DUP2 SWAP1 MSTORE PUSH1 0x24 DUP3 ADD MSTORE PUSH1 0x0 DUP1 MLOAD PUSH1 0x20 PUSH2 0x330C DUP4 CODECOPY DUP2 MLOAD SWAP2 MSTORE PUSH1 0x44 DUP3 ADD MSTORE PUSH1 0x64 ADD PUSH2 0xA6F JUMP JUMPDEST DUP1 MLOAD DUP3 MLOAD EQ PUSH2 0x1793 JUMPI PUSH1 0x40 MLOAD PUSH3 0x461BCD PUSH1 0xE5 SHL DUP2 MSTORE PUSH1 0x20 PUSH1 0x4 DUP3 ADD MSTORE PUSH1 0x1B PUSH1 0x24 DUP3 ADD MSTORE PUSH32 0x4172726179206C656E677468732061726520646966666572656E740000000000 PUSH1 0x44 DUP3 ADD MSTORE PUSH1 0x64 ADD PUSH2 0xA6F JUMP JUMPDEST PUSH1 0x0 JUMPDEST DUP2 MLOAD DUP2 LT ISZERO PUSH2 0xBD3 JUMPI DUP2 DUP2 DUP2 MLOAD DUP2 LT PUSH2 0x17BF JUMPI PUSH4 0x4E487B71 PUSH1 0xE0 SHL PUSH1 0x0 MSTORE PUSH1 0x32 PUSH1 0x4 MSTORE PUSH1 0x24 PUSH1 0x0 REVERT JUMPDEST PUSH1 0x20 MUL PUSH1 0x20 ADD ADD MLOAD PUSH1 0x14 PUSH1 0x0 DUP6 DUP5 DUP2 MLOAD DUP2 LT PUSH2 0x17EB JUMPI PUSH4 0x4E487B71 PUSH1 0xE0 SHL PUSH1 0x0 MSTORE PUSH1 0x32 PUSH1 0x4 MSTORE PUSH1 0x24 PUSH1 0x0 REVERT JUMPDEST PUSH1 0x20 MUL PUSH1 0x20 ADD ADD MLOAD DUP2 MSTORE PUSH1 0x20 ADD SWAP1 DUP2 MSTORE PUSH1 0x20 ADD PUSH1 0x0 KECCAK256 SWAP1 DUP1 MLOAD SWAP1 PUSH1 0x20 ADD SWAP1 PUSH2 0x1814 SWAP3 SWAP2 SWAP1 PUSH2 0x2A56 JUMP JUMPDEST POP DUP1 PUSH2 0x181F DUP2 PUSH2 0x31FF JUMP JUMPDEST SWAP2 POP POP PUSH2 0x1796 JUMP JUMPDEST PUSH1 0x60 PUSH1 0x11 PUSH2 0x1834 DUP4 PUSH2 0x2315 JUMP JUMPDEST PUSH1 0x40 MLOAD PUSH1 0x20 ADD PUSH2 0x1845 SWAP3 SWAP2 SWAP1 PUSH2 0x2FC0 JUMP JUMPDEST PUSH1 0x40 MLOAD PUSH1 0x20 DUP2 DUP4 SUB SUB DUP2 MSTORE SWAP1 PUSH1 0x40 MSTORE SWAP1 POP SWAP2 SWAP1 POP JUMP JUMPDEST PUSH2 0x1863 PUSH2 0x1D2B JUMP JUMPDEST PUSH1 0x1 PUSH1 0x1 PUSH1 0xA0 SHL SUB AND PUSH2 0x187E PUSH1 0x9 SLOAD PUSH1 0x1 PUSH1 0x1 PUSH1 0xA0 SHL SUB AND SWAP1 JUMP JUMPDEST PUSH1 0x1 PUSH1 0x1 PUSH1 0xA0 SHL SUB AND EQ PUSH2 0x18C2 JUMPI PUSH1 0x40 MLOAD PUSH3 0x461BCD PUSH1 0xE5 SHL DUP2 MSTORE PUSH1 0x20 PUSH1 0x4 DUP3 ADD DUP2 SWAP1 MSTORE PUSH1 0x24 DUP3 ADD MSTORE PUSH1 0x0 DUP1 MLOAD PUSH1 0x20 PUSH2 0x330C DUP4 CODECOPY DUP2 MLOAD SWAP2 MSTORE PUSH1 0x44 DUP3 ADD MSTORE PUSH1 0x64 ADD PUSH2 0xA6F JUMP JUMPDEST PUSH1 0xA DUP1 SLOAD PUSH1 0x1 PUSH1 0x1 PUSH1 0xA0 SHL SUB NOT AND PUSH1 0x1 PUSH1 0x1 PUSH1 0xA0 SHL SUB SWAP3 SWAP1 SWAP3 AND SWAP2 SWAP1 SWAP2 OR SWAP1 SSTORE JUMP JUMPDEST PUSH2 0x18EC PUSH2 0x1D2B JUMP JUMPDEST PUSH1 0x1 PUSH1 0x1 PUSH1 0xA0 SHL SUB AND PUSH2 0x1907 PUSH1 0x9 SLOAD PUSH1 0x1 PUSH1 0x1 PUSH1 0xA0 SHL SUB AND SWAP1 JUMP JUMPDEST PUSH1 0x1 PUSH1 0x1 PUSH1 0xA0 SHL SUB AND EQ PUSH2 0x194B JUMPI PUSH1 0x40 MLOAD PUSH3 0x461BCD PUSH1 0xE5 SHL DUP2 MSTORE PUSH1 0x20 PUSH1 0x4 DUP3 ADD DUP2 SWAP1 MSTORE PUSH1 0x24 DUP3 ADD MSTORE PUSH1 0x0 DUP1 MLOAD PUSH1 0x20 PUSH2 0x330C DUP4 CODECOPY DUP2 MLOAD SWAP2 MSTORE PUSH1 0x44 DUP3 ADD MSTORE PUSH1 0x64 ADD PUSH2 0xA6F JUMP JUMPDEST PUSH1 0xA DUP1 SLOAD PUSH32 0xFFFFFFFFFFFFFFFFFFFFFF00FFFFFFFFFFFFFFFFFFFFFFFFFFFFFFFFFFFFFFFF DUP2 AND PUSH1 0x1 PUSH1 0xA0 SHL SWAP2 DUP3 SWAP1 DIV PUSH1 0xFF AND ISZERO SWAP1 SWAP2 MUL OR SWAP1 SSTORE JUMP JUMPDEST PUSH1 0x0 PUSH2 0xDF6 PUSH1 0x12 SLOAD SWAP1 JUMP JUMPDEST PUSH1 0x60 PUSH1 0x40 MLOAD DUP1 PUSH1 0x60 ADD PUSH1 0x40 MSTORE DUP1 PUSH1 0x2D DUP2 MSTORE PUSH1 0x20 ADD PUSH2 0x32DF PUSH1 0x2D SWAP2 CODECOPY SWAP1 POP SWAP1 JUMP JUMPDEST PUSH1 0xA SLOAD PUSH1 0x40 MLOAD PUSH32 0xC455279100000000000000000000000000000000000000000000000000000000 DUP2 MSTORE PUSH1 0x1 PUSH1 0x1 PUSH1 0xA0 SHL SUB DUP5 DUP2 AND PUSH1 0x4 DUP4 ADD MSTORE PUSH1 0x0 SWAP3 DUP2 AND SWAP2 SWAP1 DUP5 AND SWAP1 DUP3 SWAP1 PUSH4 0xC4552791 SWAP1 PUSH1 0x24 ADD PUSH1 0x20 PUSH1 0x40 MLOAD DUP1 DUP4 SUB DUP2 DUP7 DUP1 EXTCODESIZE ISZERO DUP1 ISZERO PUSH2 0x1A18 JUMPI PUSH1 0x0 DUP1 REVERT JUMPDEST POP GAS STATICCALL ISZERO DUP1 ISZERO PUSH2 0x1A2C JUMPI RETURNDATASIZE PUSH1 0x0 DUP1 RETURNDATACOPY RETURNDATASIZE PUSH1 0x0 REVERT JUMPDEST POP POP POP POP PUSH1 0x40 MLOAD RETURNDATASIZE PUSH1 0x1F NOT PUSH1 0x1F DUP3 ADD AND DUP3 ADD DUP1 PUSH1 0x40 MSTORE POP DUP2 ADD SWAP1 PUSH2 0x1A50 SWAP2 SWAP1 PUSH2 0x2E9D JUMP JUMPDEST PUSH1 0x1 PUSH1 0x1 PUSH1 0xA0 SHL SUB AND EQ ISZERO PUSH2 0x1A69 JUMPI PUSH1 0x1 SWAP2 POP POP PUSH2 0x1A97 JUMP JUMPDEST PUSH1 0x1 PUSH1 0x1 PUSH1 0xA0 SHL SUB DUP1 DUP6 AND PUSH1 0x0 SWAP1 DUP2 MSTORE PUSH1 0x5 PUSH1 0x20 SWAP1 DUP2 MSTORE PUSH1 0x40 DUP1 DUP4 KECCAK256 SWAP4 DUP8 AND DUP4 MSTORE SWAP3 SWAP1 MSTORE KECCAK256 SLOAD PUSH1 0xFF AND JUMPDEST SWAP2 POP POP JUMPDEST SWAP3 SWAP2 POP POP JUMP JUMPDEST PUSH1 0xA SLOAD PUSH1 0x1 PUSH1 0xA0 SHL SWAP1 DIV PUSH1 0xFF AND PUSH2 0x1AF6 JUMPI PUSH1 0x40 MLOAD PUSH3 0x461BCD PUSH1 0xE5 SHL DUP2 MSTORE PUSH1 0x20 PUSH1 0x4 DUP3 ADD MSTORE PUSH1 0xF PUSH1 0x24 DUP3 ADD MSTORE PUSH32 0x53616C65206E6F74206163746976650000000000000000000000000000000000 PUSH1 0x44 DUP3 ADD MSTORE PUSH1 0x64 ADD PUSH2 0xA6F JUMP JUMPDEST PUSH1 0x0 DUP2 PUSH1 0xF SLOAD PUSH2 0x1B06 SWAP2 SWAP1 PUSH2 0x3162 JUMP JUMPDEST SWAP1 POP CALLVALUE DUP2 GT ISZERO PUSH2 0x1B58 JUMPI PUSH1 0x40 MLOAD PUSH3 0x461BCD PUSH1 0xE5 SHL DUP2 MSTORE PUSH1 0x20 PUSH1 0x4 DUP3 ADD MSTORE PUSH1 0xE PUSH1 0x24 DUP3 ADD MSTORE PUSH32 0x4E6F7420656E6F75676820455448000000000000000000000000000000000000 PUSH1 0x44 DUP3 ADD MSTORE PUSH1 0x64 ADD PUSH2 0xA6F JUMP JUMPDEST PUSH2 0xF03 DUP3 PUSH2 0x246C JUMP JUMPDEST PUSH2 0x1B69 PUSH2 0x1D2B JUMP JUMPDEST PUSH1 0x1 PUSH1 0x1 PUSH1 0xA0 SHL SUB AND PUSH2 0x1B84 PUSH1 0x9 SLOAD PUSH1 0x1 PUSH1 0x1 PUSH1 0xA0 SHL SUB AND SWAP1 JUMP JUMPDEST PUSH1 0x1 PUSH1 0x1 PUSH1 0xA0 SHL SUB AND EQ PUSH2 0x1BC8 JUMPI PUSH1 0x40 MLOAD PUSH3 0x461BCD PUSH1 0xE5 SHL DUP2 MSTORE PUSH1 0x20 PUSH1 0x4 DUP3 ADD DUP2 SWAP1 MSTORE PUSH1 0x24 DUP3 ADD MSTORE PUSH1 0x0 DUP1 MLOAD PUSH1 0x20 PUSH2 0x330C DUP4 CODECOPY DUP2 MLOAD SWAP2 MSTORE PUSH1 0x44 DUP3 ADD MSTORE PUSH1 0x64 ADD PUSH2 0xA6F JUMP JUMPDEST PUSH1 0x1 PUSH1 0x1 PUSH1 0xA0 SHL SUB DUP2 AND PUSH2 0x1C44 JUMPI PUSH1 0x40 MLOAD PUSH3 0x461BCD PUSH1 0xE5 SHL DUP2 MSTORE PUSH1 0x20 PUSH1 0x4 DUP3 ADD MSTORE PUSH1 0x26 PUSH1 0x24 DUP3 ADD MSTORE PUSH32 0x4F776E61626C653A206E6577206F776E657220697320746865207A65726F2061 PUSH1 0x44 DUP3 ADD MSTORE PUSH32 0x6464726573730000000000000000000000000000000000000000000000000000 PUSH1 0x64 DUP3 ADD MSTORE PUSH1 0x84 ADD PUSH2 0xA6F JUMP JUMPDEST PUSH2 0xF8F DUP2 PUSH2 0x21FD JUMP JUMPDEST PUSH2 0x1C55 PUSH2 0x1D2B JUMP JUMPDEST PUSH1 0x1 PUSH1 0x1 PUSH1 0xA0 SHL SUB AND PUSH2 0x1C70 PUSH1 0x9 SLOAD PUSH1 0x1 PUSH1 0x1 PUSH1 0xA0 SHL SUB AND SWAP1 JUMP JUMPDEST PUSH1 0x1 PUSH1 0x1 PUSH1 0xA0 SHL SUB AND EQ PUSH2 0x1CB4 JUMPI PUSH1 0x40 MLOAD PUSH3 0x461BCD PUSH1 0xE5 SHL DUP2 MSTORE PUSH1 0x20 PUSH1 0x4 DUP3 ADD DUP2 SWAP1 MSTORE PUSH1 0x24 DUP3 ADD MSTORE PUSH1 0x0 DUP1 MLOAD PUSH1 0x20 PUSH2 0x330C DUP4 CODECOPY DUP2 MLOAD SWAP2 MSTORE PUSH1 0x44 DUP3 ADD MSTORE PUSH1 0x64 ADD PUSH2 0xA6F JUMP JUMPDEST PUSH1 0xC DUP3 SWAP1 SSTORE PUSH1 0xE DUP2 SWAP1 SSTORE PUSH2 0x1CC8 DUP2 DUP4 PUSH2 0x3181 JUMP JUMPDEST PUSH1 0xD SSTORE POP POP JUMP JUMPDEST PUSH1 0x0 CALLER ADDRESS EQ ISZERO PUSH2 0x1D26 JUMPI PUSH1 0x0 DUP1 CALLDATASIZE DUP1 DUP1 PUSH1 0x1F ADD PUSH1 0x20 DUP1 SWAP2 DIV MUL PUSH1 0x20 ADD PUSH1 0x40 MLOAD SWAP1 DUP2 ADD PUSH1 0x40 MSTORE DUP1 SWAP4 SWAP3 SWAP2 SWAP1 DUP2 DUP2 MSTORE PUSH1 0x20 ADD DUP4 DUP4 DUP1 DUP3 DUP5 CALLDATACOPY PUSH1 0x0 SWAP3 ADD SWAP2 SWAP1 SWAP2 MSTORE POP POP POP POP CALLDATASIZE ADD MLOAD PUSH1 0x1 PUSH1 0x1 PUSH1 0xA0 SHL SUB AND SWAP2 POP PUSH2 0x9F7 SWAP1 POP JUMP JUMPDEST POP CALLER SWAP1 JUMP JUMPDEST PUSH1 0x0 PUSH2 0xDF6 PUSH2 0x1CCF JUMP JUMPDEST PUSH1 0x0 DUP2 DUP2 MSTORE PUSH1 0x4 PUSH1 0x20 MSTORE PUSH1 0x40 SWAP1 KECCAK256 DUP1 SLOAD PUSH1 0x1 PUSH1 0x1 PUSH1 0xA0 SHL SUB NOT AND PUSH1 0x1 PUSH1 0x1 PUSH1 0xA0 SHL SUB DUP5 AND SWAP1 DUP2 OR SWAP1 SWAP2 SSTORE DUP2 SWAP1 PUSH2 0x1D6A DUP3 PUSH2 0xFAD JUMP JUMPDEST PUSH1 0x1 PUSH1 0x1 PUSH1 0xA0 SHL SUB AND PUSH32 0x8C5BE1E5EBEC7D5BD14F71427D1E84F3DD0314C0F7B2291E5B200AC8C7C3B925 PUSH1 0x40 MLOAD PUSH1 0x40 MLOAD DUP1 SWAP2 SUB SWAP1 LOG4 POP POP JUMP JUMPDEST PUSH1 0x0 PUSH1 0x1 PUSH1 0x1 PUSH1 0xA0 SHL SUB DUP7 AND PUSH2 0x1E21 JUMPI PUSH1 0x40 MLOAD PUSH3 0x461BCD PUSH1 0xE5 SHL DUP2 MSTORE PUSH1 0x20 PUSH1 0x4 DUP3 ADD MSTORE PUSH1 0x25 PUSH1 0x24 DUP3 ADD MSTORE PUSH32 0x4E61746976654D6574615472616E73616374696F6E3A20494E56414C49445F53 PUSH1 0x44 DUP3 ADD MSTORE PUSH32 0x49474E4552000000000000000000000000000000000000000000000000000000 PUSH1 0x64 DUP3 ADD MSTORE PUSH1 0x84 ADD PUSH2 0xA6F JUMP JUMPDEST PUSH1 0x1 PUSH2 0x1E34 PUSH2 0x1E2F DUP8 PUSH2 0x260A JUMP JUMPDEST PUSH2 0x2687 JUMP JUMPDEST PUSH1 0x40 DUP1 MLOAD PUSH1 0x0 DUP2 MSTORE PUSH1 0x20 DUP2 ADD DUP1 DUP4 MSTORE SWAP3 SWAP1 SWAP3 MSTORE PUSH1 0xFF DUP6 AND SWAP1 DUP3 ADD MSTORE PUSH1 0x60 DUP2 ADD DUP7 SWAP1 MSTORE PUSH1 0x80 DUP2 ADD DUP6 SWAP1 MSTORE PUSH1 0xA0 ADD PUSH1 0x20 PUSH1 0x40 MLOAD PUSH1 0x20 DUP2 SUB SWAP1 DUP1 DUP5 SUB SWAP1 DUP6 GAS STATICCALL ISZERO DUP1 ISZERO PUSH2 0x1E82 JUMPI RETURNDATASIZE PUSH1 0x0 DUP1 RETURNDATACOPY RETURNDATASIZE PUSH1 0x0 REVERT JUMPDEST POP POP POP PUSH1 0x20 PUSH1 0x40 MLOAD SUB MLOAD PUSH1 0x1 PUSH1 0x1 PUSH1 0xA0 SHL SUB AND DUP7 PUSH1 0x1 PUSH1 0x1 PUSH1 0xA0 SHL SUB AND EQ SWAP1 POP SWAP6 SWAP5 POP POP POP POP POP JUMP JUMPDEST PUSH1 0x0 PUSH2 0x1EB7 DUP3 DUP5 PUSH2 0x3136 JUMP JUMPDEST SWAP4 SWAP3 POP POP POP JUMP JUMPDEST PUSH1 0x0 DUP2 DUP2 MSTORE PUSH1 0x2 PUSH1 0x20 MSTORE PUSH1 0x40 DUP2 KECCAK256 SLOAD PUSH1 0x1 PUSH1 0x1 PUSH1 0xA0 SHL SUB AND PUSH2 0x1F37 JUMPI PUSH1 0x40 MLOAD PUSH3 0x461BCD PUSH1 0xE5 SHL DUP2 MSTORE PUSH1 0x20 PUSH1 0x4 DUP3 ADD MSTORE PUSH1 0x2C PUSH1 0x24 DUP3 ADD MSTORE PUSH32 0x4552433732313A206F70657261746F7220717565727920666F72206E6F6E6578 PUSH1 0x44 DUP3 ADD MSTORE PUSH12 0x34B9BA32B73A103A37B5B2B7 PUSH1 0xA1 SHL PUSH1 0x64 DUP3 ADD MSTORE PUSH1 0x84 ADD PUSH2 0xA6F JUMP JUMPDEST PUSH1 0x0 PUSH2 0x1F42 DUP4 PUSH2 0xFAD JUMP JUMPDEST SWAP1 POP DUP1 PUSH1 0x1 PUSH1 0x1 PUSH1 0xA0 SHL SUB AND DUP5 PUSH1 0x1 PUSH1 0x1 PUSH1 0xA0 SHL SUB AND EQ DUP1 PUSH2 0x1F7D JUMPI POP DUP4 PUSH1 0x1 PUSH1 0x1 PUSH1 0xA0 SHL SUB AND PUSH2 0x1F72 DUP5 PUSH2 0x9FA JUMP JUMPDEST PUSH1 0x1 PUSH1 0x1 PUSH1 0xA0 SHL SUB AND EQ JUMPDEST DUP1 PUSH2 0x1A93 JUMPI POP PUSH2 0x1A93 DUP2 DUP6 PUSH2 0x19B2 JUMP JUMPDEST DUP3 PUSH1 0x1 PUSH1 0x1 PUSH1 0xA0 SHL SUB AND PUSH2 0x1FA0 DUP3 PUSH2 0xFAD JUMP JUMPDEST PUSH1 0x1 PUSH1 0x1 PUSH1 0xA0 SHL SUB AND EQ PUSH2 0x201C JUMPI PUSH1 0x40 MLOAD PUSH3 0x461BCD PUSH1 0xE5 SHL DUP2 MSTORE PUSH1 0x20 PUSH1 0x4 DUP3 ADD MSTORE PUSH1 0x29 PUSH1 0x24 DUP3 ADD MSTORE PUSH32 0x4552433732313A207472616E73666572206F6620746F6B656E20746861742069 PUSH1 0x44 DUP3 ADD MSTORE PUSH32 0x73206E6F74206F776E0000000000000000000000000000000000000000000000 PUSH1 0x64 DUP3 ADD MSTORE PUSH1 0x84 ADD PUSH2 0xA6F JUMP JUMPDEST PUSH1 0x1 PUSH1 0x1 PUSH1 0xA0 SHL SUB DUP3 AND PUSH2 0x2097 JUMPI PUSH1 0x40 MLOAD PUSH3 0x461BCD PUSH1 0xE5 SHL DUP2 MSTORE PUSH1 0x20 PUSH1 0x4 DUP3 ADD MSTORE PUSH1 0x24 DUP1 DUP3 ADD MSTORE PUSH32 0x4552433732313A207472616E7366657220746F20746865207A65726F20616464 PUSH1 0x44 DUP3 ADD MSTORE PUSH32 0x7265737300000000000000000000000000000000000000000000000000000000 PUSH1 0x64 DUP3 ADD MSTORE PUSH1 0x84 ADD PUSH2 0xA6F JUMP JUMPDEST PUSH2 0x20A2 PUSH1 0x0 DUP3 PUSH2 0x1D35 JUMP JUMPDEST PUSH1 0x1 PUSH1 0x1 PUSH1 0xA0 SHL SUB DUP4 AND PUSH1 0x0 SWAP1 DUP2 MSTORE PUSH1 0x3 PUSH1 0x20 MSTORE PUSH1 0x40 DUP2 KECCAK256 DUP1 SLOAD PUSH1 0x1 SWAP3 SWAP1 PUSH2 0x20CB SWAP1 DUP5 SWAP1 PUSH2 0x3181 JUMP JUMPDEST SWAP1 SWAP2 SSTORE POP POP PUSH1 0x1 PUSH1 0x1 PUSH1 0xA0 SHL SUB DUP3 AND PUSH1 0x0 SWAP1 DUP2 MSTORE PUSH1 0x3 PUSH1 0x20 MSTORE PUSH1 0x40 DUP2 KECCAK256 DUP1 SLOAD PUSH1 0x1 SWAP3 SWAP1 PUSH2 0x20F9 SWAP1 DUP5 SWAP1 PUSH2 0x3136 JUMP JUMPDEST SWAP1 SWAP2 SSTORE POP POP PUSH1 0x0 DUP2 DUP2 MSTORE PUSH1 0x2 PUSH1 0x20 MSTORE PUSH1 0x40 DUP1 DUP3 KECCAK256 DUP1 SLOAD PUSH1 0x1 PUSH1 0x1 PUSH1 0xA0 SHL SUB NOT AND PUSH1 0x1 PUSH1 0x1 PUSH1 0xA0 SHL SUB DUP7 DUP2 AND SWAP2 DUP3 OR SWAP1 SWAP3 SSTORE SWAP2 MLOAD DUP5 SWAP4 SWAP2 DUP8 AND SWAP2 PUSH32 0xDDF252AD1BE2C89B69C2B068FC378DAA952BA7F163C4A11628F55A4DF523B3EF SWAP2 LOG4 POP POP POP JUMP JUMPDEST PUSH1 0x0 DUP3 PUSH1 0x1 PUSH1 0x1 PUSH1 0xA0 SHL SUB AND DUP3 PUSH1 0x40 MLOAD PUSH1 0x0 PUSH1 0x40 MLOAD DUP1 DUP4 SUB DUP2 DUP6 DUP8 GAS CALL SWAP3 POP POP POP RETURNDATASIZE DUP1 PUSH1 0x0 DUP2 EQ PUSH2 0x21A7 JUMPI PUSH1 0x40 MLOAD SWAP2 POP PUSH1 0x1F NOT PUSH1 0x3F RETURNDATASIZE ADD AND DUP3 ADD PUSH1 0x40 MSTORE RETURNDATASIZE DUP3 MSTORE RETURNDATASIZE PUSH1 0x0 PUSH1 0x20 DUP5 ADD RETURNDATACOPY PUSH2 0x21AC JUMP JUMPDEST PUSH1 0x60 SWAP2 POP JUMPDEST POP POP SWAP1 POP DUP1 PUSH2 0xBD3 JUMPI PUSH1 0x40 MLOAD PUSH3 0x461BCD PUSH1 0xE5 SHL DUP2 MSTORE PUSH1 0x20 PUSH1 0x4 DUP3 ADD MSTORE PUSH1 0x9 PUSH1 0x24 DUP3 ADD MSTORE PUSH32 0x5478206661696C65640000000000000000000000000000000000000000000000 PUSH1 0x44 DUP3 ADD MSTORE PUSH1 0x64 ADD PUSH2 0xA6F JUMP JUMPDEST PUSH1 0x9 DUP1 SLOAD PUSH1 0x1 PUSH1 0x1 PUSH1 0xA0 SHL SUB DUP4 DUP2 AND PUSH1 0x1 PUSH1 0x1 PUSH1 0xA0 SHL SUB NOT DUP4 AND DUP2 OR SWAP1 SWAP4 SSTORE PUSH1 0x40 MLOAD SWAP2 AND SWAP2 SWAP1 DUP3 SWAP1 PUSH32 0x8BE0079C531659141344CD1FD0A4F28419497F9722A3DAAFE3B4186F6B6457E0 SWAP1 PUSH1 0x0 SWAP1 LOG3 POP POP JUMP JUMPDEST PUSH1 0x0 PUSH2 0x225A DUP3 PUSH2 0x26D2 JUMP JUMPDEST PUSH1 0x0 DUP4 DUP2 MSTORE PUSH1 0x15 PUSH1 0x20 SWAP1 DUP2 MSTORE PUSH1 0x40 DUP1 DUP4 KECCAK256 DUP5 SWAP1 SSTORE SWAP3 DUP3 MSTORE PUSH1 0x16 SWAP1 MSTORE KECCAK256 SWAP2 SWAP1 SWAP2 SSTORE POP JUMP JUMPDEST PUSH2 0xF03 DUP3 DUP3 PUSH1 0x40 MLOAD DUP1 PUSH1 0x20 ADD PUSH1 0x40 MSTORE DUP1 PUSH1 0x0 DUP2 MSTORE POP PUSH2 0x271E JUMP JUMPDEST PUSH2 0x22A2 DUP5 DUP5 DUP5 PUSH2 0x1F8D JUMP JUMPDEST PUSH2 0x22AE DUP5 DUP5 DUP5 DUP5 PUSH2 0x279C JUMP JUMPDEST PUSH2 0x16D5 JUMPI PUSH1 0x40 MLOAD PUSH3 0x461BCD PUSH1 0xE5 SHL DUP2 MSTORE PUSH1 0x20 PUSH1 0x4 DUP3 ADD MSTORE PUSH1 0x32 PUSH1 0x24 DUP3 ADD MSTORE PUSH32 0x4552433732313A207472616E7366657220746F206E6F6E204552433732315265 PUSH1 0x44 DUP3 ADD MSTORE PUSH18 0x31B2B4BB32B91034B6B83632B6B2B73A32B9 PUSH1 0x71 SHL PUSH1 0x64 DUP3 ADD MSTORE PUSH1 0x84 ADD PUSH2 0xA6F JUMP JUMPDEST PUSH1 0x60 DUP2 PUSH2 0x2356 JUMPI POP PUSH1 0x40 DUP1 MLOAD DUP1 DUP3 ADD SWAP1 SWAP2 MSTORE PUSH1 0x1 DUP2 MSTORE PUSH32 0x3000000000000000000000000000000000000000000000000000000000000000 PUSH1 0x20 DUP3 ADD MSTORE PUSH2 0x962 JUMP JUMPDEST DUP2 PUSH1 0x0 JUMPDEST DUP2 ISZERO PUSH2 0x2380 JUMPI DUP1 PUSH2 0x236A DUP2 PUSH2 0x31FF JUMP JUMPDEST SWAP2 POP PUSH2 0x2379 SWAP1 POP PUSH1 0xA DUP4 PUSH2 0x314E JUMP JUMPDEST SWAP2 POP PUSH2 0x235A JUMP JUMPDEST PUSH1 0x0 DUP2 PUSH8 0xFFFFFFFFFFFFFFFF DUP2 GT ISZERO PUSH2 0x23A9 JUMPI PUSH4 0x4E487B71 PUSH1 0xE0 SHL PUSH1 0x0 MSTORE PUSH1 0x41 PUSH1 0x4 MSTORE PUSH1 0x24 PUSH1 0x0 REVERT JUMPDEST PUSH1 0x40 MLOAD SWAP1 DUP1 DUP3 MSTORE DUP1 PUSH1 0x1F ADD PUSH1 0x1F NOT AND PUSH1 0x20 ADD DUP3 ADD PUSH1 0x40 MSTORE DUP1 ISZERO PUSH2 0x23D3 JUMPI PUSH1 0x20 DUP3 ADD DUP2 DUP1 CALLDATASIZE DUP4 CALLDATACOPY ADD SWAP1 POP JUMPDEST POP SWAP1 POP JUMPDEST DUP5 ISZERO PUSH2 0x2464 JUMPI PUSH2 0x23E8 PUSH1 0x1 DUP4 PUSH2 0x3181 JUMP JUMPDEST SWAP2 POP PUSH2 0x23F5 PUSH1 0xA DUP7 PUSH2 0x321A JUMP JUMPDEST PUSH2 0x2400 SWAP1 PUSH1 0x30 PUSH2 0x3136 JUMP JUMPDEST PUSH1 0xF8 SHL DUP2 DUP4 DUP2 MLOAD DUP2 LT PUSH2 0x2423 JUMPI PUSH4 0x4E487B71 PUSH1 0xE0 SHL PUSH1 0x0 MSTORE PUSH1 0x32 PUSH1 0x4 MSTORE PUSH1 0x24 PUSH1 0x0 REVERT JUMPDEST PUSH1 0x20 ADD ADD SWAP1 PUSH31 0xFFFFFFFFFFFFFFFFFFFFFFFFFFFFFFFFFFFFFFFFFFFFFFFFFFFFFFFFFFFFFF NOT AND SWAP1 DUP2 PUSH1 0x0 BYTE SWAP1 MSTORE8 POP PUSH2 0x245D PUSH1 0xA DUP7 PUSH2 0x314E JUMP JUMPDEST SWAP5 POP PUSH2 0x23D7 JUMP JUMPDEST SWAP5 SWAP4 POP POP POP POP JUMP JUMPDEST PUSH1 0xB SLOAD DUP2 GT ISZERO PUSH2 0x24BE JUMPI PUSH1 0x40 MLOAD PUSH3 0x461BCD PUSH1 0xE5 SHL DUP2 MSTORE PUSH1 0x20 PUSH1 0x4 DUP3 ADD MSTORE PUSH1 0x11 PUSH1 0x24 DUP3 ADD MSTORE PUSH32 0x4D6178206D696E74206578636565646564000000000000000000000000000000 PUSH1 0x44 DUP3 ADD MSTORE PUSH1 0x64 ADD PUSH2 0xA6F JUMP JUMPDEST PUSH1 0xD SLOAD DUP2 PUSH2 0x24CB PUSH1 0x12 SLOAD SWAP1 JUMP JUMPDEST PUSH2 0x24D5 SWAP2 SWAP1 PUSH2 0x3136 JUMP JUMPDEST GT ISZERO PUSH2 0x2523 JUMPI PUSH1 0x40 MLOAD PUSH3 0x461BCD PUSH1 0xE5 SHL DUP2 MSTORE PUSH1 0x20 PUSH1 0x4 DUP3 ADD MSTORE PUSH1 0x12 PUSH1 0x24 DUP3 ADD MSTORE PUSH32 0x4D617820737570706C7920726561636865640000000000000000000000000000 PUSH1 0x44 DUP3 ADD MSTORE PUSH1 0x64 ADD PUSH2 0xA6F JUMP JUMPDEST PUSH1 0x0 JUMPDEST DUP2 DUP2 LT ISZERO PUSH2 0xF03 JUMPI PUSH2 0x253C PUSH1 0x12 DUP1 SLOAD PUSH1 0x1 ADD SWAP1 SSTORE JUMP JUMPDEST PUSH1 0x0 ADDRESS PUSH1 0x1 PUSH1 0x1 PUSH1 0xA0 SHL SUB AND PUSH4 0x18160DDD PUSH1 0x40 MLOAD DUP2 PUSH4 0xFFFFFFFF AND PUSH1 0xE0 SHL DUP2 MSTORE PUSH1 0x4 ADD PUSH1 0x20 PUSH1 0x40 MLOAD DUP1 DUP4 SUB DUP2 DUP7 DUP1 EXTCODESIZE ISZERO DUP1 ISZERO PUSH2 0x2577 JUMPI PUSH1 0x0 DUP1 REVERT JUMPDEST POP GAS STATICCALL ISZERO DUP1 ISZERO PUSH2 0x258B JUMPI RETURNDATASIZE PUSH1 0x0 DUP1 RETURNDATACOPY RETURNDATASIZE PUSH1 0x0 REVERT JUMPDEST POP POP POP POP PUSH1 0x40 MLOAD RETURNDATASIZE PUSH1 0x1F NOT PUSH1 0x1F DUP3 ADD AND DUP3 ADD DUP1 PUSH1 0x40 MSTORE POP DUP2 ADD SWAP1 PUSH2 0x25AF SWAP2 SWAP1 PUSH2 0x2EEC JUMP JUMPDEST SWAP1 POP PUSH2 0x25BA DUP2 PUSH2 0x224F JUMP JUMPDEST PUSH2 0x25F7 CALLER ADDRESS PUSH1 0x1 PUSH1 0x1 PUSH1 0xA0 SHL SUB AND PUSH4 0x18160DDD PUSH1 0x40 MLOAD DUP2 PUSH4 0xFFFFFFFF AND PUSH1 0xE0 SHL DUP2 MSTORE PUSH1 0x4 ADD PUSH1 0x20 PUSH1 0x40 MLOAD DUP1 DUP4 SUB DUP2 DUP7 DUP1 EXTCODESIZE ISZERO DUP1 ISZERO PUSH2 0x1357 JUMPI PUSH1 0x0 DUP1 REVERT JUMPDEST POP DUP1 PUSH2 0x2602 DUP2 PUSH2 0x31FF JUMP JUMPDEST SWAP2 POP POP PUSH2 0x2526 JUMP JUMPDEST PUSH1 0x0 PUSH1 0x40 MLOAD DUP1 PUSH1 0x80 ADD PUSH1 0x40 MSTORE DUP1 PUSH1 0x43 DUP2 MSTORE PUSH1 0x20 ADD PUSH2 0x329C PUSH1 0x43 SWAP2 CODECOPY DUP1 MLOAD PUSH1 0x20 SWAP2 DUP3 ADD KECCAK256 DUP4 MLOAD DUP5 DUP4 ADD MLOAD PUSH1 0x40 DUP1 DUP8 ADD MLOAD DUP1 MLOAD SWAP1 DUP7 ADD KECCAK256 SWAP1 MLOAD PUSH2 0x266A SWAP6 ADD SWAP4 DUP5 MSTORE PUSH1 0x20 DUP5 ADD SWAP3 SWAP1 SWAP3 MSTORE PUSH1 0x1 PUSH1 0x1 PUSH1 0xA0 SHL SUB AND PUSH1 0x40 DUP4 ADD MSTORE PUSH1 0x60 DUP3 ADD MSTORE PUSH1 0x80 ADD SWAP1 JUMP JUMPDEST PUSH1 0x40 MLOAD PUSH1 0x20 DUP2 DUP4 SUB SUB DUP2 MSTORE SWAP1 PUSH1 0x40 MSTORE DUP1 MLOAD SWAP1 PUSH1 0x20 ADD KECCAK256 SWAP1 POP SWAP2 SWAP1 POP JUMP JUMPDEST PUSH1 0x0 PUSH2 0x2692 PUSH1 0x7 SLOAD SWAP1 JUMP JUMPDEST PUSH1 0x40 MLOAD PUSH32 0x1901000000000000000000000000000000000000000000000000000000000000 PUSH1 0x20 DUP3 ADD MSTORE PUSH1 0x22 DUP2 ADD SWAP2 SWAP1 SWAP2 MSTORE PUSH1 0x42 DUP2 ADD DUP4 SWAP1 MSTORE PUSH1 0x62 ADD PUSH2 0x266A JUMP JUMPDEST PUSH1 0x0 NUMBER PUSH2 0x26E0 PUSH1 0x1 DUP3 PUSH2 0x3181 JUMP JUMPDEST BLOCKHASH CALLER DUP5 PUSH1 0x40 MLOAD PUSH1 0x20 ADD PUSH2 0x266A SWAP5 SWAP4 SWAP3 SWAP2 SWAP1 SWAP4 DUP5 MSTORE PUSH1 0x20 DUP5 ADD SWAP3 SWAP1 SWAP3 MSTORE PUSH1 0x60 SHL PUSH12 0xFFFFFFFFFFFFFFFFFFFFFFFF NOT AND PUSH1 0x40 DUP4 ADD MSTORE PUSH1 0x54 DUP3 ADD MSTORE PUSH1 0x74 ADD SWAP1 JUMP JUMPDEST PUSH2 0x2728 DUP4 DUP4 PUSH2 0x2914 JUMP JUMPDEST PUSH2 0x2735 PUSH1 0x0 DUP5 DUP5 DUP5 PUSH2 0x279C JUMP JUMPDEST PUSH2 0xBD3 JUMPI PUSH1 0x40 MLOAD PUSH3 0x461BCD PUSH1 0xE5 SHL DUP2 MSTORE PUSH1 0x20 PUSH1 0x4 DUP3 ADD MSTORE PUSH1 0x32 PUSH1 0x24 DUP3 ADD MSTORE PUSH32 0x4552433732313A207472616E7366657220746F206E6F6E204552433732315265 PUSH1 0x44 DUP3 ADD MSTORE PUSH18 0x31B2B4BB32B91034B6B83632B6B2B73A32B9 PUSH1 0x71 SHL PUSH1 0x64 DUP3 ADD MSTORE PUSH1 0x84 ADD PUSH2 0xA6F JUMP JUMPDEST PUSH1 0x0 PUSH1 0x1 PUSH1 0x1 PUSH1 0xA0 SHL SUB DUP5 AND EXTCODESIZE ISZERO PUSH2 0x2909 JUMPI DUP4 PUSH1 0x1 PUSH1 0x1 PUSH1 0xA0 SHL SUB AND PUSH4 0x150B7A02 PUSH2 0x27C5 PUSH2 0x1D2B JUMP JUMPDEST DUP8 DUP7 DUP7 PUSH1 0x40 MLOAD DUP6 PUSH4 0xFFFFFFFF AND PUSH1 0xE0 SHL DUP2 MSTORE PUSH1 0x4 ADD PUSH2 0x27E7 SWAP5 SWAP4 SWAP3 SWAP2 SWAP1 PUSH2 0x3092 JUMP JUMPDEST PUSH1 0x20 PUSH1 0x40 MLOAD DUP1 DUP4 SUB DUP2 PUSH1 0x0 DUP8 DUP1 EXTCODESIZE ISZERO DUP1 ISZERO PUSH2 0x2801 JUMPI PUSH1 0x0 DUP1 REVERT JUMPDEST POP GAS CALL SWAP3 POP POP POP DUP1 ISZERO PUSH2 0x2831 JUMPI POP PUSH1 0x40 DUP1 MLOAD PUSH1 0x1F RETURNDATASIZE SWAP1 DUP2 ADD PUSH1 0x1F NOT AND DUP3 ADD SWAP1 SWAP3 MSTORE PUSH2 0x282E SWAP2 DUP2 ADD SWAP1 PUSH2 0x2E81 JUMP JUMPDEST PUSH1 0x1 JUMPDEST PUSH2 0x28D6 JUMPI RETURNDATASIZE DUP1 DUP1 ISZERO PUSH2 0x285F JUMPI PUSH1 0x40 MLOAD SWAP2 POP PUSH1 0x1F NOT PUSH1 0x3F RETURNDATASIZE ADD AND DUP3 ADD PUSH1 0x40 MSTORE RETURNDATASIZE DUP3 MSTORE RETURNDATASIZE PUSH1 0x0 PUSH1 0x20 DUP5 ADD RETURNDATACOPY PUSH2 0x2864 JUMP JUMPDEST PUSH1 0x60 SWAP2 POP JUMPDEST POP DUP1 MLOAD PUSH2 0x28CE JUMPI PUSH1 0x40 MLOAD PUSH3 0x461BCD PUSH1 0xE5 SHL DUP2 MSTORE PUSH1 0x20 PUSH1 0x4 DUP3 ADD MSTORE PUSH1 0x32 PUSH1 0x24 DUP3 ADD MSTORE PUSH32 0x4552433732313A207472616E7366657220746F206E6F6E204552433732315265 PUSH1 0x44 DUP3 ADD MSTORE PUSH18 0x31B2B4BB32B91034B6B83632B6B2B73A32B9 PUSH1 0x71 SHL PUSH1 0x64 DUP3 ADD MSTORE PUSH1 0x84 ADD PUSH2 0xA6F JUMP JUMPDEST DUP1 MLOAD DUP2 PUSH1 0x20 ADD REVERT JUMPDEST PUSH1 0x1 PUSH1 0x1 PUSH1 0xE0 SHL SUB NOT AND PUSH32 0x150B7A0200000000000000000000000000000000000000000000000000000000 EQ SWAP1 POP PUSH2 0x2464 JUMP JUMPDEST POP PUSH1 0x1 SWAP5 SWAP4 POP POP POP POP JUMP JUMPDEST PUSH1 0x1 PUSH1 0x1 PUSH1 0xA0 SHL SUB DUP3 AND PUSH2 0x296A JUMPI PUSH1 0x40 MLOAD PUSH3 0x461BCD PUSH1 0xE5 SHL DUP2 MSTORE PUSH1 0x20 PUSH1 0x4 DUP3 ADD DUP2 SWAP1 MSTORE PUSH1 0x24 DUP3 ADD MSTORE PUSH32 0x4552433732313A206D696E7420746F20746865207A65726F2061646472657373 PUSH1 0x44 DUP3 ADD MSTORE PUSH1 0x64 ADD PUSH2 0xA6F JUMP JUMPDEST PUSH1 0x0 DUP2 DUP2 MSTORE PUSH1 0x2 PUSH1 0x20 MSTORE PUSH1 0x40 SWAP1 KECCAK256 SLOAD PUSH1 0x1 PUSH1 0x1 PUSH1 0xA0 SHL SUB AND ISZERO PUSH2 0x29CF JUMPI PUSH1 0x40 MLOAD PUSH3 0x461BCD PUSH1 0xE5 SHL DUP2 MSTORE PUSH1 0x20 PUSH1 0x4 DUP3 ADD MSTORE PUSH1 0x1C PUSH1 0x24 DUP3 ADD MSTORE PUSH32 0x4552433732313A20746F6B656E20616C7265616479206D696E74656400000000 PUSH1 0x44 DUP3 ADD MSTORE PUSH1 0x64 ADD PUSH2 0xA6F JUMP JUMPDEST PUSH1 0x1 PUSH1 0x1 PUSH1 0xA0 SHL SUB DUP3 AND PUSH1 0x0 SWAP1 DUP2 MSTORE PUSH1 0x3 PUSH1 0x20 MSTORE PUSH1 0x40 DUP2 KECCAK256 DUP1 SLOAD PUSH1 0x1 SWAP3 SWAP1 PUSH2 0x29F8 SWAP1 DUP5 SWAP1 PUSH2 0x3136 JUMP JUMPDEST SWAP1 SWAP2 SSTORE POP POP PUSH1 0x0 DUP2 DUP2 MSTORE PUSH1 0x2 PUSH1 0x20 MSTORE PUSH1 0x40 DUP1 DUP3 KECCAK256 DUP1 SLOAD PUSH1 0x1 PUSH1 0x1 PUSH1 0xA0 SHL SUB NOT AND PUSH1 0x1 PUSH1 0x1 PUSH1 0xA0 SHL SUB DUP7 AND SWAP1 DUP2 OR SWAP1 SWAP2 SSTORE SWAP1 MLOAD DUP4 SWAP3 SWAP1 PUSH32 0xDDF252AD1BE2C89B69C2B068FC378DAA952BA7F163C4A11628F55A4DF523B3EF SWAP1 DUP3 SWAP1 LOG4 POP POP JUMP JUMPDEST DUP3 DUP1 SLOAD PUSH2 0x2A62 SWAP1 PUSH2 0x31C4 JUMP JUMPDEST SWAP1 PUSH1 0x0 MSTORE PUSH1 0x20 PUSH1 0x0 KECCAK256 SWAP1 PUSH1 0x1F ADD PUSH1 0x20 SWAP1 DIV DUP2 ADD SWAP3 DUP3 PUSH2 0x2A84 JUMPI PUSH1 0x0 DUP6 SSTORE PUSH2 0x2ACA JUMP JUMPDEST DUP3 PUSH1 0x1F LT PUSH2 0x2A9D JUMPI DUP1 MLOAD PUSH1 0xFF NOT AND DUP4 DUP1 ADD OR DUP6 SSTORE PUSH2 0x2ACA JUMP JUMPDEST DUP3 DUP1 ADD PUSH1 0x1 ADD DUP6 SSTORE DUP3 ISZERO PUSH2 0x2ACA JUMPI SWAP2 DUP3 ADD JUMPDEST DUP3 DUP2 GT ISZERO PUSH2 0x2ACA JUMPI DUP3 MLOAD DUP3 SSTORE SWAP2 PUSH1 0x20 ADD SWAP2 SWAP1 PUSH1 0x1 ADD SWAP1 PUSH2 0x2AAF JUMP JUMPDEST POP PUSH2 0x2AD6 SWAP3 SWAP2 POP PUSH2 0x2ADA JUMP JUMPDEST POP SWAP1 JUMP JUMPDEST JUMPDEST DUP1 DUP3 GT ISZERO PUSH2 0x2AD6 JUMPI PUSH1 0x0 DUP2 SSTORE PUSH1 0x1 ADD PUSH2 0x2ADB JUMP JUMPDEST PUSH1 0x0 DUP3 PUSH1 0x1F DUP4 ADD SLT PUSH2 0x2AFF JUMPI DUP1 DUP2 REVERT JUMPDEST DUP2 CALLDATALOAD PUSH1 0x20 PUSH2 0x2B14 PUSH2 0x2B0F DUP4 PUSH2 0x3112 JUMP JUMPDEST PUSH2 0x30E1 JUMP JUMPDEST DUP3 DUP2 MSTORE DUP2 DUP2 ADD SWAP1 DUP6 DUP4 ADD DUP6 JUMPDEST DUP6 DUP2 LT ISZERO PUSH2 0x2B49 JUMPI PUSH2 0x2B37 DUP10 DUP7 DUP5 CALLDATALOAD DUP12 ADD ADD PUSH2 0x2B56 JUMP JUMPDEST DUP5 MSTORE SWAP3 DUP5 ADD SWAP3 SWAP1 DUP5 ADD SWAP1 PUSH1 0x1 ADD PUSH2 0x2B20 JUMP JUMPDEST POP SWAP1 SWAP8 SWAP7 POP POP POP POP POP POP POP JUMP JUMPDEST PUSH1 0x0 DUP3 PUSH1 0x1F DUP4 ADD SLT PUSH2 0x2B66 JUMPI DUP1 DUP2 REVERT JUMPDEST DUP2 CALLDATALOAD PUSH8 0xFFFFFFFFFFFFFFFF DUP2 GT ISZERO PUSH2 0x2B80 JUMPI PUSH2 0x2B80 PUSH2 0x325A JUMP JUMPDEST PUSH2 0x2B93 PUSH1 0x1F DUP3 ADD PUSH1 0x1F NOT AND PUSH1 0x20 ADD PUSH2 0x30E1 JUMP JUMPDEST DUP2 DUP2 MSTORE DUP5 PUSH1 0x20 DUP4 DUP7 ADD ADD GT ISZERO PUSH2 0x2BA7 JUMPI DUP3 DUP4 REVERT JUMPDEST DUP2 PUSH1 0x20 DUP6 ADD PUSH1 0x20 DUP4 ADD CALLDATACOPY SWAP1 DUP2 ADD PUSH1 0x20 ADD SWAP2 SWAP1 SWAP2 MSTORE SWAP3 SWAP2 POP POP JUMP JUMPDEST PUSH1 0x0 PUSH1 0x20 DUP3 DUP5 SUB SLT ISZERO PUSH2 0x2BD2 JUMPI DUP1 DUP2 REVERT JUMPDEST DUP2 CALLDATALOAD PUSH2 0x1EB7 DUP2 PUSH2 0x3270 JUMP JUMPDEST PUSH1 0x0 DUP1 PUSH1 0x40 DUP4 DUP6 SUB SLT ISZERO PUSH2 0x2BEF JUMPI DUP1 DUP2 REVERT JUMPDEST DUP3 CALLDATALOAD PUSH2 0x2BFA DUP2 PUSH2 0x3270 JUMP JUMPDEST SWAP2 POP PUSH1 0x20 DUP4 ADD CALLDATALOAD PUSH2 0x2C0A DUP2 PUSH2 0x3270 JUMP JUMPDEST DUP1 SWAP2 POP POP SWAP3 POP SWAP3 SWAP1 POP JUMP JUMPDEST PUSH1 0x0 DUP1 PUSH1 0x0 PUSH1 0x60 DUP5 DUP7 SUB SLT ISZERO PUSH2 0x2C29 JUMPI DUP1 DUP2 REVERT JUMPDEST DUP4 CALLDATALOAD PUSH2 0x2C34 DUP2 PUSH2 0x3270 JUMP JUMPDEST SWAP3 POP PUSH1 0x20 DUP5 ADD CALLDATALOAD PUSH2 0x2C44 DUP2 PUSH2 0x3270 JUMP JUMPDEST SWAP3 SWAP6 SWAP3 SWAP5 POP POP POP PUSH1 0x40 SWAP2 SWAP1 SWAP2 ADD CALLDATALOAD SWAP1 JUMP JUMPDEST PUSH1 0x0 DUP1 PUSH1 0x0 DUP1 PUSH1 0x80 DUP6 DUP8 SUB SLT ISZERO PUSH2 0x2C6A JUMPI DUP1 DUP2 REVERT JUMPDEST DUP5 CALLDATALOAD PUSH2 0x2C75 DUP2 PUSH2 0x3270 JUMP JUMPDEST SWAP4 POP PUSH1 0x20 DUP6 ADD CALLDATALOAD PUSH2 0x2C85 DUP2 PUSH2 0x3270 JUMP JUMPDEST SWAP3 POP PUSH1 0x40 DUP6 ADD CALLDATALOAD SWAP2 POP PUSH1 0x60 DUP6 ADD CALLDATALOAD PUSH8 0xFFFFFFFFFFFFFFFF DUP2 GT ISZERO PUSH2 0x2CA7 JUMPI DUP2 DUP3 REVERT JUMPDEST PUSH2 0x2CB3 DUP8 DUP3 DUP9 ADD PUSH2 0x2B56 JUMP JUMPDEST SWAP2 POP POP SWAP3 SWAP6 SWAP2 SWAP5 POP SWAP3 POP JUMP JUMPDEST PUSH1 0x0 DUP1 PUSH1 0x40 DUP4 DUP6 SUB SLT ISZERO PUSH2 0x2CD1 JUMPI DUP2 DUP3 REVERT JUMPDEST DUP3 CALLDATALOAD PUSH2 0x2CDC DUP2 PUSH2 0x3270 JUMP JUMPDEST SWAP2 POP PUSH1 0x20 DUP4 ADD CALLDATALOAD DUP1 ISZERO ISZERO DUP2 EQ PUSH2 0x2C0A JUMPI DUP2 DUP3 REVERT JUMPDEST PUSH1 0x0 DUP1 PUSH1 0x0 DUP1 PUSH1 0x0 PUSH1 0xA0 DUP7 DUP9 SUB SLT ISZERO PUSH2 0x2D07 JUMPI DUP1 DUP2 REVERT JUMPDEST DUP6 CALLDATALOAD PUSH2 0x2D12 DUP2 PUSH2 0x3270 JUMP JUMPDEST SWAP5 POP PUSH1 0x20 DUP7 ADD CALLDATALOAD PUSH8 0xFFFFFFFFFFFFFFFF DUP2 GT ISZERO PUSH2 0x2D2D JUMPI DUP2 DUP3 REVERT JUMPDEST PUSH2 0x2D39 DUP9 DUP3 DUP10 ADD PUSH2 0x2B56 JUMP JUMPDEST SWAP5 POP POP PUSH1 0x40 DUP7 ADD CALLDATALOAD SWAP3 POP PUSH1 0x60 DUP7 ADD CALLDATALOAD SWAP2 POP PUSH1 0x80 DUP7 ADD CALLDATALOAD PUSH1 0xFF DUP2 AND DUP2 EQ PUSH2 0x2D5D JUMPI DUP2 DUP3 REVERT JUMPDEST DUP1 SWAP2 POP POP SWAP3 SWAP6 POP SWAP3 SWAP6 SWAP1 SWAP4 POP JUMP JUMPDEST PUSH1 0x0 DUP1 PUSH1 0x40 DUP4 DUP6 SUB SLT ISZERO PUSH2 0x2D7D JUMPI DUP2 DUP3 REVERT JUMPDEST DUP3 CALLDATALOAD PUSH2 0x2D88 DUP2 PUSH2 0x3270 JUMP JUMPDEST SWAP5 PUSH1 0x20 SWAP4 SWAP1 SWAP4 ADD CALLDATALOAD SWAP4 POP POP POP JUMP JUMPDEST PUSH1 0x0 DUP1 PUSH1 0x40 DUP4 DUP6 SUB SLT ISZERO PUSH2 0x2DA8 JUMPI DUP2 DUP3 REVERT JUMPDEST DUP3 CALLDATALOAD PUSH8 0xFFFFFFFFFFFFFFFF DUP1 DUP3 GT ISZERO PUSH2 0x2DBF JUMPI DUP4 DUP5 REVERT JUMPDEST DUP2 DUP6 ADD SWAP2 POP DUP6 PUSH1 0x1F DUP4 ADD SLT PUSH2 0x2DD2 JUMPI DUP4 DUP5 REVERT JUMPDEST DUP2 CALLDATALOAD PUSH1 0x20 PUSH2 0x2DE2 PUSH2 0x2B0F DUP4 PUSH2 0x3112 JUMP JUMPDEST DUP3 DUP2 MSTORE DUP2 DUP2 ADD SWAP1 DUP6 DUP4 ADD DUP4 DUP6 MUL DUP8 ADD DUP5 ADD DUP12 LT ISZERO PUSH2 0x2DFE JUMPI DUP9 DUP10 REVERT JUMPDEST DUP9 SWAP7 POP JUMPDEST DUP5 DUP8 LT ISZERO PUSH2 0x2E20 JUMPI DUP1 CALLDATALOAD DUP4 MSTORE PUSH1 0x1 SWAP7 SWAP1 SWAP7 ADD SWAP6 SWAP2 DUP4 ADD SWAP2 DUP4 ADD PUSH2 0x2E02 JUMP JUMPDEST POP SWAP7 POP POP DUP7 ADD CALLDATALOAD SWAP3 POP POP DUP1 DUP3 GT ISZERO PUSH2 0x2E36 JUMPI DUP3 DUP4 REVERT JUMPDEST POP PUSH2 0x2E43 DUP6 DUP3 DUP7 ADD PUSH2 0x2AEF JUMP JUMPDEST SWAP2 POP POP SWAP3 POP SWAP3 SWAP1 POP JUMP JUMPDEST PUSH1 0x0 PUSH1 0x20 DUP3 DUP5 SUB SLT ISZERO PUSH2 0x2E5E JUMPI DUP1 DUP2 REVERT JUMPDEST POP CALLDATALOAD SWAP2 SWAP1 POP JUMP JUMPDEST PUSH1 0x0 PUSH1 0x20 DUP3 DUP5 SUB SLT ISZERO PUSH2 0x2E76 JUMPI DUP1 DUP2 REVERT JUMPDEST DUP2 CALLDATALOAD PUSH2 0x1EB7 DUP2 PUSH2 0x3285 JUMP JUMPDEST PUSH1 0x0 PUSH1 0x20 DUP3 DUP5 SUB SLT ISZERO PUSH2 0x2E92 JUMPI DUP1 DUP2 REVERT JUMPDEST DUP2 MLOAD PUSH2 0x1EB7 DUP2 PUSH2 0x3285 JUMP JUMPDEST PUSH1 0x0 PUSH1 0x20 DUP3 DUP5 SUB SLT ISZERO PUSH2 0x2EAE JUMPI DUP1 DUP2 REVERT JUMPDEST DUP2 MLOAD PUSH2 0x1EB7 DUP2 PUSH2 0x3270 JUMP JUMPDEST PUSH1 0x0 PUSH1 0x20 DUP3 DUP5 SUB SLT ISZERO PUSH2 0x2ECA JUMPI DUP1 DUP2 REVERT JUMPDEST DUP2 CALLDATALOAD PUSH8 0xFFFFFFFFFFFFFFFF DUP2 GT ISZERO PUSH2 0x2EE0 JUMPI DUP2 DUP3 REVERT JUMPDEST PUSH2 0x1A93 DUP5 DUP3 DUP6 ADD PUSH2 0x2B56 JUMP JUMPDEST PUSH1 0x0 PUSH1 0x20 DUP3 DUP5 SUB SLT ISZERO PUSH2 0x2EFD JUMPI DUP1 DUP2 REVERT JUMPDEST POP MLOAD SWAP2 SWAP1 POP JUMP JUMPDEST PUSH1 0x0 DUP1 PUSH1 0x40 DUP4 DUP6 SUB SLT ISZERO PUSH2 0x2F16 JUMPI DUP2 DUP3 REVERT JUMPDEST POP POP DUP1 CALLDATALOAD SWAP3 PUSH1 0x20 SWAP1 SWAP2 ADD CALLDATALOAD SWAP2 POP JUMP JUMPDEST PUSH1 0x0 DUP2 MLOAD DUP1 DUP5 MSTORE PUSH2 0x2F3D DUP2 PUSH1 0x20 DUP7 ADD PUSH1 0x20 DUP7 ADD PUSH2 0x3198 JUMP JUMPDEST PUSH1 0x1F ADD PUSH1 0x1F NOT AND SWAP3 SWAP1 SWAP3 ADD PUSH1 0x20 ADD SWAP3 SWAP2 POP POP JUMP JUMPDEST PUSH1 0x0 DUP2 MLOAD PUSH2 0x2F63 DUP2 DUP6 PUSH1 0x20 DUP7 ADD PUSH2 0x3198 JUMP JUMPDEST SWAP3 SWAP1 SWAP3 ADD SWAP3 SWAP2 POP POP JUMP JUMPDEST PUSH1 0x0 DUP3 MLOAD PUSH2 0x2F7F DUP2 DUP5 PUSH1 0x20 DUP8 ADD PUSH2 0x3198 JUMP JUMPDEST SWAP2 SWAP1 SWAP2 ADD SWAP3 SWAP2 POP POP JUMP JUMPDEST PUSH1 0x0 DUP4 MLOAD PUSH2 0x2F9B DUP2 DUP5 PUSH1 0x20 DUP9 ADD PUSH2 0x3198 JUMP JUMPDEST PUSH1 0x60 SWAP4 SWAP1 SWAP4 SHL PUSH12 0xFFFFFFFFFFFFFFFFFFFFFFFF NOT AND SWAP2 SWAP1 SWAP3 ADD SWAP1 DUP2 MSTORE PUSH1 0x14 ADD SWAP3 SWAP2 POP POP JUMP JUMPDEST DUP3 SLOAD PUSH1 0x0 SWAP1 DUP2 SWAP1 PUSH1 0x2 DUP2 DIV PUSH1 0x1 DUP1 DUP4 AND DUP1 PUSH2 0x2FDC JUMPI PUSH1 0x7F DUP4 AND SWAP3 POP JUMPDEST PUSH1 0x20 DUP1 DUP5 LT DUP3 EQ ISZERO PUSH2 0x2FFC JUMPI PUSH4 0x4E487B71 PUSH1 0xE0 SHL DUP8 MSTORE PUSH1 0x22 PUSH1 0x4 MSTORE PUSH1 0x24 DUP8 REVERT JUMPDEST DUP2 DUP1 ISZERO PUSH2 0x3010 JUMPI PUSH1 0x1 DUP2 EQ PUSH2 0x3021 JUMPI PUSH2 0x304D JUMP JUMPDEST PUSH1 0xFF NOT DUP7 AND DUP10 MSTORE DUP5 DUP10 ADD SWAP7 POP PUSH2 0x304D JUMP JUMPDEST PUSH1 0x0 DUP12 DUP2 MSTORE PUSH1 0x20 SWAP1 KECCAK256 DUP9 JUMPDEST DUP7 DUP2 LT ISZERO PUSH2 0x3045 JUMPI DUP2 SLOAD DUP12 DUP3 ADD MSTORE SWAP1 DUP6 ADD SWAP1 DUP4 ADD PUSH2 0x302C JUMP JUMPDEST POP POP DUP5 DUP10 ADD SWAP7 POP JUMPDEST POP POP POP POP POP POP PUSH2 0x305D DUP2 DUP6 PUSH2 0x2F51 JUMP JUMPDEST SWAP6 SWAP5 POP POP POP POP POP JUMP JUMPDEST PUSH1 0x0 PUSH1 0x1 PUSH1 0x1 PUSH1 0xA0 SHL SUB DUP1 DUP7 AND DUP4 MSTORE DUP1 DUP6 AND PUSH1 0x20 DUP5 ADD MSTORE POP PUSH1 0x60 PUSH1 0x40 DUP4 ADD MSTORE PUSH2 0x305D PUSH1 0x60 DUP4 ADD DUP5 PUSH2 0x2F25 JUMP JUMPDEST PUSH1 0x0 PUSH1 0x1 PUSH1 0x1 PUSH1 0xA0 SHL SUB DUP1 DUP8 AND DUP4 MSTORE DUP1 DUP7 AND PUSH1 0x20 DUP5 ADD MSTORE POP DUP4 PUSH1 0x40 DUP4 ADD MSTORE PUSH1 0x80 PUSH1 0x60 DUP4 ADD MSTORE PUSH2 0x30C4 PUSH1 0x80 DUP4 ADD DUP5 PUSH2 0x2F25 JUMP JUMPDEST SWAP7 SWAP6 POP POP POP POP POP POP JUMP JUMPDEST PUSH1 0x0 PUSH1 0x20 DUP3 MSTORE PUSH2 0x1EB7 PUSH1 0x20 DUP4 ADD DUP5 PUSH2 0x2F25 JUMP JUMPDEST PUSH1 0x40 MLOAD PUSH1 0x1F DUP3 ADD PUSH1 0x1F NOT AND DUP2 ADD PUSH8 0xFFFFFFFFFFFFFFFF DUP2 GT DUP3 DUP3 LT OR ISZERO PUSH2 0x310A JUMPI PUSH2 0x310A PUSH2 0x325A JUMP JUMPDEST PUSH1 0x40 MSTORE SWAP2 SWAP1 POP JUMP JUMPDEST PUSH1 0x0 PUSH8 0xFFFFFFFFFFFFFFFF DUP3 GT ISZERO PUSH2 0x312C JUMPI PUSH2 0x312C PUSH2 0x325A JUMP JUMPDEST POP PUSH1 0x20 SWAP1 DUP2 MUL ADD SWAP1 JUMP JUMPDEST PUSH1 0x0 DUP3 NOT DUP3 GT ISZERO PUSH2 0x3149 JUMPI PUSH2 0x3149 PUSH2 0x322E JUMP JUMPDEST POP ADD SWAP1 JUMP JUMPDEST PUSH1 0x0 DUP3 PUSH2 0x315D JUMPI PUSH2 0x315D PUSH2 0x3244 JUMP JUMPDEST POP DIV SWAP1 JUMP JUMPDEST PUSH1 0x0 DUP2 PUSH1 0x0 NOT DIV DUP4 GT DUP3 ISZERO ISZERO AND ISZERO PUSH2 0x317C JUMPI PUSH2 0x317C PUSH2 0x322E JUMP JUMPDEST POP MUL SWAP1 JUMP JUMPDEST PUSH1 0x0 DUP3 DUP3 LT ISZERO PUSH2 0x3193 JUMPI PUSH2 0x3193 PUSH2 0x322E JUMP JUMPDEST POP SUB SWAP1 JUMP JUMPDEST PUSH1 0x0 JUMPDEST DUP4 DUP2 LT ISZERO PUSH2 0x31B3 JUMPI DUP2 DUP2 ADD MLOAD DUP4 DUP3 ADD MSTORE PUSH1 0x20 ADD PUSH2 0x319B JUMP JUMPDEST DUP4 DUP2 GT ISZERO PUSH2 0x16D5 JUMPI POP POP PUSH1 0x0 SWAP2 ADD MSTORE JUMP JUMPDEST PUSH1 0x2 DUP2 DIV PUSH1 0x1 DUP3 AND DUP1 PUSH2 0x31D8 JUMPI PUSH1 0x7F DUP3 AND SWAP2 POP JUMPDEST PUSH1 0x20 DUP3 LT DUP2 EQ ISZERO PUSH2 0x31F9 JUMPI PUSH4 0x4E487B71 PUSH1 0xE0 SHL PUSH1 0x0 MSTORE PUSH1 0x22 PUSH1 0x4 MSTORE PUSH1 0x24 PUSH1 0x0 REVERT JUMPDEST POP SWAP2 SWAP1 POP JUMP JUMPDEST PUSH1 0x0 PUSH1 0x0 NOT DUP3 EQ ISZERO PUSH2 0x3213 JUMPI PUSH2 0x3213 PUSH2 0x322E JUMP JUMPDEST POP PUSH1 0x1 ADD SWAP1 JUMP JUMPDEST PUSH1 0x0 DUP3 PUSH2 0x3229 JUMPI PUSH2 0x3229 PUSH2 0x3244 JUMP JUMPDEST POP MOD SWAP1 JUMP JUMPDEST PUSH4 0x4E487B71 PUSH1 0xE0 SHL PUSH1 0x0 MSTORE PUSH1 0x11 PUSH1 0x4 MSTORE PUSH1 0x24 PUSH1 0x0 REVERT JUMPDEST PUSH4 0x4E487B71 PUSH1 0xE0 SHL PUSH1 0x0 MSTORE PUSH1 0x12 PUSH1 0x4 MSTORE PUSH1 0x24 PUSH1 0x0 REVERT JUMPDEST PUSH4 0x4E487B71 PUSH1 0xE0 SHL PUSH1 0x0 MSTORE PUSH1 0x41 PUSH1 0x4 MSTORE PUSH1 0x24 PUSH1 0x0 REVERT JUMPDEST PUSH1 0x1 PUSH1 0x1 PUSH1 0xA0 SHL SUB DUP2 AND DUP2 EQ PUSH2 0xF8F JUMPI PUSH1 0x0 DUP1 REVERT JUMPDEST PUSH1 0x1 PUSH1 0x1 PUSH1 0xE0 SHL SUB NOT DUP2 AND DUP2 EQ PUSH2 0xF8F JUMPI PUSH1 0x0 DUP1 REVERT INVALID 0x4D PUSH6 0x74615472616E PUSH20 0x616374696F6E2875696E74323536206E6F6E6365 0x2C PUSH2 0x6464 PUSH19 0x6573732066726F6D2C62797465732066756E63 PUSH21 0x696F6E5369676E61747572652968747470733A2F2F PUSH21 0x6F79732E3078746563686E6F2E6172742F6170692F PUSH21 0x6F79732F636F6E74726163742F314F776E61626C65 GASPRICE KECCAK256 PUSH4 0x616C6C65 PUSH19 0x206973206E6F7420746865206F776E6572A264 PUSH10 0x70667358221220038DFF 0x5D DUP16 DUP1 DUP11 DUP3 PUSH13 0x7FDCC9F0513F1782614772DDF1 0xEA SLT PUSH28 0x757C3952E591F664736F6C6343000802003368747470733A2F2F746F PUSH26 0x732E3078746563686E6F2E6172742F6170692F746F79732F6D65 PUSH21 0x612F454950373132446F6D61696E28737472696E67 KECCAK256 PUSH15 0x616D652C737472696E672076657273 PUSH10 0x6F6E2C61646472657373 KECCAK256 PUSH23 0x6572696679696E67436F6E74726163742C627974657333 ORIGIN KECCAK256 PUSH20 0x616C742900000000000000000000000000000000 "
        },
        "methodIdentifiers": {
          "ERC712_VERSION()": "0f7e5970",
          "approve(address,uint256)": "095ea7b3",
          "balanceOf(address)": "70a08231",
          "contractURI()": "e8a3d485",
          "daoAddress()": "2131c68c",
          "executeMetaTransaction(address,bytes,bytes32,bytes32,uint8)": "0c53c51c",
          "fixedPrice()": "1efba6c2",
          "flipSalePublicStatus()": "e6019716",
          "generativeArtScript(uint256)": "86292bb4",
          "getApproved(uint256)": "081812fc",
          "getChainId()": "3408e470",
          "getDomainSeperator()": "20379ee5",
          "getNonce(address)": "2d0335ab",
          "hashToTokenId(bytes32)": "f51f74a9",
          "isApprovedForAll(address,address)": "e985e9c5",
          "maxByMint()": "138a4e01",
          "maxPublicSupply()": "26a74d8e",
          "maxReservedSupply()": "c1fad42c",
          "maxSupply()": "d5abeb01",
          "mintPublic(uint256)": "efd0cbf9",
          "mintReserved(address,uint256)": "7de55fe1",
          "name()": "06fdde03",
          "owner()": "8da5cb5b",
          "ownerOf(uint256)": "6352211e",
          "proxyRegistryAddress()": "cd7c0326",
          "renounceOwnership()": "715018a6",
          "safeTransferFrom(address,address,uint256)": "42842e0e",
          "safeTransferFrom(address,address,uint256,bytes)": "b88d4fde",
          "salePublicIsActive()": "b6c65d38",
          "setApprovalForAll(address,bool)": "a22cb465",
          "setBaseTokenURI(string)": "30176e13",
          "setDaoAddress(address)": "9a3cac6a",
          "setFixedPrice(uint256)": "73c8c883",
          "setMaxByMint(uint256)": "b455c5fe",
          "setProxyRegistryAddress(address)": "d26ea6c0",
          "setSupply(uint256,uint256)": "fc784d49",
          "supportsInterface(bytes4)": "01ffc9a7",
          "symbol()": "95d89b41",
          "tokenIdToHash(uint256)": "621a1f74",
          "tokenURI(uint256)": "c87b56dd",
          "totalPublicSupply()": "e6a5931e",
          "totalReservedSupply()": "674d13c8",
          "totalSupply()": "18160ddd",
          "transferFrom(address,address,uint256)": "23b872dd",
          "transferOwnership(address)": "f2fde38b",
          "updateScript(uint256[],string[])": "c26272a4",
          "withdraw()": "3ccfd60b"
        }
      }
    }
  }
}