{
  "_format": "hh-sol-artifact-1",
  "contractName": "EIP712Base",
  "sourceName": "contracts/common/meta-transactions/EIP712Base.sol",
  "abi": [
    {
      "inputs": [],
      "name": "ERC712_VERSION",
      "outputs": [
        {
          "internalType": "string",
          "name": "",
          "type": "string"
        }
      ],
      "stateMutability": "view",
      "type": "function"
    },
    {
      "inputs": [],
      "name": "getChainId",
      "outputs": [
        {
          "internalType": "uint256",
          "name": "",
          "type": "uint256"
        }
      ],
      "stateMutability": "view",
      "type": "function"
    },
    {
      "inputs": [],
      "name": "getDomainSeperator",
      "outputs": [
        {
          "internalType": "bytes32",
          "name": "",
          "type": "bytes32"
        }
      ],
      "stateMutability": "view",
      "type": "function"
    }
  ],
  "bytecode": "0x608060405234801561001057600080fd5b5061012c806100206000396000f3fe6080604052348015600f57600080fd5b5060043610603c5760003560e01c80630f7e597014604157806320379ee51460905780633408e4701460a1575b600080fd5b607c6040518060400160405280600181526020017f310000000000000000000000000000000000000000000000000000000000000081525081565b6040516087919060a6565b60405180910390f35b6001545b6040519081526020016087565b466094565b6000602080835283518082850152825b8181101560d05785810183015185820160400152820160b6565b8181111560e05783604083870101525b50601f01601f191692909201604001939250505056fea26469706673582212204bf9c502756484739e531f8c4e502741cae7c80db9c87854361ed1d9dd382e6464736f6c63430008020033",
  "linkReferences": {},
  "deployedLinkReferences": {}
}